:020000041000EA
:1000000000B5324B212058609868022188439860DF
:10001000D860186158612E4B002199600221596106
:100020000121F02299502B49196001219960352056
:1000300000F044F80222904214D00621196600F024
:1000400034F8196E01211966002018661A6600F04E
:100050002CF8196E196E196E052000F02FF8012189
:100060000842F9D1002199601B49196000215960AB
:100070001A491B48016001219960EB211966A021F2
:10008000196600F012F800219960164914480160C1
:100090000121996001BC002800D000471248134993
:1000A000086003C880F30888084703B5996A0420EC
:1000B0000142FBD001200142F8D103BD02B5186610
:1000C0001866FFF7F2FF186E186E02BD00000240BE
:1000D000000000180000070000035F00212200005C
:1000E000F4000018222000A00001001008ED00E03C
:1000F00000000000000000000000000074B24E7A12
:1001000000200420F7010010CB010010CD010010E9
:10011000C9010010C9010010C9010010C901001077
:10012000C9010010C9010010C9010010CF01001061
:10013000C9010010C9010010D1010010D301001045
:10014000C1010010C1010010C1010010C101001067
:10015000C1010010C1010010C1010010C101001057
:10016000C1010010C1010010C1010010C101001047
:10017000C1010010C1010010C1010010C101001037
:10018000C1010010C1010010C1010010C101001027
:10019000C1010010C1010010C1010010C101001017
:1001A000C1010010C1010010C1010010C101001007
:1001B000C1010010C1010010C1010010C1010010F7
:1001C000EFF30580103800BE00BE00BE00BE00BECA
:1001D00000BE00BEF2EB8871F8AC001018AD001044
:1001E0003802001090A31AE71E481F49086006C88D
:1001F00081F3088810471D480068002801D019487D
:10020000F3E70DA40ECC002902D000F012F8F9E7B4
:100210001749184A002000E001C19142FCD116495B
:100220008847164988471649884700BEFDE701C937
:1002300001C29A42FBD3704718AD0010C0000020E5
:1002400078100020D0BC0010000004200000042022
:10025000D0BC00100010042000100420000000009A
:10026000704700000000000008ED00E0000000D032
:1002700078100020C4FF0020F9610010D5020010A2
:10028000F1610010F8B5C04606480749091A8B10FD
:10029000C90FC91810B5491003D0044B002B00D06A
:1002A000984710BD78100020781000200000000052
:1002B000054B10B5002B03D00449054800E000BFF2
:1002C000FFF7E2FF10BDC04600000000946500206B
:1002D000CC990010F0B5C646002100B5002008F00A
:1002E0007BFD06F0B3F8192002F0D0FAD02380226B
:1002F0001B0692045A62022001F0D8F9002001F096
:1003000063FF0421032000F05BF8FA20C00003F033
:1003100039F8264806F0E8F801F05CFF01F060FFCC
:1003200002210200224806F061F9224806F0DCF8BA
:10033000002503F037F9204C24184D41002D02DA36
:1003400001241E4D64420023002798461A4E0120C6
:100350000021404206F094FE02F02AF900F070F805
:1003600003F020F922002B00121A8B41002BEEDC47
:1003700001D1002AEBD1424601235A4090460FD0CA
:10038000D02380221B0692045A6103F00BF98019D6
:10039000794104000D1EDADA0124084D6442D6E7E3
:1003A000D02380221B0692049A61EEE7D0990010B8
:1003B000E4990010009A001090D00300FFFFFF7F27
:1003C0000022184B70B51A70174C184B05001A60B4
:1003D000216003F0E7F8164B164A9C46002380186C
:1003E000594102000B1E02DA0122134B52426146B0
:1003F00020680A604B6002F049FA01232268280055
:100400009340D0221206936200F0A2FB002000F07D
:100410000DFD00F057FE29002268084806F0E6F8B6
:1004200070BDC046BBFF0020BC60002054670020A8
:10043000704C002040420F00FFFFFF7F0C9A00101D
:10044000F0B5DE46574645464E46E0B589B001F068
:10045000C1FEC84B80469A46C74BC84F9B4602AC6C
:10046000200000F049FE002800D191E042462369B7
:10047000022A00D083E0012B00D880E063787A2B39
:1004800065D00F220926217850460A40090906F056
:10049000ADF8236901256E44012B2AD93178380043
:1004A00006F0A4F82369013501369D42F6D3012BED
:1004B0001FD96378363BDBB28F2B00D986E0B04A78
:1004C0009B009958AF4806F091F863787A2B00D1D9
:1004D00084E0442B00D130E1722B0AD12369022B36
:1004E00007D9A378002B00D0B7E1A749A74806F0A9
:1004F0007DF80A2005F0AEFF2269012AB0D96378A1
:100500007A2B59D02278502AAAD1C02B00D1DCE016
:1005100000D9C7E08F2B00D1A4E09F2B00D1F6E0DB
:10052000832B9DD14346022B9AD0994B6A46009368
:100530000023052113716846022200F04BFD0028BC
:1005400000D084E19049934806F050F888E703F022
:1005500029F85B460E0019688F4B050099465B68C9
:10056000B34200D999E000D192E0002900D0A5E083
:1005700000238A4A4946521973410CC12369002B52
:1005800000D07EE7200000F0B7FD002800D06DE726
:100590004346022B00D1DFE003F004F8804C2268D0
:1005A0006368121A8B41002B28DD09B0F0BCBB46F2
:1005B000B246A946A046F0BD022A00D150E77F20EE
:1005C000A378D909184001F093FE49E775496D48B1
:1005D00006F00CF863787A2B00D07AE72369022BB7
:1005E00000D886E77F21A37819405BB2002B00DAA0
:1005F00029E1654A6C4805F0F9FF7AE7002B01D143
:10060000002AD2D1D0231B065A68684B19680123EF
:100610008B401A40531E9A41D5B200F0F9FB644E4C
:1006200007003368002B00D1E6E0012B00D116E172
:10063000022B00D126E15F4B1B78002B00D0FAE0A3
:100640006A465D4B022113806846022200F0C2FC1C
:10065000002800D014E14C493B002A00574805F01F
:10066000C5FFD5E04346022B00D1F9E66846544B5E
:1006700003211A8802809B780222837000F0AAFC72
:10068000002800D0E5E040494E4805F0AFFFE7E61E
:100690004B461B68AB4200D867E75B4601312269D5
:1006A00019602AE7C22B2BD0C52B00D0D8E6002238
:1006B000404B45481A7005F017FFD1E6434805F056
:1006C00095FF00235A46136052E73A4B1A78002AE6
:1006D00000D0C5E601321A704346022B00D1BFE6B6
:1006E0006A463B4B022113806846022200F072FCEE
:1006F000002800D1D9E03749374805F077FFAFE649
:1007000000222C4B35481A7005F0EEFEA8E6434651
:10071000022B00D1A4E66846314B03211A880280DF
:100720009B780222837000F055FC002800D092E0F4
:1007300015492C4805F05AFF92E62369022B00D890
:10074000D7E6A2786D2A00D97BE0274B9100C958E3
:10075000264805F04BFFCCE602F024FF0025244C90
:100760000F4A001969410B1E02DA0120214B404259
:1007700009C21AE73C9A00109C730020849A00106A
:1007800030A500108C9A0010389A0010B89A00100A
:100790000F840000C49A0010784C002020A10700AC
:1007A000704C00202C9A0010949A0010BC6000201D
:1007B00054670020BBFF002005C3FFFF6C9C0010A6
:1007C000C09C0010F09A0010A09B00104C9A0010E2
:1007D00005C1FFFF349A0010409B00107C9B001065
:1007E000C49C00101C9B001078A30010A89A001055
:1007F00080841E00FFFFFF7F0521002000F000FC29
:10080000002822D02C493B002A002C4805F0EEFE9F
:100810000323326801321340336002F0C3FE002329
:10082000274A8018594102000B1E02DA0122254B8B
:1008300052420CC4B9E63A002900234805F0D6FE1E
:10084000E6E7224984E71C4AD4E62149DBE71A4956
:1008500079E6194918E718496BE7174946E66A46E9
:100860001C4B022113806846022200F0B3FB0028D3
:100870001DD011493B002A00174805F0B7FEC7E715
:100880000D49E9E6154B6A460093002305211371D3
:100890006846022200F09EFB00280AD006493B0071
:1008A0002A000F4805F0A2FEB2E7094924E70849EB
:1008B000E0E70749F3E7C046349A0010C89B0010F0
:1008C00080841E00FFFFFF7FA09C00102C9A001068
:1008D000389A0010058FFFFFF89B00100F8400006E
:1008E000309C0010F0B5C646204C214B22780121E7
:1008F00000B51B68002A03D01A6B1142FCD01963A3
:10090000012604213500421C9446820019481A4FE2
:1009100081501A4A267011681A688D40AA431A60DD
:100920004A005218D2009A18D21980273F06176041
:1009300017603700802204318F40A02492019A185A
:1009400017601E631A68E40515430D4A8900126892
:100950001D60920112195B1810605360634693602A
:10096000084B1B68D36080BCB846F0BDBDFF0020BB
:10097000B4590020A8320020D0100000B85900203F
:10098000AC590020B0590020F0B54F46D646464637
:10099000C0B582B002F006FED02300271B06334EFE
:1009A0005A68334B36184F419946196801238B40DA
:1009B00000240025009601971A4252D1A0222D4B07
:1009C000D2051B689B019B185B682B4A9B1A1B0571
:1009D0002A4A9B0D13602A4B98462A4B9A4602F0EE
:1009E000E1FD019B8B422CD943461B78002B09D09B
:1009F000534601221B68196B0A4203D01A63002375
:100A00004246137002F0CEFDD0231B065A684B46B7
:100A10001B681E000123B3401A420BD023002B4356
:100A20001CD0001BA941002902D1174B9842D6D9EE
:100A300001200DE002F0B6FD019B002400258B4251
:100A4000D2D8009A019B8B4201D18242CCD800209F
:100A500002B0E0BCBA46B146A846F0BD04000D00A5
:100A6000BDE702F09FFD04000D00A7E7A08601008E
:100A7000985900209C59002000200020A4590020F3
:100A8000BDFF0020B459002087130000F0B5CE460A
:100A90004746032280B5294B83B001201A60002508
:100AA000FFF720FF02F07EFD254C264B24184D4118
:100AB0009846254B0127994600940195234E02F054
:100AC00071FD4346019C0A00844631781B689442BC
:100AD0001FD9002905D01A6B174203D000221F63CB
:100AE000327000214A465868126804003800083203
:100AF00090400442E3D192000120D458002905D04F
:100B00001A6B1042FCD01863002333700120A043FD
:100B10000FE0009C019D954201D16445D9D8012088
:100B2000002905D01A6B1042FCD0186300233370E3
:100B3000002003B0C0BCB946B046F0BDA8320020CA
:100B400070170000B4590020B8590020BDFF0020E4
:100B5000F0B5CE46474680B5994C8FB0206001F085
:100B600095FE01232268974E9340D02296481206A4
:100B7000936101219362306008F0EEFC934F944939
:100B80003860306808F004FD002380220993F823C0
:100B900052025B0206920793C02305001B0310223A
:100BA00006A981460AA8089303F05AFFEB011C35F9
:100BB0002D031D4310220AA902A80B9503F050FF34
:100BC000F82123680903DA030A400592F8221B067C
:100BD000520513407F4A052015402B4303937E4B5B
:100BE000049302F0DFFD03F0B5FE7C4903F097FEAD
:100BF000EC21890503F090FE804603F0D3FE85B218
:100C00000020002D0ED0280003F0A4FE011C404659
:100C100003F07FFE8721C90503F095FE03F0C2FEB5
:100C2000C0B200022D044A463968054302AB306861
:100C3000029508F0C9FD01233868326883401168C5
:100C400001200B43136008F077FC654B3268186095
:100C5000644B3968D3181B0D0D1D634EDB005B1907
:100C6000C5023540DB032B43604D08311D43A023F3
:100C70008001DB05C0188B00D218012302605C4A9A
:100C80005B4242608360C56043685A4E9B1A5A4873
:100C90005A4A1B059B0D01211360306008F05CFC73
:100CA000574D58492860306808F072FC00238022B4
:100CB0000993F82352025B0206920793C0230700B0
:100CC0001B03102206A981460AA8089303F0C8FE58
:100CD0003B001B33FA011B0313430AA9102206A889
:100CE0000B9303F0BDFEF82123680903DA030A40E1
:100CF000F8215B0189000B4013438022D204134387
:100D00000993802305201B03089302F04BFD03F099
:100D100021FE324903F003FEEC21890503F0FCFDBE
:100D2000804603F03FFE87B20020002F0ED038002F
:100D300003F010FE011C404603F0EBFD8721C905BE
:100D400003F001FE03F02EFEC0B200023F044A464B
:100D50002968074306AB3068069708F035FD214B3C
:100D600031682068C918090D0631C9B201F076FD55
:100D700029683068002208F087FC0023226829686F
:100D800030680093013308F0C7FC012008F0D4FB61
:100D90001D4B144918603368C0025B181B0D29688D
:100DA000DB005B181049DB0308401921174A034395
:100DB0000B4313600FB0C0BCB946B046F0BDC0468F
:100DC00098590020A059002000003050A859002058
:100DD000B0A70010FFFFFFE00000088000409C4625
:100DE0009C5900200000E0AFFF7F00FF29070000B2
:100DF00000200020B459002000002050A4590020F9
:100E0000B859002070A70010AC590020B05900203C
:100E1000D0231B065868044B1A68012393401840DE
:100E2000431E9841C0B27047985900200F22024BD0
:100E300002401A707047C046C1FF0020F0B54E4610
:100E40004546DE465746E0B54B1E05000C00994668
:100E500085B00F2B09D900239846404605B0F0BC59
:100E6000BB46B246A946A046F0BDFFF78DFD00285F
:100E7000F1D00F222B78504E1A40022333602B788A
:100E80009046DB09736001232A780A2092111A40E8
:100E9000B2602A7852111A40F2602A7812111A4070
:100EA00032612A78D2101A4072612A7892101A4060
:100EB000B2612A7852101A40F2612A7813404A46E9
:100EC0003362534253417362FFF70CFD3B4F3B7853
:100ED000002B08D001223A4B19680B6B1A42FCD048
:100EE00000230A633B70FFF7D1FD43460F3B1A0016
:100EF0000293534253415840C3B29846012C48D004
:100F00006B1E1B1901249A46631B9B462C4B0193B5
:100F10006B784A46DB0933606B7809209B112340CC
:100F200073606B785B112340B3606B781B112340B7
:100F3000F3606B78DB10234033616B789B102340A8
:100F400073616B785B102340B3616B782340F3616E
:100F50005B465B199B1A5A4253413362FFF7C2FC4E
:100F60003B78002B07D0019B1A68136B1C42FCD006
:100F7000002314633B70FFF789FD4346002B05D027
:100F8000029A534253415840C3B298460135AA458C
:100F9000BED1A0220B4BD2051B689B019B185B683E
:100FA000094A9B1A1B05094A9B0D13600022084B36
:100FB0001A611A7551E7C046A8320020BDFF002013
:100FC000B45900209C59002000200020A459002082
:100FD000AC650020F8B506000F00151E0ED00024E9
:100FE00005E03230013402F0CDF9A54206D03900D7
:100FF0003000FFF723FF0028F3D0F8BD0020FCE706
:1010000070B505000C00FFF7BFFC00284BD00F2285
:1010100021002B0111401943CBB211400C000221D9
:10102000214A98111160D90951600121084090604E
:1010300058110840D060181108401061D8100840BD
:101040005061981008409061581008400B40D061E2
:101050000A2013625162FFF745FC14490B78002BFC
:1010600008D00120124B1A68136B1842FCD00023E1
:1010700010630B70FFF70AFD2100A0220F394B42CD
:1010800059410C4BD2051B6848409B019B185B687B
:10109000094AC0B29B1A1B05084A9B0D1360002227
:1010A000074B1A611A7570BDA8320020BDFF0020E1
:1010B000B45900209C59002000200020A459002091
:1010C000AC650020A022084BD2051B689B019B1831
:1010D0005B68064A9B1A1B05054A9B0D136000229C
:1010E000044B1A611A7570479C590020002000209B
:1010F000A4590020AC650020F0B5D6464F464646C0
:10110000304B82461A78C0B5002A05D001212E4AFC
:101110001268106B014245D12C4B2D4F1D68A02346
:10112000AD01DB05ED182B4B2B4E99462B4C33684C
:101130006A68D21B1205920D93423FD09A00013388
:101140009B059B0DBA58336023690F2B2ED80121C4
:1011500011405208E2548846591C0F23227821611D
:1011600013404A4612789A4213D04346002BDED0F1
:10117000012322002375534623CA23C323CA23C352
:101180000023236123754046E0BCBA46B146A84619
:10119000F0BD0F2AE9D00022114B01201A60FFF7A1
:1011A000A1FBE2E7116300221A70B5E76B68DB1B55
:1011B0001B059B0D33600023236123750023984694
:1011C000E1E7C046BDFF0020B45900209C59002033
:1011D00000200020C1FF0020A4590020AC650020A1
:1011E000A83200201E49F0B50A68CE461300814699
:1011F000012047461B4C434080B50B602368012A01
:1012000022D0194D5F092E68BF00B046BC461F268C
:10121000C4441E40B040664636683043664630607F
:101220004846002818D11F21581C014042090120BE
:1012300088409200424411680143116002332360E8
:10124000C0BCB946B046F0BD48460028F6D0064DB1
:101250000A602A689046E6E70A60002AEED0F8E7BE
:10126000385A00209073002094590020F0B5C646EB
:1012700000B598468446002382B0022901D82F4B3E
:101280005B5C41460968481E814149424B40D9B2E6
:101290001B0644D400270B114BD14B0701D520234B
:1012A0001F438B0701D540231F430120FF25244BFB
:1012B0000840860299190091897815400902491958
:1012C0008900CD5AF65A591836022C063443C60105
:1012D000887892B20002120A8218920098183E434F
:1012E0008778344301943C00D25A4346009FC97822
:1012F000FF78144E7940C7782D0A79406700F619B7
:10130000715C120209062A430A43C90F1960634639
:10131000019C5A601C6002B080BCB846F0BD072733
:1013200007200B110E2B05D10B07B6D510231F4339
:10133000B3E7002008270743F6E7C04600A80010DF
:101340009050002090580020F0B5DE4657464E469B
:1013500045460023E0B595B01393C44B0C931B781E
:10136000DAB2022B00D11FE1012A00D16DE1C04B9E
:101370001A000A93BF4B0E93BF4C1000231F21008D
:101380000994934200D166E1530700D563E1C0237D
:101390001B01E4180CC80CC18C42FBD1B74B0027D1
:1013A0009946B74BB74E059313AB0293B64B98468D
:1013B000B64B19680B93B64B9B465A46B54B126811
:1013C0009C461B6804339B00D2188B01A021C905E1
:1013D0000893CB18099919605A60C02292009A604C
:1013E000AD4A92461268DA6001230793AB4B04932F
:1013F000434606935B46B3460D93A94E079BC02216
:101400005B4212011340099AD5180C9A1178CAB29E
:10141000022941D00A99012A00D10E99A14A080057
:101420009B188B4200D1B4E00B002B435B0700D527
:10143000AFE0C0231B01EC18069B290098460CC89E
:101440000CC1A142FBD143460693974B08998022D9
:10145000C918069B520498460B681342FCD14346B8
:1014600006930B9B0D991A6863461B680968043341
:101470009B00CB189101A022D20552181560536031
:10148000C0239B00936053461B680891D3600122E0
:10149000079B53400793B2E7C0231B019846A8441B
:1014A000434603935B460193069B2C009846634694
:1014B000109353460F95119352E042469900525EA5
:1014C000013341440220095EDB040198DB0C036018
:1014D000FF230B4089B29B460B0A9A4639004B1EEC
:1014E00099412000029BC9B2FFF7C0FE139A272042
:1014F000002A01D00122B1309202B318DD789B7826
:101500001B025B449B00F15AF3188B46B15A5A46B2
:1015100009020143120611439A78DB781202524401
:101520009200B01882466B405546ED7880786B404B
:10153000049D40002818C05CB35A5A461B02120A88
:10154000000613430343C00F1390A160E360781CAF
:10155000C02102F09DFB039B10340F00A3420ED06C
:101560004A46019B1B6812689342A6D1059A1368EC
:1015700001331360002300229A469B46AEE7019B8D
:101580000F9D9B4643460693109B9C46119B9A4693
:101590005BE7069AC020002390460001CA58EA5033
:1015A00004338342FAD14EE7C025334B2D011C0092
:1015B0000993ED18314B00279946314B314E059375
:1015C00013AB0293304B984622E042469900525E9C
:1015D00041440220095E01338A463900DB04DB0CFA
:1015E00033604B1E9941029B20009B46C9B2FFF716
:1015F0003DFE20005B46524608300221FFF736FED2
:10160000781CC02102F044FB10340F00A54217D013
:101610004A46336812689342D7D13900059A2000B0
:101620001368013313604B1E9941029B0022C9B21B
:101630009A46FFF71BFE2000534600220830DCE7E5
:101640000C4B0E930A4B0A93B2E60A4B1A000E9308
:10165000074B0A9390E6C02100230901D058099C4A
:10166000E05004338B42F9D198E6C046A80F002021
:101670007C670020A073002058340020A8FF0020C1
:10168000ACFF0020A4FF0020A47F00208073002076
:10169000887300208C7300208473002090580020F1
:1016A0009050002054340020100000504F4AF0B5F4
:1016B000944680224546DE4657464E46D201924623
:1016C0004B4AE0B59146802280254A4B91B0920169
:1016D00006901C000021012090469B466D0039E0D9
:1016E00003261340104200D129E2082703223A437F
:1016F0008F0807407B40002F3CD020273A43CF087B
:1017000007407B40002F3CD080273A430F09074019
:101710007B40002F3BD08027BF003A434F09074052
:101720007B40002F3BD080273F013A438F09074081
:101730007B40002F3BD0CF097B40002F00D110E22F
:101740004E460127324301312280A770E370A9423F
:101750003BD0043403004A080842C1D093431042EE
:1017600000D0EBE1082705223A438F0807407B4071
:10177000002FC2D14026CF0807407B403243002FC4
:10178000C2D00F0907407B402A43002FC3D08026D8
:101790004F090740F6007B403243002FC3D080261C
:1017A0008F09074076017B403243002FC3D0CF0919
:1017B0007B40002F00D1CCE1564600273243013157
:1017C0002280A770E370A942C3D108208046102070
:1017D0005B46834620208022802584464020D2001C
:1017E00099188146002301226D0040E000C0FFFFF0
:1017F00000A0FFFF9050002010005C08A043224290
:1018000000D0C0E102245F469E08164070403C4371
:10181000002E3CD166463443DE0816407040002E50
:101820003CD0802727431C0914406040002C3CD04A
:101830008024A40027435C0914406040002C3CD065
:1018400080249E09240116403C437040002E3CD069
:10185000DE097040002E00D197E1E44E013334439D
:1018600001260C808E70C870AB423DD004311A4204
:10187000C2D110005C082040224200D079E104244B
:10188000464634439E0816407040002EC2D14F4653
:10189000DE08164070403C43002EC2D01E091640A0
:1018A0002C4327007040002EC2D080265C091440D3
:1018B000F60060403743002CC2D080249E091640B9
:1018C000640170403C43002EC2D0DE097040002EFF
:1018D00000D150E18026F6013443002601330C800C
:1018E0008E70C870AB42C1D1C14BC24AC24F1A60A0
:1018F000C02200211201380003F0ACF8BF4BC04EEB
:101900009B461F60002359469C46BE4D00242B6019
:101910003360BD4B0791059300220020E823614608
:10192000A1461F34A04602961E3C80B200020390DE
:10193000481E814149425940CBB2090600D4CBE14F
:1019400040462600104086405109890078583043AF
:1019500046467850511C4809314026008E40800090
:101960003958314346463950911C480931402600C8
:101970008E408000395831433950E22B0CD0464616
:10198000111D4809314026008E40800039583143EE
:1019900039501D2B00D1ACE1990709D54646911D60
:1019A0004809314026008E40800039583143395073
:1019B000029923400B6009D04046D31D59090340CA
:1019C0002000984089007B5803437B5000239A46AF
:1019D0009B460832029E2A605B460398D84020400E
:1019E0008244C0B2FFF7FEFB01239B445B46182BE9
:1019F000F2D12B683268991C02960491012A00D01A
:101A000038E14646991C4809314026008E40800046
:101A10003958314346463950D91C480931402600CF
:101A20008E4080003958314339501100029861408E
:101A30000160012A00D03AE15046063320402B6075
:101A4000FFF7D0FB029E2B683268002A00D1A5E088
:101A50004046DA1C510902402000904089007A5823
:101A60003460024340467A501A1D5109024020005A
:101A7000904089007A58024340467A509A1D510995
:101A800002402000904089007A58024340467A5034
:101A9000DA1D510902402000904089007A58024323
:101AA0007A5008332B6000239A469B465B46039886
:101AB000D84020408244C0B2FFF794FB01239B44EE
:101AC0005B46182BF2D12B683268991C0296039161
:101AD000012A00D09CE04646991C48093140260066
:101AE0008E4080003958314346463950D81C410950
:101AF00030402600864089007858304378501100E5
:101B0000029861400160012A00D09EE050460633F1
:101B100020402B60FFF766FB012399444B46C02B06
:101B200000D1F1E03021484602F0B2F8059B4900AF
:101B3000C85E029B2A681968E223F6E60526102291
:101B40008F080740164332007B40002F00D011E67B
:101B5000D3E5664632432280A070E370013104343D
:101B6000F8E5464632432280A770E3700131043421
:101B7000F0E5042447E6254E8A7034430C80C87093
:101B80000133043173E602247AE68027BF013C4327
:101B90000C808E70C8700133043168E64146200025
:101BA000194088405A099200B95801434046B9503B
:101BB000591C4A090140200088409200B95801434D
:101BC0004046B950991C4A090140200088409200C3
:101BD000B95801434046B950591D4A0901402000F7
:101BE00088409200B9580143B9505AE700A0FFFF5E
:101BF0009058002033B3CC4CA0730020945900209F
:101C0000385A00209073002004A8001000C0FFFF85
:101C100046461E40310026008E4058098000395843
:101C20000E43591C3E500E00480941460E403100FB
:101C300026008E40800039580E43991C3E50296082
:101C4000002A00D047E7029A14604046191D4A094D
:101C50000140200088409200B95801434046B950E5
:101C6000591D4A090140200088409200B95801439B
:101C7000B9504BE746461E40310026008E405809B9
:101C8000800039580E43591C3E500E004809414609
:101C90000E40310026008E40800039580E43991CBA
:101CA0003E502960002A00D0ABE6029A14604046FC
:101CB0001A1D510902402000904089007A580243C1
:101CC00040467A505A1D5109024020009040890038
:101CD0007A5802437A50AFE64646D11C4809314053
:101CE00026008E408000395831433950172B00D0E0
:101CF00045E64646511D4809314026008E40800089
:101D000039583143395047E6079BC0229B46DA4F8A
:101D1000002112013800029E02F09CFE5B461F204B
:101D20001F60002380461D3883462B603360581E99
:101D30008341E8215B425940002201240296CBB244
:101D4000090600D4EDE040462600104086405109C7
:101D500089007858304346467850511C4809314034
:101D600026008E4080003958314346463950911C38
:101D70004809314026008E4080003958314339509F
:101D8000E22B0CD04646111D4809314026008E40FA
:101D900080003958314339501D2B00D1CEE05946CF
:101DA000194209D04646911D4809314026008E400F
:101DB0008000395831433950029923400B6009D0D3
:101DC0004046D11D4B090140200088409B00F95836
:101DD0000143F95018239A460832029E2A600020D7
:101DE000FFF700FA01235B429A445346002BF6D1D9
:101DF0002B6832680296981C012A00D002E1464600
:101E000041093040260086408900785830434646D4
:101E10007850D91C4809314026008E40800039583E
:101E2000314339501100029861400160012A00D00D
:101E30000DE1063300202B60FFF7D4F9029E2B68DA
:101E40003268002A00D184E04046D91C4A0901408A
:101E5000200088409200B958346001434046B95090
:101E6000191D4A090140200088409200B9580143D9
:101E70004046B950991D4A0901402000884092000F
:101E8000B9580143B950D91D40464A0901402000C4
:101E900088409200B95808330143B9502B60182389
:101EA0009A460020FFF79EF901235B429A4453466D
:101EB000002BF6D12B6832680296981C012A67D154
:101EC0004646410930402600864089007858304314
:101ED00046467850D91C4809314026008E40800083
:101EE0003958314339501100029861400160012A8C
:101EF00073D1063300202B60FFF774F901235B4296
:101F000099444B46002B00D1B8E0029BE2211B68AC
:101F10002A68581E83415B425940CBB2090600D55E
:101F200011E74646D11C4809314026008E4080000A
:101F3000395831433950172B00D023E74646511DFD
:101F40004809314026008E408000395831433950CD
:101F500025E741462000194088405A099200B958A7
:101F600001434046B950591C4A09014020008840AD
:101F70009200B95801434046B950991C4A090140A2
:101F8000200088409200B9580143B950591D7BE7A1
:101F9000590989007E18039646461E4031002600E6
:101FA0008E40B246039E2860316856460E4331008B
:101FB000039E3160591C4E09B600B4464646314076
:101FC0002600BC448E406146096831436646316054
:101FD000002A00D074E7029A14604046191D4A098D
:101FE0000140200088409200B95801434046B95052
:101FF000591D4A090140200088409200B958014308
:10200000B95076E7590989007E18039646461E4066
:10201000310026008E40B246039E28603168564645
:102020000E433100039E3160591C4E09B600B44680
:10203000464631402600BC448E4061460968314323
:1020400066463160002A00D0D9E6029A1460404604
:10205000191D4A090140200088409200B9580143E7
:102060004046B950591D4A0901402000884092005D
:10207000B9580143B950DCE67C670020474E484818
:102080000121306007F068FA464D47492860306802
:1020900007F07EFA454B3168069CC918090D0631D8
:1020A0000700C9B2200000F0D9FB012322002968F3
:1020B0003068009307F030FB4B460F9380235B02A0
:1020C0000C93F8235B020D93C02310221B030CA971
:1020D00008A80E9302F0C4FC3A03FB01134308A9BD
:1020E00010220CA8099302F0BBFC1F22802322407F
:1020F0005B0313430F932E4B05200E9301F052FB0D
:1021000002F028FC2B4902F00AFCEC21890502F0C0
:1021100003FC804602F046FC84B20023002C0ED063
:10212000200002F017FC011C404602F0F2FB872160
:10213000C90502F008FC02F035FCC3B21B022404FE
:102140003A0029681C4330680CAB0C9407F03CFB48
:102150000123286832688340116801200B43136013
:1021600007F0EAF9144B114918603368C0025B1894
:102170001B0D2968DB005B181049DB0308401B219D
:102180000F4A03430B430F48136007F0A7F911B040
:10219000F0BCBB46B246A946A046F0BD88730020FD
:1021A000000020508C73002064A800100000E0AFF5
:1021B00000000E400080BB4A80730020FF7F00FFBC
:1021C0008473002049130010014B18707047C046FB
:1021D000A80F0020014B1878C0B27047A80F00204C
:1021E000022803D8024B8000C05870470148FCE722
:1021F000F4A700102C9A0010F0B50F1E2AD0174B30
:1022000001009C460020164C164E0AE00D889B00EB
:102210009D534D88F31801305D8022600431874260
:1022200008D0654623682D685A1CD204D20C95420A
:10223000ECD1070063461B682268934202D98021D3
:1022400089015218D31A084A1168994200D21360C2
:102250003800F0BD014B024C9C46EBE7A4FF002088
:10226000A8FF0020A47F0020A07F0020054B186855
:10227000054B1B68984202D9802292019B18181ABC
:102280007047C046A4FF0020A8FF00200023044A96
:102290001360044A1360044A1360044A13607047D1
:1022A000A4FF0020A8FF0020ACFF0020A07F00209A
:1022B00010B5002813D00A4B0A4A1B6812689342D3
:1022C00002D98021890152180749D31A0A6803608C
:1022D0004260064A14680B6000238460136010BDDE
:1022E000A4FF0020A8FF0020A07F0020ACFF00205A
:1022F00070B5031C0C00642800D96423DBB21801FC
:10230000C01A6421800201F09BFC074B2202C01816
:10231000064B22431A80020415000549120C2A4379
:102320000A609C70888070BD00C4FFFF8C6500202F
:10233000B0FF0020F0B54B7985B0042B05D000220A
:10234000022B11D0100005B0F0BDCB78012B1FD0AF
:102350000022022BF6D14B78012BF3D16A46137081
:1023600006F0D4F90200EDE7CB78012B22D0022B46
:10237000E8D14B78012B32D0022BE3D16C461D4BB8
:102380006A4660CB60C4082306F0C0F90200D9E7B2
:102390004B78012B1BD00022022BD3D16C46164B5D
:1023A0006A46E0CBE0C41B8823800E2306F0AEF91A
:1023B0000200C7E74B78012BC4D16A468C780F4BDB
:1023C0001B5D1370012306F0A1F90200BAE70C4B64
:1023D0006A460093042306F099F90200B2E78A786E
:1023E000084B5200D35A6A461380022306F08EF936
:1023F0000200A7E780A8001070A800108C650020DC
:1024000080BB0000B0FF00204B780020012B09D1D9
:102410004B79042B07D0022B04D1CB78012B08D0A9
:10242000022B0CD07047C878013843425841C0B2E3
:10243000F8E7094B8978127801205A54F2E71378AB
:1024400089789C465378624604481B02490013432E
:1024500043520120E6E7C0468C650020B0FF002013
:1024600070B50B7982B0032B02D0012002B070BD91
:102470008B7800255A1E93418026284C76012370C4
:10248000274B1D70274B1E60FFF700FF0020FFF752
:102490009BFE254B1D6001F085F8244B244A9C4689
:1024A0000023801859416346002203C300232149B9
:1024B0000D000CC12378002B0AD11F4CFFF78AFEB8
:1024C000FFF78EFE210002001C4804F08FF8CCE7D5
:1024D00001F068F800900191FFF7C8FE184B311A1F
:1024E0000901994200DA190080231B02994200DD9C
:1024F0001900C0239B03C918002006F0D3F80098E8
:102500000199FA2200231201801859410B000200A0
:102510000CC52378002BD0D00A4CCFE7C2FF002097
:10252000C0FF002058670020845A0020604C002023
:1025300080841E00684C0020F4A00010F8A0001059
:102540000080FFFFF0A0001010B5002480220E4B89
:1025500052011C700D4B1C700D4B1A60FFF796FE5C
:102560000020FFF731FE9C220A4B1C600A4B9C5056
:10257000043A9C50FFF72EFEFFF732FE0100074899
:1025800004F034F8012010BDC2FF0020C0FF00207D
:1025900058670020845A0020000010501CA1001031
:1025A00000231370014B53607047C04680BB00008E
:1025B000F0B54E46DE4657464546E0B5754B87B00A
:1025C00099461B78002B06D107B0F0BCBB46B2463B
:1025D000A946A046F0BD00F0E5FF6F4B04009A4607
:1025E0005B680D008B421BD800D1C3E0FFF73EFEB5
:1025F00080216A4B4901091A0901994270DB802345
:102600001B0299426ADCC0239B03C918002006F014
:1026100049F8FA2200231201A4185D41534630C341
:10262000C0265F4D760003270FE0B84382B2002A30
:10263000CAD02900002005F06DFB8408A4B2210057
:102640002800FFF7D9FD844242D8002005F052FB54
:10265000032807D9002005F04DFBB042E5D9C02280
:102660005200E6E74F4B1F001B78002B70D000F0A4
:1026700099FF4D4B040098465B680D008B4235D99D
:102680004B461B78002B9FD000F08CFF53465B68B5
:1026900004000D008B4297D876D0FFF7E7FD80212C
:1026A0003E4B4901091A090199426BDB80231B0249
:1026B000994265DCC0239B03C918002005F0F2FF96
:1026C000FA2200231201A4185D41534630C37BE770
:1026D000364A13681B1A1B191360A4E7190092E706
:1026E000190080231B0299428DDDF7E78B4203D14D
:1026F00043461B688342C3D803A8FFF7D9FD2B4E7E
:10270000059BB3463668049A03992948009603F05E
:102710006DFF3B78002B11D0059B002B0ED00023C2
:1027200080223B70234B520100201A60FFF74CFDC2
:10273000FFF79CFD0100204803F058FF00235A4694
:10274000136000231D4AA4185D41434630C397E738
:10275000FFF78CFD174B1B68984288D3012302209A
:102760003B70FFF731FDFFF781FD0100144803F0D6
:102770003DFF7CE753461B68834200D836E74FE7AE
:10278000190097E7190091E753461B68834284D9E3
:102790001AE7C046C2FF0020684C00200080FFFFFF
:1027A000C4650020C0FF0020604C0020845A002037
:1027B00064A100105867002090A1001080841E00C2
:1027C00040A10010004870478CA9001000487047D5
:1027D000A8A8001070B504001C480378002B2DD069
:1027E000002C0BD11A4B9C4662461A4B9D1F5380FE
:1027F000FF3D634664461D80200070BD062C23D833
:10280000154BA400E458002CF6D0200007F030F857
:102810000200202816D8C023411C49009B000B430E
:102820001D000B4B9C46002AE3D09A1C0023E15C60
:102830000133118002329842F9D8DAE7112104F00D
:1028400061F8CDE72020E6E70024D5E764670020A3
:102850003C5A00200904000088A8001010B540244C
:10286000074A83009A181268C0005440C0222240D0
:10287000044C1B191A60044BC018416010BDC046BF
:1028800004C0014004D00140004001400123D02297
:102890008340120693629361084A83009A18116874
:1028A0004022514080320A400549C0005B181A603E
:1028B000044BC018052343607047C04604C0014064
:1028C00004D00140004001408023DB051868000F60
:1028D0007047C0460FB400B5084883B003F004FE4B
:1028E000049B002B07D005A91800019103F066FC9A
:1028F000034803F0F9FD012003F078FC10A200105A
:1029000020A20010EFF3108072B6034A1368002B68
:10291000FCD0BFF35F8F70472C0100D0BFF35F8FF7
:102920000022024B1A6080F3108870472C0100D0FF
:1029300070B58C461600EFF3108472B60F490B6821
:10294000002BFCD0BFF35F8F6346DB08C51807225E
:10295000C05C63461A40012393401A0002400342C0
:1029600007D118432870BFF35F8F0A6084F3108883
:1029700070BD61463000FFF7ADFFC0462C0100D0AE
:10298000F8B5CE4647468C4680B51C00EFF310885C
:1029900072B61C490B68002BFCD0BFF35F8FA242BC
:1029A00021D80723994602E00132944218D34946C0
:1029B000012611408E40D308C718C35C1E42F3D1D4
:1029C000100033433B70BFF35F8F00220D4B1A6042
:1029D00088F3108800280EDBC0BCB946B046F8BDAD
:1029E00001204042EFE7BFF35F8F00230B6088F3C5
:1029F0001088012040426346002BEDD00898FFF775
:102A000069FFC0462C0100D0044A1078431CDBB299
:102A1000172B00D9102313707047C046A90F002050
:102A200000B5054B83B00100009318221F23034813
:102A3000FFF7A6FF03B000BD24A20010C459002078
:102A40000021044B044ABFF35F8F02C39342FAD1C3
:102A50007047C046000100D0800100D0084B094AF1
:102A60001360094A1360094A1360094A1360094A4E
:102A70001360094A1360094A1360094A13607047DA
:102A80008080808000E400E004E400E008E400E0EE
:102A90000CE400E010E400E014E400E018E400E0DE
:102AA0001CE400E01F2318401E3B8340002905D092
:102AB000C021044A490053501360704780220149E5
:102AC0008B50FAE700E100E001228240034B1B68D3
:102AD00013405A1E9341D8B27047C04600E100E04F
:102AE00070B50D00EFF3108672B60F4A1368002B15
:102AF000FCD0BFF35F8F0D4B10309B6884001B59D7
:102B00000B4A934203D09D4201D000F059FF074B7E
:102B10009B681D51BFF35F8FBFF35F8F0022024B95
:102B20001A6086F3108870BD240100D000ED00E02B
:102B3000C1010010F0B5DE4657464E464546E0B5A9
:102B4000824683B08B461700EFF3108872B6604A56
:102B50001368002BFCD0BFF35F8F00255D4B5D57E2
:102B60009946002D00DA9AE04A466B005A4C5E19ED
:102B7000B6000193A31900939B791370574B9A6881
:102B8000534610339B00D15899460B1B2F2B32D93B
:102B9000534B994200D098E0019B0236ED18514BFF
:102BA000AD006353504BA619043B9B1B4F4A1B05BA
:102BB0005B0D651913436B804D4B0121AB80FF23E7
:102BC000AB715B46AB60009BEF710B4319004A464B
:102BD000424B9B689950BFF35F8FBFF35F8F00221A
:102BE0003B4B1A6088F3108803B0F0BCBB46B2467A
:102BF000A946A046F0BD01200A008243D379B4461D
:102C0000BB422DD83B4BB51C190013001B1B5B416D
:102C10005943090D8C46334B6519A353324B009928
:102C2000043B5B1B1B05314D5B0D2B4304364B8076
:102C3000A619131F9B1B1B055B0D1D4363468B7160
:102C40005B468B602C4B8D80CF7113600143BEE7D8
:102C50005800C01880002018C679BE4225D902004D
:102C60000623D356002BF3DA9A46131D9C462348BD
:102C70006346009E9571043EF61A36051B4B760D91
:102C80001E43019B96805A1953469200A418A371C3
:102C90005B46194AA0802260E771A36097E700F0C5
:102CA0008FFE00254B465D575EE766469A46131D2C
:102CB0009C469088043640050015A6196044801B88
:102CC00000050A4E400D3043D2E700F079FE63E77D
:102CD000240100D0BEFF0020AC0F002000ED00E07A
:102CE000C101001000A1FFFFDC0F002000E0FFFF8A
:102CF00001BDFFFFAAAA00000148804701BD0000F6
:102D00000123034370B59C46EFF30581EFF3108573
:102D100072B6214A1368002BFCD0BFF35F8F1F4BA4
:102D200004001F4AE41A64416243120D1D4C8900DD
:102D3000A66852B2765866451CD006215956914273
:102D40001CD012215956914222D01E21595691422F
:102D500020D02A2159560324914210D0124B1978C1
:102D60001A708171BFF35F8F00220B4B1A6085F3DD
:102D7000108870BDA3680D4C5C50EFE70024610023
:102D8000091989005B18FF21997109499980E5E7C4
:102D90000124F4E70224F2E7240100D0AC0F002064
:102DA000AAAA000000ED00E0BEFF0020C101001053
:102DB00001BDFFFF024BC918890001607047C04682
:102DC0004000003470B5114C114DAC420FD2FF26BB
:102DD0002368002B0CD0FFF717FE01002000FFF73F
:102DE000E9FFA680BFF35F8F0834AC42F0D370BD1B
:102DF000FFF70AFE01002000FFF7DCFF2671BFF39A
:102E00005F8F0834AC42E3D3F1E7C046681000207E
:102E10007810002010B50400FFF7F6FD0100200037
:102E2000FFF7C8FFFF232371BFF35F8F10BDC046BC
:102E300010B504000120FFF7F3FD034BC01880001C
:102E40002060BFF35F8F10BD400000340A4B19684B
:102E5000EFF3108072B60A68002AFCD0BFF35F8FD0
:102E60001B68BFF35F8F00221A6080F3108840BF99
:102E7000002000217047C0467C730020F0B5DE467C
:102E800057464E464546E0B585B0EFF3058303222D
:102E90001A40B34B91005F58012393409B46029226
:102EA0005A468846AF4B1A60AF4B03935B46AF4818
:102EB00043630823FE5E002E37DABB881BB2002B6B
:102EC00000DBA4E0BB79002B00D0E5E00823F95E2D
:102ED000002920DB4B007A695B18DB00D3189D6862
:102EE000DC686B1C00D104E1A04801004144826A07
:102EF0000B69AE1A9B1A9E4215D30123026A0298EF
:102F000083401A420FD0994800F044FB8C4202DC07
:102F1000CCD18542CAD940BF05B0F0BCBB46B24651
:102F2000A946A046F0BD0D61EDE77A6973009146B0
:102F30009B19DB0099444B469C68DD6800F02AFB36
:102F40008D42BADC00D1F6E0002D00DADBE04A4623
:102F50004B4652691B699246039A934200D1CCE0DA
:102F60004A460821785E528800045146104398472B
:102F7000009001910099019A0B00134300D1C2E027
:102F800013000A00002B00DBD9E020002900801A82
:102F900099414B469860D96000229B5E002B00DA75
:102FA0008BE75D007C69EA18D200A218009494684F
:102FB000D268A2468A4200DD7FE702D1844200D96E
:102FC0007BE70824A4463B81BC44009C00972F006B
:102FD0006546B4463E0006E05E00F218D200A21834
:102FE0009768D268BA468A4207DC00D1B4E0F31889
:102FF000DB00E518E35E002BEEDA66464A46009FEA
:1030000013802E80BB881BB2002B00DA5AE73A6986
:10301000EFF3108172B61368002BFCD0BFF35F8F03
:103020000123BE885B42BB8036B23B69BFF35F8F32
:1030300000221A6081F31088002E00DA42E73B007C
:1030400008333A0099467D6973009B190824115F83
:10305000DB004846EB18002913DB9C680093A4466C
:10306000DC6806E0A34240D00023F95E3800002966
:1030700006DB4F007F18FF00EF19FB68A342F1DD6C
:10308000009B068000201E5E1980002EDCDA1700EF
:10309000BB79002B00D119E70023BB710823F95E2F
:1030A0004B1C00D137E73D000835AC467C6903E096
:1030B00084464B1C00D109E74B005B18DB00E0188D
:1030C0000A00E15E43881BB2002BF1DA01256D4254
:1030D000EE178560C66008257B5F9342E9D06346A2
:1030E00019803B8903803A81E3E7BB686345BBD91C
:1030F000C6E7631C00D0F7E605E7534650461B6958
:103100009847002823D14B461B883A693B81EFF34F
:10311000108372B611680029FCD0BFF35F8F494657
:103120007A880A803A697E80BFF35F8F0021116040
:1031300083F31088C1E6844200D805E7BDE60B485A
:1031400000F028FA009B019CC018614121E753461A
:103150000CCB009201930DE7824500D847E74CE77E
:10316000446700203C7005407D2E00100040054063
:1031700070B52D4C2569002D04D00A212B48FFF78E
:1031800019FE70BD2A4E0321294800F0F9F9E660C6
:10319000FFF73AFC274B0322C018D02322701B06EE
:1031A0001B6801216370244B8000A3600F23206102
:1031B0000220638063694942A18019800231198627
:1031C00047311D83585218315A5275325C39995221
:1031D00018320131995218320131995218320131A5
:1031E0009952083518329D520231183299521832CC
:1031F00001319952183201319952183201319952E4
:103200001832013199521832013199520B4B0C4945
:10321000DC6001303562FFF763FC01210320FFF71A
:1032200041FC084B1D60A8E7F40F00207C730020D0
:103230000040054040000034FFFF100044670020BC
:103240007D2E00103860054000487047F40F0020C4
:1032500070B582B00092019301000269EFF310840F
:1032600072B61368002BFCD0BFF35F8F0223C85ED9
:103270000D6900283FDB4A69430016001B18DB007C
:10328000D218F35A4B80BFF35F8F00232B6084F377
:103290001088069B1361079B5361009B019C936000
:1032A000D460538801335B045B0C1D1C002B20D0C1
:1032B000ACB20304558023430D69EFF3108C72B652
:1032C0002C68002CFCD0BFF35F8F8C881480888022
:1032D0000A69BFF35F8F002010608CF310880A78B2
:1032E00001309040CA68084952181060180002B0B6
:1032F00070BD0125DCE7BFF35F8F00232B6084F3F3
:103300001088013BF2E7C0463C20000010B543891D
:103310000A1493421ADD53009B184269DB00D3184C
:103320000469EFF3108C72B62268002AFCD0BFF358
:103330005F8F5A88090494B2090C8A4208D0036945
:10334000BFF35F8F00221A608CF31088002010BD3D
:10335000094A22435A80012302698371BFF35F8FB8
:10336000002111608CF31088027804499340C268F0
:10337000012052181360EAE70080FFFF3C200000A4
:1033800040787047F0B5C64600B582B0040000F042
:1033900009F9FA2206000F00200000230021920004
:1033A00001F09AFA8019794104000D1E02DA012415
:1033B0002E4D644206267642F71736196F41AF420A
:1033C00014D811D000F0EEF832003B00121A8B41F5
:1033D000002B15DC002B46D02000290000F0ECF873
:1033E00002B080BCB846F0BDA642EBD9002600274B
:1033F00000F0D8F832003B00121A8B41002BE9DDB7
:1034000000F0D0F832003B00121A8B41002B0ADB8F
:1034100000230193164B3200009316483B00FFF740
:1034200017FF0130D8D000233900B0469C46124A1D
:103430001248536A994204D8966A4645CCD29942BA
:10344000CAD10668EFF3108772B63368002BFCD040
:10345000BFF35F8F0368BFF35F8F66461E6087F31D
:10346000108820BFE5E7002AB6D0C9E7FFFFFF7F3D
:103470004D2E0010F40F0020004005407C7300200A
:10348000F0B5CE46474680B504000D0085B0EFF399
:1034900005868946002E10D0364900204B6AAB4283
:1034A00006D38A6A5B1B591E8B41A24240411843D6
:1034B00005B0C0BCB946B046F0BD2F4FFB683A78A6
:1034C00098461800039200F065F8039A131D4246CF
:1034D0009B009B5822001B1A9C462B00121A8B4102
:1034E0009E4210DC0DD020BF224A0020536A4B457B
:1034F000DED3926A5B1B591E8B41A24240411843A6
:10350000D6E79445EFD900F04DF822002B00121AAF
:103510008B41002B1BDB00230193184B22000093EF
:1035200038002B00FFF794FE002810DD114B5A6A7B
:103530004A451CD39B6AA34217D301003800FFF70A
:10354000E5FE0C4A0020536A4B45B1D3D1E7094A46
:103550000020536A4B45ABD30020926A5B1BA2420A
:1035600040415A1E93411843A2E74A45E5D120BF86
:10357000E3E7C04600400540F40F00204D2E001048
:1035800010B5024A0248FFF7D3F910BD40A200105F
:10359000C85900200300416A0A00986A596A8A42A1
:1035A000FAD17047034B596A0A00986A596A9142E6
:1035B000FAD1704700400540064A536A9942FCD848
:1035C00007D1044B02E05A6A914202D19A6A9042B2
:1035D000F9D8704700400540F8B5DE464E464546EE
:1035E0005746E0B505008B4618000A99914600F051
:1035F0004FFB0A9B6C001E026419304BA400E418B8
:10360000636880469E4200D966602F1FFBB29A46CF
:10361000012B2FD9C0238022294FAD009B0179595E
:103620001201E3181A6000291BD14B4622685B0186
:103630005340E022134080225201A21813605346E7
:10364000012B2FD9802380229B01E31812011A60DD
:10365000434666607B51F0BCBB46B246A946A046D5
:10366000F8BD786900F014FB013043001B18033BE0
:10367000FDD2DAE75B46012BCCD1C02303229B01AC
:10368000E3181A60023AA3681A42FCD04A4623683B
:1036900052015A40E023134080225201A218084FE1
:1036A0001360AD0058460323216841400B4013606E
:1036B00001228240A3681A42FCD0C3E70080004088
:1036C000D0590020F0B5D6464F46464644009846AD
:1036D0002418324BA400E41863688A469146C0B5AA
:1036E000FF2B02D880235B006360061FF6B2012E19
:1036F0002FD9C02380222A4F85009B0179591201BE
:10370000E3181A6000291BD14B4622685B01534025
:10371000E022134080225201A2181360012E30D9FA
:10372000802380229B01E31812011A6080235B0032
:10373000636043467B51E0BCBA46B146A846F0BD43
:10374000786900F0A5FA013043001B18033BFDD255
:10375000DAE75346012BCCD1C02303229B01E318A7
:103760001A60023AA3681A42FCD04A462368520102
:103770005A40E023134080225201A218084F1360E0
:10378000850050460323216841400B40136001220D
:103790008240A3681A42FCD0C2E7C04600800040C5
:1037A000D0590020014B8000C0587047D0590020EC
:1037B000F0B5C646040000B52348160098460D0033
:1037C00000F066FA0100300000F062FA4346069A03
:1037D0001B04120313439C4623680600002B22DBC4
:1037E0001A4B1B48E218531E9A4180235242120B77
:1037F0009B011203D218174B1A60174B1A60130063
:1038000001688B43FBD12122144B2560E318A6608D
:103810001A602268002AFCDA6246E26008221A6016
:1038200080BCB846F0BD3F2322681340AB42D7D1DD
:10383000A3681B051B0D8342D2D1EE22E368D2029E
:1038400013406345CCD1EBE7001BB7000040FDBF40
:1038500008C0004000E0004000F0004004300000DC
:1038600010B580241C4BE4051C6000281AD00123ED
:103870001A4C18431A4BDC611A4C44401C625962C2
:1038800098628021144BC9051960174817490860D0
:10389000E021C9041960002A07D18022144B1206C6
:1038A0001A6010BD0E4BD861EBE753019B1A9B00C9
:1038B0009A18802312015B049A4209D213000D4921
:1038C0000B60074B5A608022094BD2051A60E8E76B
:1038D000094B1A00F3E7C04600B00540D3C007B05B
:1038E000008005402D3FF84FFCFF010008200140FB
:1038F00000A0054088650020FFFFFF008023024AEA
:103900009B000B43D362704700800540002310B535
:103910000100988A1B8B984710BDC046162310B52E
:10392000010018885B88984710BDC046F8B5474627
:10393000CE4680B50F1E18D01423994604330400D8
:103940000025012698464B461888434621681B8867
:10395000984701C4431E984101350640AF42F2D159
:103960003000C0BCB946B046F8BD0126F8E7C046F5
:10397000002370B504000D00988A05491B8B9847F9
:1039800003000020002C01DB0130A04029009847F3
:1039900055420000AA23064A1B0113608D235B00D9
:1039A000D3600449044B19605368002BFCDA70475C
:1039B0000040024000B0FA00006002407047C0467C
:1039C00010B50148FEF786FF64A2001070B5074DE0
:1039D000074EB54209D20024013E761BB6080136D7
:1039E00008CD01349847B442FAD170BD88990010CF
:1039F000C499001070B5074D074EB54209D2002496
:103A0000013E761BB608013608CD01349847B44212
:103A1000FAD170BDBC990010C4990010054B064A3C
:103A200006491A60064A074B1A6010000B68984353
:103A3000FBD1704700E00040BFCDFBFE08C0004056
:103A4000FE7F3C0000F00040044BDB6C002B03D1F8
:103A50008022034BD2021A607047C046000011500A
:103A60004C201150044A054B1A60054A1368DB01CB
:103A70008033FBD17047C046FFFFFF0100F00040DC
:103A800008C000404022034B9A675A671A67DA66FB
:103A90007047C04600F0014010B5FEF7D1FF10BDE1
:103AA00070B52849284D294E6D1AAC102200302CD3
:103AB00000D930223000920000F0D2FFBC2D3DD85A
:103AC00023002A3B224A052B1DD9302075196D078A
:103AD000A446001BEB0F002D03DA611C8C46A100ED
:103AE0007250C01AE3189B004108F318C900C918A6
:103AF0001A605A6008339942FAD1012303421DD05B
:103B0000984360440400A300F250631C2F2C15D08E
:103B10009B00F250A31C2E2C10D09B00F250E31CF3
:103B20002D2C0BD09B00F250231D2C2C06D09B007B
:103B3000F250631D2B2C01D09B00F250054B9E6070
:103B400070BDC04600010010C00100100000002040
:103B5000C101001000ED00E0002310B5294C82B037
:103B6000A367FFF717FF0122274B1A60636C012B35
:103B7000FCD10322254B1A60224A936B012BFCD106
:103B8000013300930121224A22480433FFF710FE3B
:103B9000052301210093204A2048FFF709FE002257
:103BA000022104201E4BFFF78DFD0022012105207C
:103BB0001C4BFFF787FD0022002107201A4BFFF75F
:103BC00081FD002200210820174BFFF77BFD802399
:103BD000DB000093002200210920134BFFF7FCFCBF
:103BE0000022104B00210620FFF76CFD0420FFF798
:103BF000D9FD0E4900F04CF801000020FFF77EFED1
:103C000002B010BD008000403CB0004030B0004029
:103C1000002F685900800240008C864700C0024097
:103C2000001BB70040597307006CDC0240420F00D4
:103C300001480421014B1847101000202D390010B5
:103C4000124A936F9B0815D29066D166002905D061
:103C5000FFE7FFE7FFE7516F106F704704B5802162
:103C60000906C2175140002800D0C84305F054FE91
:103C7000002104BDF0B5146E556E576F166FFFF737
:103C8000E3FF1466556657671667F0BD000000D065
:103C9000114A936F9B0813D210665166002905D014
:103CA000FFE7FFE7FFE7516F106F704704B500288B
:103CB00001D00020C04305F02FFE002104BDC04606
:103CC000F0B5146E556E576F166FFFF7E5FF14666B
:103CD000556657671667F0BD000000D094464A4A03
:103CE000926F9208624601D228E0C046F0B5464E77
:103CF000346E756E776F366F00F020F89446424A46
:103D000014665566576716676246F0BD94463E4A8C
:103D1000926F9208624601D254E0C046F0B53A4E26
:103D2000346E756E776F366F00F04CF89446364AF5
:103D300014665566576716676246F0BD002B24DB94
:103D400011D000293EDA00B5C943404200D101310B
:103D500000F038F8C943404200D10131DB43524200
:103D600000D1013300BD002AEBD1002801D1002988
:103D700005D00020C90FC90701D1C043410800B5D3
:103D800005F0BAFD0022002300BD00B500290ADBC2
:103D9000DB43524200D1013300F014F8C9434042E2
:103DA00000D1013100BDC943404200D10131DB43A4
:103DB000524200D1013300F005F8DB43524200D1FA
:103DC000013300BD002923D1002B18D1002A0CD0CB
:103DD000BC460D4F38667A6600210023FFE7FFE7F7
:103DE000FFE77A6F386F67467047002801D00748B1
:103DF000010000B505F080FD0022002300BD020097
:103E00000B00002000217047000000D0FFFFFFFFE3
:103E1000002B00D0BFE0130C28D1002AE7D080B4DB
:103E2000114F39667A66FFE7FFE730B4040C7B6F09
:103E3000396F1B0423433B667A66FFE7FFE7FFE722
:103E4000C04684B27B6F3D6F1B0423433B667A669A
:103E5000FFE7FFE7C04600232C042D0C7A6F386F74
:103E600000196941B0BC7047000000D0F0B594461D
:103E70000025140E01D112020835140F01D11201D0
:103E80000435940F01D192000235D40F01D15200B4
:103E90000135D40B0134254F7C66254C3C660E0C55
:103EA00093B2FFE7FFE7FFE73C6F6643360C77030B
:103EB000BE467343DF0B5B04C01AB941130C734356
:103EC000DB18C91ACE086643360CB64493B2734366
:103ED0001F0F1B01C01AB941130C73431F0B1B05A5
:103EE000C01AB941860D8F023E436643360C092D38
:103EF00024DB520A7243801A7703460A6643360C63
:103F000016235B1BDE40DF40BF1964466643821BFD
:103F10007046043506330100D940A840C01900D3CB
:103F20000131A24206D20023F0BD0000000000D003
:103F3000FFFFFFFF121B0130F3D3F1E709277F1BBF
:103F4000FE406446A2B27243801A00D20139220CAC
:103F50007243130C1204821A99410B007046043507
:103F600013370100F940A840801900D30131002B1C
:103F700002D1A2420AD2F0BD013000D30131121B9E
:103F8000FAD2013BF8D1A24200D2F0BD013000D3F9
:103F90000131121BF7E7F0B51C0C00D080E00CB427
:103FA00000251C0A04D11B02160E334312020835E9
:103FB0001C0B04D11B01160F3343120104359C0B5B
:103FC00004D19B00960F334392000235DC0B02D1E3
:103FD00092185B4101351C00971864410134464F2B
:103FE0007C66464C3C660E0CFFE7FFE7FFE7C046E9
:103FF0003C6F6643360C7703BE4697B27743C01BCF
:1040000000D20139C01B00D201399FB27743C91BCE
:10401000C91B170C77437E04FF0B801BB941CE08E8
:104020006643360C0C2D33DBB644120B1F053A43A6
:104030001B0B97B27743C01B00D201399FB2774365
:10404000C91B170C77433E043F0C801BB941860DFA
:104050008F023E43664329277F1BFE400C3D774677
:10406000AF40BF1930BCA2B2ABB272437343801AE7
:104070009941220C7243130C1204801A99410200D8
:104080000B000137001BA941F9D2781E0021F0BDB9
:104090000C277F1BFE4077467F0BAF40FF19E0E700
:1040A00000245D1C07D0144F7D663966FFE7FFE7EB
:1040B000FFE7FFE73C6F95B29EB265436643401B46
:1040C000B141150C1E0C6543664336042F0C3E436C
:1040D0002D04401BB141994204D202000B00200084
:1040E0000021F0BD01D19042F7D3801A99410134EB
:1040F0009942F2D3F6E70000000000D0FFFFFFFF77
:1041000048404140484018B41B4B5B68FC46019353
:1041100008BD04DFAB43001018B4174B1B68FC4606
:10412000019308BD00DFB54300109446134A926F17
:10413000920809D2624618B40F4BDB68FC46019323
:1041400008BD0CDF6D4600100C4AF0B5146E556EBC
:10415000576F166F6246FFF7EEFF084A1466556602
:1041600057671667F0BD18B4034B9B68FC46019374
:1041700008BD08DF11450010804C0020000000D071
:10418000FFB550404240504059404B40594000E03C
:10419000FFB5154F4C00640D03D0BC4204D10C0395
:1041A00014D80020090D09055C00640D03D0BC4241
:1041B00004D11C030AD800221B0D1B0501264B400D
:1041C00009D44B4003D58B4200D18242FFBD9942B6
:1041D000FCD19042FFBD0B43DB1803431343F5D0E2
:1041E000C9434918FFBD0000FF07000000B5FFF7F5
:1041F000CFFF804100BDC04600B5FFF7C9FF01D920
:10420000002000BD012000BD00B5FFF7B9FF01D9B6
:10421000002000BD012000BD00B5FFF7B1FF8041C7
:1042200000BD012040054A00121804D85A00121897
:1042300001D80020704701207047000000210028AD
:1042400005D17047C1174840401AFAD0C90713B5C5
:10425000064B1B6898470CBC441CA2401005120B6F
:104260000349091B09051943114310BD7867002054
:104270001F04000010B54C00620D8023D218DB0033
:10428000D21A5B057E2A10DD9E3A13DACC17090399
:10429000490819435242D140640001341532202AA2
:1042A00005DAD0400843604310BD002010BD084629
:1042B000604310BDC80FC018013810BD18B4044BBE
:1042C0005B6AFC46019308BD24DF1D480010000016
:1042D000804C0020132370B51D78012D19D014DDFA
:1042E0001F48FFF71BFB06001E48FFF717FB1E4C7D
:1042F00080223100200000F0B3FB022D2DD01B489E
:10430000FFF704FB1A4B186070BD1A4B164CA364E0
:10431000F5E7184B144C23606360A360E3602361EE
:104320006361A361E36123626362A362E362236367
:104330006363A363E36323646364A364E364236547
:104340006365A365E36523666366A366E366236727
:104350006367A367E367A364D1E7064BA364CEE773
:104360005344000053460000804C00204C330000B2
:10437000786700207943001007B5604601880A0A73
:104380000230DF2AFAD1C9B2820804D302884088F9
:104390000004104300E00068014A5050039007BD3C
:1043A000804C00200FB403BC0CBCF0B50124E40722
:1043B000634000E0F0B50C0DCF0F661E3605891B7B
:1043C000640503D3C943404200D30131640D03D0D7
:1043D000661CF60A07D0E41B00207F00791C8907C1
:1043E0008912803C24031D0DDF0F6E1E36059B1BBA
:1043F0006D0503D3DB43524200D301336D0D03D06F
:104400006E1CF60A07D0ED1B00227F007B1C9B0769
:104410009B12803D2D032F1B661B58D4A446202ED3
:1044200046DA20371400BC401D00BD40F240334145
:104430002A4380185941CB0F05D0C943C0430022FD
:1044400064425041514162464D0D28D10D0D07D1B6
:1044500000281FD0241940414941013A0D0DF9D0DF
:10446000640006D3013000D30131002C01D1400893
:104470004000013A0BD4941CE40A04D11205114403
:10448000DB071944F0BDD907204B194300E0D907D9
:104490000020F0BD0029DDD1002CDBD1F0BD0132C0
:1044A000C6074008CD0728434908002EE1D0D9E7C8
:1044B0003C2E29DA203E40371400BC4000D00124B5
:1044C000F24014431A00BB401C43D317ACE7AC4680
:1044D000202F08DA20360400B4400D00B540F84023
:1044E00039412843A5E73C2F0CDA203F4036040031
:1044F000B44000D00124F84004430800B1400C430C
:10450000C117EAE710001900002494E70000F07FCB
:10451000F0B50C0D661E3605891BE60A6405640DB0
:1045200002D0651CED0A04D0002001210905803C61
:104530002403A4461C0D671E3F05DB1BE70A640528
:10454000640D02D0651CED0A04D0002201231B0576
:10455000803C24037740644497B484B296B2744399
:10456000070C7E43150C6F4380B26843361802D3A4
:10457000012000043F183004350C00197D418446A9
:1045800088B29AB250430C0C62431F0C7C438EB22B
:104590007E43921902D301263604A4191604170C7F
:1045A0003618674101BC81B29AB25143040C624390
:1045B0001B0C5C4380B25843121802D30120000444
:1045C00024181004130C401863412D185E4100207C
:1045D000474106BC88B293B258430C0C6343120C9B
:1045E000544389B251435B1802D301210904641872
:1045F00019041A0C091862416D18564100204741F0
:1046000018BCF902720D1143F0026A0D1043ED025D
:104610000A0D03D16D1940414941013B124E9B1BCC
:104620007600B3420ED26D0007D3013000267141EF
:104630006646354301D1400840001B05C918E40710
:104640002144F0BD0BDA013306D1013004D1013130
:104650004F0D01D04908F2E7E1070020F0BD013617
:1046600031050020EBE70000FF030000F0B51C0D52
:10467000671E3F05DB1BE70A6405640D02D0661C5C
:10468000F60A04D0002201231B05803C2403D02518
:104690002D060026F6432E661E096E66CE0FF6190D
:1046A000B44649004F0D02D07E1CF60A03D000200C
:1046B0000021403F3F033E1BB600B444013F7F054D
:1046C000C91B49082E6F013676089C02950D2543BB
:1046D0007543ED137543AD1301356D10F603761B6D
:1046E0000CB4CC02450D2C43A2B2B3B25A43270CF2
:1046F0007B43350C6F43A4B26C431B1902D30124D6
:1047000024043F191C041D0CA4187D4124196D417B
:10471000009A91B2ACB26143170C7C432B0C5F43FF
:1047200092B25A43A41802D301221204BF182204E1
:10473000230C52187B41019C6C431B19520ED9016A
:104740000A434401A01A81B2B2B2514303145A433E
:10475000360C734387B27743D617D21900277E41B0
:1047600036049B191704160C7F185E417316ED185A
:10477000F301002680337541A90F06D16400690A50
:10478000E8055B0A184309D22FE0042294448033E1
:104790007541A90AA8059B0A184326D340414941FF
:1047A0002404009A019B0D005543641B4343E41A03
:1047B00095B286B27543170C7E43030C5F4392B2E9
:1047C0005A43B61802D301221204BF183204330C24
:1047D00052197B4152429C41002C02D400220130EC
:1047E00051414008CA071043490802B06246D70742
:1047F0009210084BD218084B9A4203D2120589181E
:10480000C919F0BD0020002A01DC3900F0BD0133D8
:104810001905F5E7FD030000FE070000002200B5C2
:10482000203200F004F8080000BD000000220B1543
:104830000AD410B5944600F031F81414013400DAAB
:104840000021CB17144C2047002000217047624400
:10485000343A0CD40C2A07DA0400914090405242BA
:104860002032D440214310BDD843D94310BD20325B
:1048700007D40C469440524220321141D04020438C
:1048800010BD0800C917203203D452422032104113
:1048900010BD1800190010BD4F4800100A0DCC0FB4
:1048A000531E1B05C91A520503D3C943404200D306
:1048B0000131520D03D0531CDB0A07D0121B00201C
:1048C0006400611C89078912803A1203014BD21AD5
:1048D00070470000FF03000051434343C9188C4652
:1048E000110C83B24B4310B4040C614392B280B2FA
:1048F000504362431C041B0C001910BC59411304A3
:10490000120CC018514161447047000048404140BA
:1049100048400E4B5B6818470C4B1B6818470C4A05
:10492000936F9B0802D2094BDB681847F0B5146EF1
:10493000556E576F166FFFF7F6FF054A14665566FA
:1049400057671667F0BD014B9B681847804D0020E4
:10495000000000D0491A002808D10846704700001E
:10496000C10FC90700D54042002817D0F44603B450
:104970000B4B1B68984706BC81409E3840428031F3
:1049800007D20B0607D04900490AC0051043084367
:1049900060470130F8E7490A8902F5E770470000EF
:1049A00078670020014B5B6A18470000804D0020AB
:1049B000132310B51C781348FEF7B0FF012C0BD061
:1049C00004DD01008022104800F04AF80F48FEF78D
:1049D0009DFF0F4B186010BD0B4C010054222000AE
:1049E00000F03EF80B4B6365A365E36523666366E1
:1049F000A366E36623676367A367E3672362E361F4
:104A0000E4E7C04653460000804D00204C330000D0
:104A100078670020194A001007B5604601880A0A25
:104A20000230DF2AFAD1C9B2820804D30288408852
:104A30000004104300E00068014A5050039007BD95
:104A4000804D002001480421014B18472010002010
:104A50002D390010014B1B68184700002010002062
:104A6000014B5B6818470000201000207047C046CB
:104A7000F8B5DE4657464E464546E0B599460D9B8D
:104A80000700884693469B0728D00B9B002B3CD001
:104A900016000B9C0A9D3619321B013C4B464146C1
:104AA000285DB847002CF7D135000D9B9B070ED52C
:104AB0005B46EC1A0C9BA34209D91E002A004B4608
:104AC000414620200134B8470135B442F6D32800CE
:104AD000F0BCBB46B246A946A046F8BD0B9B0C9A5B
:104AE000934214D213005D460C000B9A9E1A76195D
:104AF0002A004B46013521002020B847B542F7D1A6
:104B00000B9BA046002BC4D1E1E71500CDE75E4624
:104B1000002BBED15D46DAE7F0B54F46D646464695
:104B2000C0B584B09C460EAB1F78129B9146BA4626
:104B30000D9C109E119D9B074CD4002D41D1B44279
:104B400048D20123129F1F40B8460C9B5F1E3023A2
:104B500003E001343B55A64201D9202CF9D143464C
:104B6000002B00D187E00C9B5F1E3023A54204D8A8
:104B700030E001343B55AC422CD0202CF9D1129BB3
:104B8000DB060DD5129B5B0557D4A64267D0A54224
:104B900065D00F9B102B53D0022B5BD0202C36D12D
:104BA0002023129C01930C9B4A4600930394634676
:104BB0000295FFF75DFF04B0E0BCBA46B146A846D7
:104BC000F0BD0123129A13409846012313422DD1C0
:104BD000B442BAD3129BDB061ED5129B5B05D8D418
:104BE000002CD2D10F9B102B60D00F9B022B71D0C9
:104BF000302301240C9A13705346002B11D1129BC1
:104C00005B0740D52B260C9A631C1655C9E7230079
:104C1000013430260C9AD654202CC1D05346002B98
:104C2000EDD02D260C9A631C1655BAE7002F34D010
:104C3000013DB44200D288E795E70F9B102BAFD11E
:104C4000129B9B063CD5202CAAD058230C9A1355B6
:104C50000134A3E7202CA3D02300013407E0631E16
:104C6000012CBFD00F9A102A36D0022AD1D1622649
:104C70000C9AD65492E7129BDB06CDD5129B5B05AE
:104C800000D482E785E7129A2300160700D488E74C
:104C900020260C9A0133165583E70C2313405F1E20
:104CA000BB41ED1AB44200D24FE75CE7129B9B0672
:104CB0000ED478230C9A02241370302353709BE790
:104CC000202C00D16CE778230C9A1355013465E74A
:104CD0005823EFE76033EDE70C9AA61EB618129A38
:104CE000920602D55822327093E77822327090E70C
:104CF00010B5002800D110BD01F0ACFBFBE7C046A9
:104D000010B5002803D04A680B681100984710BD01
:104D1000F0B54E46DE4657464546E0B595B083466B
:104D20008946924698461E9A1F9B10001900209EA5
:104D3000FFF777FA002800D0D2E11E981F990122D0
:104D4000C44B5242FFF752FA002800D001E11E98EE
:104D50001F990122C04B5242FFF75EFA002800D093
:104D6000D6E01E981F990022BC4BFFF755FA002889
:104D700000D0B5E01E981F990022B94BFFF736FA14
:104D8000002800D0ACE01E981F9900220023FFF7F6
:104D90002DFA002800D0D1E000230B93229B5B0565
:104DA00000D406260024302306E006AA0134173278
:104DB0001355013E202C01D0092EF6D81E981F99BC
:104DC000FFF758FAA74BF2009B180CCB050008928E
:104DD0000993FFF737FA02000B001E981F99FFF79F
:104DE00092F9089A099BFFF7BEF906900791FFF721
:104DF00065FA0700FFF722FA02000B0006980799F0
:104E0000FFF781F90022984B06900791FFF704FA0B
:104E1000002800D1E9E001373800FFF70FFA02005F
:104E20000B0008980999FFF7E7F9002801D000273F
:104E30000135002E00D1B7E0069513E0172306AA2E
:104E40009B180A21380001341D19FEF721FF30316B
:104E5000297038000A21013EFEF71AFF092F00D8F9
:104E6000E1E00700202CE9D1069D20240CAB06933D
:104E7000172706ABFF180DE028000A21FEF7E0FE19
:104E800001343031280039550A21FEF7D9FE051EBC
:104E900000D1B7E0202CEFD10323229A1340012B3D
:104EA00017D1219B002B14D00B9B002B00D1E3E0EA
:104EB000219B013B2193202B0BD93023219A06E023
:104EC00006A9013417310B55944200D3A0E0202CE1
:104ED000F6D1229B01940393219B0293069B21E030
:104EE000229B52460493219B4946039358461E9B9E
:104EF0001F9C029600930194434600F043F904007E
:104F0000200015B0F0BCBB46B246A946A046F0BD95
:104F1000229B5B070FD40322544B229901920391E9
:104F20002199029100935246434649465846FFF75D
:104F30009FFD0400E4E704224D4BEEE71E9A1F9B01
:104F400000200021FFF7DFF801231E901F910B9333
:104F500024E70223229A54461A40229B06929B077A
:104F600000D1ACE02600434D08942F1F3200E878B2
:104F700043464946013DD8470136BD42F6D1089C1B
:104F8000069B0434002BBBD05746219AE31B9A4260
:104F9000B6D9150022004346494620200134D8479F
:104FA000E31BAB42F6D3ABE72800FFF74BF9020057
:104FB0000B001E981F99FFF7A6F82B4B0022060046
:104FC0000F00FFF713F90CAB0693002800D04FE752
:104FD000002230003900244BFFF71EF9002800D0D2
:104FE00046E7012301359D4342E7002206980799D1
:104FF0001D4BFFF7FBF8002800D01AE7002F59D10E
:10500000013716E70323229A1340012B00D1A6E0B3
:10501000202C00D15DE70B9B002B3AD02D23069A64
:105020001355013455E7069D202C00D11DE7302390
:10503000361906E006AA013417321355202C00D188
:1050400013E7A642F6D12E230CAA013406929355FB
:105050000EE7C046FFFFEFFFFFFFEF7F65CDCD41BD
:1050600065CDCDC190AB00100000E03FB4A20010B0
:10507000ACA20010BCA200100C23229A134257D0FD
:10508000219B013B2193A34200D916E7202C00D19C
:105090001FE7229B5B0704D52B23069A1355013487
:1050A00017E7229B1B0700D413E72023069A13550A
:1050B00001340EE7FB0700D4BBE60137B9E6219BBC
:1050C000042B00D84EE755464F46043CE4182A000E
:1050D0004346013539002020D847AC42F7D141E79B
:1050E0000227229B55461F409B0726D006975F4606
:1050F000234EEC1C2A00B078434649460135B84798
:10510000013EAC42F6D1069F002F00D1F8E657468B
:10511000219AE31B9A4200D8F2E61500220043468A
:10512000494620200134D847E31BAB42F6D3E7E6DB
:10513000219BA34200D9C0E6CBE6219B032BD5D906
:10514000069754464F46033DED182200434601346E
:1051500039002020D847A542F7D1069FC6E7219BFA
:10516000002B00D154E70B9B002B85D0219B013BEA
:1051700021939C4200D2A0E6202C00D04EE7A8E666
:10518000B8A20010F0B54546DE4657464E46E0B59B
:105190009BB0249C259D82468846934699462200D2
:1051A0002B0020002900FFF73CF8002800D0C1E0C8
:1051B0000122200029007C4B5242FFF72DF80028E5
:1051C00000D0B7E0012220002900784B5242FFF7BF
:1051D0000DF8002800D0ADE00022002320002900B7
:1051E000FFF704F8002800D0BBE10894099508985F
:1051F00009998023289ADB001A400F928022289E6A
:105200001201164032000E96289E0F000A901E4290
:1052100000D0A4E00B00034300D0CBE0002A00D074
:1052200012E2320006332693022313400C9302232A
:10523000134200D00AE2279B042B00D215E200277C
:105240000426043B0E930022002320002900FEF7D1
:10525000CDFF002800D0C8E1554B289A1340049395
:105260000E9B0393269B0293089B099C0093019439
:1052700041464B465A465046FFF74AFD0200202061
:10528000289B0025034059424B415B421840531C68
:10529000089341464B464530D047FB17FC185C400D
:1052A000FB0F1F270A93731E0E930AABFF1806E02D
:1052B00020000A21FEF7ECFC0400202D08D00A2172
:1052C0002000FEF7E5FC013530317955092CEFD887
:1052D000052306930E9B56460593002304930A3339
:1052E00003930A9B4146029312AB009330004B4656
:1052F000089A0195FFF710FC0C9B002B28D05F4605
:10530000279BC41BA34223D982461D003A194B4652
:10531000414620200134B047A542F7D850465946AF
:10532000279C421A01320023944200D395E10130B8
:1053300018180DE0289B009401950493279B039374
:10534000269B02934B465A4641465046FFF7E0FCE7
:105350001BB0F0BCBB46B246A946A046F0BD014317
:105360002AD10E9B3200002B00D15DE70027269B3F
:105370000026BB4200DD82E100220023200029003C
:10538000FEF734FF002800D04BE1289B084A029624
:105390001A408023DB0013430493279B0393089B4D
:1053A000099C00930194CDE7FFFFEF7FFFFFEFFF24
:1053B000FFF7FFFF06232693B24B7800400DC0187D
:1053C000FEF740FFB04AB14BFEF7CDFEB04AB14BFD
:1053D000FEF7A2FE3F03B04B3F0B3B430C900D91F9
:1053E00000220A981900AD4BFEF78DFEAC4AAD4B7A
:1053F000FEF7B9FE02000B000C980D99FEF78CFE2B
:10540000FEF738FF0700FEF71DFFA74AA74B0A90DB
:105410000B91FEF7A8FE0022A54BFEF77DFEFEF7DE
:1054200029FFA44A06000A980B99A34BFEF79BFE9E
:105430000A900B913000FEF705FFA04AA04BFEF743
:1054400092FE02000B000A980B99FEF75CFE020028
:105450000B000A900B91FEF786FE0C900D910A98B6
:105460000B9902000B00FEF757FE002210901191DD
:105470000C980D99934BFEF758FE0022924BFEF7C5
:105480004BFE02000B000C980D99FEF74EFE002219
:105490008E4BFEF741FE02000B000C980D99FEF7B3
:1054A00044FE0A9A0B9B0C900D9180210020C905A7
:1054B000FEF729FE02000B000C980D99FEF72CFE5A
:1054C00002000B0010981199FEF72FFE0022724B7C
:1054D000FEF722FE7E4B0022F6183305FEF743FE50
:1054E00002000B000A900B9108980999FEF77EFEC6
:1054F000002808D00A980B990022734BFEF715FE7E
:105500000A900B91013F0A990B9A0B0011003A0087
:105510006332C62A12D802222898042610400E9A16
:105520000C90002A26D1279B042B05D9002800D0F7
:10553000A1E0279B043B0E93042642E00222289818
:1055400010400E9A0C90002A13D1279B052B00D8EF
:1055500089E0002800D084E0279B0526053B0E93B8
:1055600032E080231B069C46AC44634608940993B2
:105570003DE605260B4300D1F9E608980999554AFE
:10558000554BFEF741FE002808D0089809990022E3
:10559000524BFEF72BFE002800D0E8E6269B002B9E
:1055A00034D00F9B002B31D0269B013B2693279BA9
:1055B000B34204D90C9B002B59D002230C93002337
:1055C0000E93002F00D13EE60A9A0B9B089809998A
:1055D000FEF7ABFD0022089009910023200029006E
:1055E000FEF704FE002800D136E6089C099D289AA3
:1055F00080203B4B00061340220004930E9B039334
:10560000269B02932B180092019331E6279BB3420D
:10561000D5D90C9B002B2AD000230E9302330C9378
:10562000CFE7289B2E4A8020089C099D1A408023A2
:10563000DB00134322000493279B000603932B18DF
:105640000092019302967DE6052695E600230E93CF
:105650000233002704260C93F5E54B1E1B191B1A79
:1056600065E602230C930526AEE70423E7E5279BB6
:105670009B1B0E93A5E7022304260C93A1E7DB1BDB
:105680005E1E79E601FCFFFFFB799F501344D33F78
:10569000B3C8608B288AC63F0000F03F0000F83F87
:1056A00061436F63A787D23F71A379094F930A4083
:1056B0000000E03F1655B5BBB16B0240EF39FAFE72
:1056C000422EE63F00002C4000002440000018401D
:1056D000FF0300002D431CEBE2361A3F80842E416D
:1056E000FFF7FFFFF0B55746DE464E464546E0B5AC
:1056F000A3B01F002C9B92460C93C94AC94B8B4602
:105700000B901A60002900D1BFE100233878994638
:10571000002800D1C1E1C44B4C460993C34B0E9302
:105720005B460A9308E0220053460A990B9DA8475E
:1057300001343878002876D001372528F3D110239A
:105740009B46083B9946043B9846033B00260225AE
:105750009C463878791C0300203BDBB2102B03D821
:10576000099A9B00D3589F460300303B092B36D93A
:1057700000252A2800D1A7E000230D932E283FD032
:105780000300683BDBB2122B1BD80E9A9B00D35848
:105790009F4663460F001E43DBE70F002E43D8E70A
:1057A00043460F001E43D4E75B460F001E43D0E77D
:1057B0004B460F001E43CCE7802378785B001E43E6
:1057C00001310F00672845D82428ACD90300253BB8
:1057D000DBB2422BA7D896499B00CB589F460025A9
:1057E000AB005D196D002D1808780F000300303BE9
:1057F000303D0131092BF3D900230D932E28BFD161
:105800003022802052429046C000064378780B0038
:1058100080444246092A00D851E12A2800D15EE19D
:105820000F000131ACE70A9BA1469B46CA4503D84D
:1058300001235B425344994653464A465946002049
:105840000B9DA847200023B0F0BCBB46B246A9463A
:10585000A046F0BD0300693BDBB20F2B00D962E725
:10586000012199408846734A11408B4611004246F7
:105870000A4200D013E10A2B2FD0072B00D052E7A9
:105880000C9D01CD002800D134E121231E43B046F8
:105890001F260D9A12ABF618A146944659463400BD
:1058A00002E0000920290AD00F26064032003732D4
:1058B000092E00D8073A013162540F28F1D8634607
:1058C0004C468B460D9322E10C9B20CB002D52DBE6
:1058D00078780C930F0001314EE70C9B0D9904CBA7
:1058E00090469B46002900D128E143461878414460
:1058F000002801D100F029FC0D9A94460A0004E02A
:1059000059780133002900D195E19A42F8D16346D4
:105910000D934346D31A0F93730500D46CE10F9B8C
:105920000D9A934200D90F9202231A0032400C9232
:10593000334200D191E20C930D9BB9461E194346A8
:105940001B1BA84622001F000B9D08E0541C534659
:105950000A99A847385D002800D163E122009642E9
:10596000F4D145464F4634000C9B002B00D097E104
:105970005B460C93DDE60222787816430F006D42F9
:105980000C930131F8E678786C2800D159E1802336
:105990005B001E43013114E780239B0078781E438F
:1059A00001310EE77878682800D150E18023013179
:1059B0001E4306E7672800D1C2E0472800D134E142
:1059C000452800D134E107210C9B0D9A07338B4306
:1059D00019000496039502920CC90B98009201934A
:1059E0000C91220053460A99FFF7CCFB0400A0E675
:1059F000462800D1A8E007210C9B0D9A07338B4362
:105A000019000496039502920CC90B980092019319
:105A10000C91220053460A99FFF77AF9040088E6B0
:105A2000E5560010C0640020F4A9001038AA001048
:105A300084AA0010419000002200534625200A99B4
:105A40000B9DA847013474E60C9B04339B46631CF2
:105A50009846B60700D4FFE00C9B220018780A99FC
:105A600053460B9EB0476419012D00D849E24546C4
:105A70000B9EB8460A9F2A00534601353900202064
:105A8000B047A542F7D1474672E7DB4B38780B9316
:105A900000239946002800D03DE60024C6E66F2882
:105AA00055D000D8BCE21023782800D19EE09E4358
:105AB0000A239C4600230F930A339B464DE00021A6
:105AC0008A00521852000133111818783039020038
:105AD000303A092AF4D90D911F00591C50E60C9B4D
