:020000041000EA
:1000000000B5324B212058609868022188439860DF
:10001000D860186158612E4B002199600221596106
:100020000121F02299502B49196001219960352056
:1000300000F044F80222904214D00621196600F024
:1000400034F8196E01211966002018661A6600F04E
:100050002CF8196E196E196E052000F02FF8012189
:100060000842F9D1002199601B49196000215960AB
:100070001A491B48016001219960EB211966A021F2
:10008000196600F012F800219960164914480160C1
:100090000121996001BC002800D000471248134993
:1000A000086003C880F30888084703B5996A0420EC
:1000B0000142FBD001200142F8D103BD02B5186610
:1000C0001866FFF7F2FF186E186E02BD00000240BE
:1000D000000000180000070000035F00212200005C
:1000E000F4000018222000A00001001008ED00E03C
:1000F00000000000000000000000000074B24E7A12
:1001000000200420F7010010CB010010CD010010E9
:10011000C9010010C9010010C9010010C901001077
:10012000C9010010C9010010C9010010CF01001061
:10013000C9010010C9010010D1010010D301001045
:10014000C1010010C1010010C1010010C101001067
:10015000C1010010C1010010C1010010C101001057
:10016000C1010010C1010010C1010010C101001047
:10017000C1010010C1010010C1010010C101001037
:10018000C1010010C1010010C1010010C101001027
:10019000C1010010C1010010C1010010C101001017
:1001A000C1010010C1010010C1010010C101001007
:1001B000C1010010C1010010C1010010C1010010F7
:1001C000EFF30580103800BE00BE00BE00BE00BECA
:1001D00000BE00BEF2EB887128B8001048B80010CD
:1001E0003802001090A31AE71E481F49086006C88D
:1001F00081F3088810471D480068002801D019487D
:10020000F3E70DA40ECC002902D000F012F8F9E7B4
:100210001749184A002000E001C19142FCD116495B
:100220008847164988471649884700BEFDE701C937
:1002300001C29A42FBD3704748B80010C0000020AA
:100240007810002000C800100000042000000420E6
:1002500000C800100010042000100420000000005E
:10026000704700000000000008ED00E0000000D032
:10027000781000207CF00020916D0010D502001055
:10028000896D0010F8B5C04606480749091A8B1059
:10029000C90FC91810B5491003D0044B002B00D06A
:1002A000984710BD78100020781000200000000052
:1002B000054B10B5002B03D00449054800E000BFF2
:1002C000FFF7E2FF10BDC0460000000034560020DA
:1002D00064A50010F0B5C646002100B5002009F065
:1002E00047FB06F07FFE192002F042FFD023802258
:1002F0001B0692045A62022001F068FC002002F002
:10030000F3F90421032000F05BF8FA20C00003F0A9
:1003100005FE264806F0B4FE02F0ECF902F0F0F912
:1003200002210200224806F02DFF224806F0A8FE16
:10033000002503F003FF204C24184D41002D02DA64
:1003400001241E4D64420023002798461A4E0120C6
:100350000021404207F060FC02F0BAFB00F070F8A8
:1003600003F0ECFE22002B00121A8B41002BEEDC76
:1003700001D1002AEBD1424601235A4090460FD0CA
:10038000D02380221B0692045A6103F0D7FE801905
:10039000794104000D1EDADA0124084D6442D6E7E3
:1003A000D02380221B0692049A61EEE768A5001014
:1003B0007CA5001098A5001090D00300FFFFFF7FE0
:1003C0000022184B70B51A70174C184B05001A60B4
:1003D000216003F0B3FE164B164A9C46002380189A
:1003E000594102000B1E02DA0122134B52426146B0
:1003F00020680A604B6002F0BBFE012322682800DF
:100400009340D0221206936200F042FB002000F0DD
:1004100005FC01F011F829002268084806F0B2FE38
:1004200070BDC0466FF000205C51002000580020D5
:10043000102D002040420F00FFFFFF7FA4A50010F9
:10044000F0B5DE46574645464E46E0B589B002F067
:1004500051F9C84B80469A46C74BC84F9B4602ACE1
:10046000200001F011F8002800D191E042462369F4
:10047000022A00D083E0012B00D880E063787A2B39
:1004800065D00F220926217850460A40090906F056
:1004900079FE236901256E44012B2AD93178380071
:1004A00006F070FE2369013501369D42F6D3012B1B
:1004B0001FD96378363BDBB28F2B00D986E0B04A78
:1004C0009B009958AF4806F05DFE63787A2B00D107
:1004D00084E0442B00D130E1722B0AD12369022B36
:1004E00007D9A378002B00D0B7E1A749A74806F0A9
:1004F00049FE0A2006F07AFD2269012AB0D9637804
:100500007A2B59D02278502AAAD1C02B00D1DCE016
:1005100000D9C7E08F2B00D1A4E09F2B00D1F6E0DB
:10052000832B9DD14346022B9AD0994B6A46009368
:100530000023052113716846022200F00DFE0028F9
:1005400000D084E19049934806F01CFE88E703F050
:10055000F5FD5B460E0019688F4B050099465B68F8
:10056000B34200D999E000D192E0002900D0A5E083
:1005700000238A4A4946521973410CC12369002B52
:1005800000D07EE7200000F07FFF002800D06DE75C
:100590004346022B00D1DFE003F0D0FD804C2268FF
:1005A0006368121A8B41002B28DD09B0F0BCBB46F2
:1005B000B246A946A046F0BD022A00D150E77F20EE
:1005C000A378D909184002F023F949E775496D4825
:1005D00006F0D8FD63787A2B00D07AE72369022BE6
:1005E00000D886E77F21A37819405BB2002B00DAA0
:1005F00029E1654A6C4806F0C5FD7AE7002B01D178
:10060000002AD2D1D0231B065A68684B19680123EF
:100610008B401A40531E9A41D5B200F0F1FA644E55
:1006200007003368002B00D1E6E0012B00D116E172
:10063000022B00D126E15F4B1B78002B00D0FAE0A3
:100640006A465D4B022113806846022200F084FD59
:10065000002800D014E14C493B002A00574806F01E
:1006600091FDD5E04346022B00D1F9E66846544B94
:1006700003211A8802809B780222837000F06CFDAF
:10068000002800D0E5E040494E4806F07BFDE7E653
:100690004B461B68AB4200D867E75B4601312269D5
:1006A00019602AE7C22B2BD0C52B00D0D8E6002238
:1006B000404B45481A7006F0E3FCD1E6434806F08B
:1006C00061FD00235A46136052E73A4B1A78002A1C
:1006D00000D0C5E601321A704346022B00D1BFE6B6
:1006E0006A463B4B022113806846022200F034FD2B
:1006F000002800D1D9E03749374806F043FDAFE67E
:1007000000222C4B35481A7006F0BAFCA8E6434686
:10071000022B00D1A4E66846314B03211A880280DF
:100720009B780222837000F017FD002800D092E031
:1007300015492C4806F026FD92E62369022B00D8C5
:10074000D7E6A2786D2A00D97BE0274B9100C958E3
:10075000264806F017FDCCE603F0F0FC0025244CFB
:100760000F4A001969410B1E02DA0120214B404259
:1007700009C21AE7D4A50010506400201CA600107E
:10078000C8B0001024A60010D0A5001050A600107C
:100790000F8400005CA60010182D002020A1070087
:1007A000102D0020C4A500102CA600105C510020C4
:1007B000005800206FF0002005C3FFFF04A80010C0
:1007C00058A8001088A6001038A70010E4A5001053
:1007D00005C1FFFFCCA50010D8A6001014A700107B
:1007E0005CA80010B4A6001010AF001040A60010C6
:1007F00080841E00FFFFFF7F0521002000F0C2FC67
:10080000002822D02C493B002A002C4806F0BAFCD4
:100810000323326801321340336003F08FFC00235E
:10082000274A8018594102000B1E02DA0122254B8B
:1008300052420CC4B9E63A002900234806F0A2FC53
:10084000E6E7224984E71C4AD4E62149DBE71A4956
:1008500079E6194918E718496BE7174946E66A46E9
:100860001C4B022113806846022200F075FC002810
:100870001DD011493B002A00174806F083FCC7E74A
:100880000D49E9E6154B6A460093002305211371D3
:100890006846022200F060FC00280AD006493B00AE
:1008A0002A000F4806F06EFCB2E7094924E7084920
:1008B000E0E70749F3E7C046CCA5001060A70010A9
:1008C00080841E00FFFFFF7F38A80010C4A5001021
:1008D000D0A50010058FFFFF90A700100F84000027
:1008E000C8A7001070B5184B82B01B68834229D18D
:1008F0000C220A4226D0154A15489446126801680F
:1009000016000132D205D20D914204D101680131A5
:10091000C905C90D01600F4900258C6AD02109065F
:100920004868009401249C4023000340581E8341E2
:10093000694601950B71084BF0001B1811C911C3D2
:1009400063461A6002B070BD484A0020443A002055
:10095000403A002000400540483A0020F0B5574694
:100960004E46DE464546E0B5414B424E9946356817
:10097000736882468B46404C404F83B01D4324D061
:1009800003F0DCFB73688B42FAD802D133688342F0
:10099000F6D80125280000220023396832607360F0
:1009A0008840226805211368834313604B4618680A
:1009B00002F044FB4B461B68D0229D401206956115
:1009C0007368956235681D43DAD14B460721186874
:1009D00002F034FB39682068002209F021FC4B4604
:1009E00039681A6820680123009509F061FC01202C
:1009F0003968844688402268214D13688343136018
:100A00004B005B18DB00D3185B1980252D061D6099
:100A10001D60634604318B408021890151180B60B1
:100A2000136800251843106003F088FB2268A02497
:100A30003B68E40504339B00D218124B1B689B01F2
:100A40001B19114C1C605A6052469A600F4A1424BC
:100A50001268DA605A46002312196B4112184B4192
:100A60000CC603B0F0BCBB46B246A946A046F0BDDA
:100A7000484A002020130020544A0020584A0020F1
:100A8000D01000004C4A002028130020504A0020BB
:100A9000F0B5CE46474680B54D4F89B0386002F07C
:100AA00067FB01233868D0228340120693610C2132
:100AB00093620122474B02F003FB474E4748012156
:100AC000306009F015FB464D46492860306809F052
:100AD0002BFB002380220393F82352025B02009237
:100AE0000193C02304001B0310226946814604A819
:100AF000029304F081FDE31DE2011B03134304A9EB
:100B000010226846059304F077FDF8223B689200B6
:100B10005B0113408022D20413430393324B052020
:100B2000029303F00BFC04F0E1FC304904F0C3FC39
:100B3000EC21890504F0BCFC804604F0FFFC84B283
:100B40000020002C0ED0200004F0D0FC011C4046F8
:100B500004F0ABFC8721C90504F0C1FC04F0EEFCF5
:100B6000C0B2000224040443009401246B464A46A8
:100B70002968306809F0F4FB200029683268884051
:100B80001368052183431360386802F057FA3B6805
:100B900001209C40D0231B069C619C6209F098FABE
:100BA000134B144918603368C0025B181B0D296889
:100BB000DB005B181049DB03084019210F4A03438F
:100BC0000B43136009B0C0BCB946B046F0BDC04687
:100BD000484A0020E5080010544A00200000305028
:100BE000584A002008B3001000000C40002474494B
:100BF0004C4A00200000E0AFFF7F00FF504A002079
:100C0000D0231B065868044B1A68012393401840F0
:100C1000431E9841C0B27047484A00200F22024B41
:100C200002401A707047C04674F00020F0B5574675
:100C3000DE464E464546E0B54B1E85B082460191E4
:100C400000930F2B09D900239B46584605B0F0BCF2
:100C5000BB46B246A946A046F0BD03F06FFAD023CA
:100C600000271B069946044E044B36184F410024BA
:100C7000002598460CE0C046A0860100484A0020A6
:100C800003F05CFA04000D003220002103F0D0F8DC
:100C900003F054FA8F4200D8B5E14B465A684346F8
:100CA000196801238B401A4200D1A9E123002B438C
:100CB000E6D003F043FA001BA941002902D1D54B2D
:100CC0009842E1D9434600220C21186802F0CEF97F
:100CD00051460F220B78D04C1A409346CF4BD04A46
:100CE000226063600B78DB1100D0C1E1CD4BCE4AAE
:100CF000A260E36053461B785B0600D4C1E1CB4B96
:100D0000CB4A2261636153461B789B0600D4C1E144
:100D1000C64BC74AA261E36153461B78DB0600D489
:100D2000C1E1C24BC24A2262636253461B781B0771
:100D300000D4C1E1BD4BBE4AA262E36253461B78B8
:100D40005B0700D4C1E1B94BB94A226363635346E0
:100D50001B789B0700D4C1E1B44BB54AA263E3639F
:100D600053461B78DB0700D4C1E1B04BB04A226484
:100D70006364009B002B00D0C1E1AD4AAB4B142053
:100D8000AC49A264E364FFF7E9FDAB4D47462B682D
:100D90006A68134324D003F0D1F96B688B42FAD808
:100DA00002D12B688342F6D80126002200233000AE
:100DB0002A606B60A14AA24B1268196890400B68C8
:100DC00083430B603868052102F038F93B686A6894
:100DD0009E40D0231B069E619E622B681343DAD18E
:100DE000B846012743463A001B68D0269A40962011
:100DF0003606B26100217262800003F019F84346A2
:100E00003A001B68E1209A400021B262400003F0E2
:100E10000FF843461B68002199468A48766803F01C
:100E200007F84B465A469F400F3A3E4073425E4198
:100E30005342534101995E40B346012900D1BFE0BE
:100E400057468C467B1E01269C44E246F31B0293C8
:100E500003927B78DB1100D069E1724B724A226009
:100E600063607B789B111E4200D069E16E4A6D4B36
:100E7000A260E3607B785B111E4200D054E16A4AB5
:100E8000684B226163617B781B111E4200D048E1F0
:100E9000654A644BA261E3617B78DB101E4200D09F
:100EA0003CE1614A5F4B226263627B789B101E4289
:100EB00000D030E15C4A5B4BA262E3627B785B105E
:100EC0001E4200D024E1584A564B226363637B786C
:100ED0001E4200D019E1544A524BA263E363029BC5
:100EE000009ADB199A4200D10CE14F4A4D4B122077
:100EF000554922646364FFF731FD2B686A68134328
:100F000026D003F01BF96B688B42FAD802D12B680C
:100F10008342F6D830000022002348492A606B60E3
:100F20000968474B88401A6805211368834313609A
:100F30004346186802F082F8434632001B689A4024
:100F4000D0231B069A619A622B686A681343D8D132
:100F5000434632001B6896209A401300D0221206A6
:100F60009361002153628000914602F061FF434685
:100F700032001B68E1209A4013004A460021936228
:100F8000400002F055FF43461B68002101934B4689
:100F90005B682C48994602F04BFF5B46002B0BD058
:100FA0003100019A91404A460A4003995342534105
:100FB0004A424A4153409B460137BA4500D048E770
:100FC000434618680123D0228340120693621F4BC8
:100FD0000C211A681E4B1A6000231E4A13701E4A09
:100FE000136113751D4A13701D4A13601D4A137057
:100FF0001D4A13701D4A1370012202F037F824E6CF
:101000000024002540E68F4200D01CE6864200D92D
:1010100043E618E687130000281300201E03000093
:10102000720E000082030000DA05000006070000CF
:1010300056020000F465000020130020584A0020EA
:10104000544A00204605000060540000443A002045
:10105000403A002079F000205456002075F000201E
:101060004C56002077F0002078F0002076F0002029
:10107000354B364AA260E36053461B785B0600D5C9
:101080003DE6334B334A2261636153461B789B062E
:1010900000D53DE62E4B2F4AA261E36153461B78F3
:1010A000DB0600D53DE62A4B2A4A2262636253469C
:1010B0001B781B0700D53DE6254B264AA262E3625A
:1010C00053461B785B0700D53DE6214B214A22633E
:1010D000636353461B789B0700D53DE61C4B1D4AB6
:1010E000A263E36353461B78DB0700D53DE6184B4C
:1010F000184A22646364009B002B00D13DE6154A28
:10110000134B3CE6114A104BF1E6104A0E4BE4E655
:101110000E4A0D4BD9E60D4A0B4BCDE60B4A0A4B56
:10112000C1E60A4A084BB5E6084A074BA9E6064B52
:10113000064A226063607B789B111E4200D195E6CF
:10114000024A014B94E6C046060700005602000022
:1011500082030000DA050000F8B506000F00151E36
:101160000ED0002405E03230013402F0D7FEA54253
:1011700006D039003000FFF759FD0028F3D0F8BD44
:101180000020FCE7F8B5DE4657464E464546E0B53A
:1011900082468B4602F0D2FFD02300271B069946D9
:1011A0008D4E8E4B36184F4100240025984607E09F
:1011B00002F0C4FF04000D003220002102F038FECE
:1011C00002F0BCFF8F4200D8E0E04B465A6843462D
:1011D000196801238B401A4200D1D4E023002B432D
:1011E000E6D002F0ABFF001BA941002902D17C4BE5
:1011F0009842E1D90F265C46534634401B011C43FC
:101200004346002218680C2101F030FF754B7648E8
:101210007649E4B2186059602640E21100D0D7E068
:10122000734874499860D960620600D4CDE0724872
:10123000724918615961A20600D4C3E06E486F4933
:101240009861D961E20600D4B9E06B486B49186235
:101250005962220700D4AFE0674868499862D962B2
:10126000620700D4A5E06448644918635963A20783
:1012700000D49BE0604861499863D963E40700D4D7
:1012800091E05D485D49186459645B485B49986426
:10129000D96414205A49FFF761FB5A4C25686368EA
:1012A0001D4326D002F04AFF63688B42FAD802D170
:1012B00023688342F6D801250022002328002260FB
:1012C0006360514A514B1268196890400B68834320
:1012D0000B6043460521186801F0B0FE43461B68C9
:1012E000D0229D40120695616368956225681D4372
:1012F000D8D1012743463A001B6896209A40130034
:10130000D02212069361002153628000914602F0C0
:101310008FFD43463A001B68E1209A4013004A467D
:1013200000219362400002F083FD4B465C68434617
:101330003A001B6800219A4035480F3E1440734222
:101340005E4102F075FD434618684B468740624295
:1013500054419F622F4B0C211A682F4B66401A6034
:101360002E4B01221D702E4B1D611D752D4B1D70C6
:101370002D4B1D602D4B1D702D4B1D702D4B1D7069
:1013800001F074FE08E00024002515E78F4202D129
:10139000864200D919E700263000F0BCBB46B246B1
:1013A000A946A046F8BD124812496CE710481149F9
:1013B00062E70F480F4958E70D480E494EE70C48C1
:1013C0000C4944E70A480B493AE70948094930E71C
:1013D00009480A4926E7C046A0860100484A00207D
:1013E0008713000028130020720E00001E03000067
:1013F000DA05000082030000560200000607000024
:10140000F465000020130020584A0020544A0020B0
:1014100046050000443A0020403A002079F00020C0
:101420005456002075F000204C56002077F0002024
:1014300078F0002076F000200A4B1A680A4B1A60F8
:1014400000230A4A13700A4A13611375094A13707C
:10145000094A1360094A1370094A1370094A137044
:101460007047C046443A0020403A002079F00020FE
:101470005456002075F000204C56002077F00020D4
:1014800078F0002076F00020F0B54546DE4657465D
:101490004E46E0B5824C80462368626885B01343AF
:1014A00000D079E07F4D804F2B683A6893421FD07F
:1014B0007E4AC3469246B8467D4E02AC2100DA0011
:1014C000524481CA81C10133DB05DB0D2B603378C7
:1014D00027682279022B24D012D8002B39D0754BE3
:1014E000002A3FD11F6042462B6812689342E5D123
:1014F000002005B0F0BCBB46B246A946A046F0BDF0
:10150000032BF0D16B4B002AECD019686A4B791A87
:101510001F6002233370694B994267D900233370EF
:10152000E1E7002ADFD1644B654A99461B68FB1A44
:10153000934255D85F4B1F6003233370614B1B7878
:10154000002B04D0604B1B78002B00D093E04B465F
:10155000C8E7002AC7D1574B1F60574B1F600123B4
:101560003370C0E71A68544B1F60584BFB189B1A26
:10157000574A9342D2D80022564B1A611A75564BDD
:101580001A70564B1A604F4B1A704F4B1A70544BCF
:101590001A7002233370A6E702F0D0FD63688B4215
:1015A00000D97FE703D12368834200D97AE700227C
:1015B00000230CC4012420004A4A4B4B12681968CE
:1015C00090400B68494D83430B602868052101F06A
:1015D00035FD2B689C40D0231B069C619C6261E713
:1015E000344B1F60012333704B467BE7354A137839
:1015F000002B10D000213A4B11701878002800D130
:1016000071E70122334B1A755A46B0CBB0C2B0CB4A
:10161000B0C231706DE71F00354888425F412F49E5
:10162000009708680191072830D92A480769BC4605
:101630000F2F00D972E7012767440761264F6146E3
:10164000B9463F78475449460B7001990B60012316
:1016500028491370027809780E331340C91A0F3BDA
:1016600048424141581E8341174A0B4013701C4B9E
:10167000009A1A7037E7204B2048214903C396216E
:1016800002200901FFF76AF94B462BE7124A0130A5
:1016900013785B003B431370019B186023E7C0463F
:1016A00020130020403A0020443A0020483A00200D
:1016B00079F00020505600206C5600207017000072
:1016C0001027000077F0002078F0002080F3FFFF63
:1016D0004C0400005456002075F000204C560020A9
:1016E00076F00020584A0020544A0020484A002042
:1016F0001904000074F0002028130020DA0500000F
:10170000820300001E49F0B50A68CE4613008146E8
:10171000012047461B4C434080B50B602368012ADB
:1017200022D0194D5F092E68BF00B046BC461F2667
:10173000C4441E40B040664636683043664630605A
:101740004846002818D11F21581C01404209012099
:1017500088409200424411680143116002332360C3
:10176000C0BCB946B046F0BD48460028F6D0064D8C
:101770000A602A689046E6E70A60002AEED0F8E799
:10178000D84A002044640020343A0020F0B5C64610
:1017900000B598468446002382B0022901D82F4B19
:1017A0005B5C41460968481E814149424B40D9B2C1
:1017B0001B0644D400270B114BD14B0701D5202326
:1017C0001F438B0701D540231F430120FF25244BD6
:1017D0000840860299190091897815400902491933
:1017E0008900CD5AF65A591836022C063443C601E0
:1017F000887892B20002120A8218920098183E432A
:101800008778344301943C00D25A4346009FC978FC
:10181000FF78144E7940C7782D0A79406700F61991
:10182000715C120209062A430A43C90F1960634614
:10183000019C5A601C6002B080BCB846F0BD07270E
:1018400007200B110E2B05D10B07B6D510231F4314
:10185000B3E7002008270743F6E7C0462CB3001083
:101860003031002030390020F0B5DE4657464E4674
:1018700045460023E0B595B01393C44B0C931B78F9
:10188000DAB2022B00D11FE1012A00D16DE1C04B79
:101890001A000A93BF4B0E93BF4C1000231F210068
:1018A0000994934200D166E1530700D563E1C02358
:1018B0001B01E4180CC80CC18C42FBD1B74B0027AC
:1018C0009946B74BB74E059313AB0293B64B984668
:1018D000B64B19680B93B64B9B465A46B54B1268EC
:1018E0009C461B6804339B00D2188B01A021C905BC
:1018F0000893CB18099919605A60C02292009A6027
:10190000AD4A92461268DA6001230793AB4B049309
:10191000434606935B46B3460D93A94E079BC022F0
:101920005B4212011340099AD5180C9A1178CAB279
:10193000022941D00A99012A00D10E99A14A080032
:101940009B188B4200D1B4E00B002B435B0700D502
:10195000AFE0C0231B01EC18069B290098460CC879
:101960000CC1A142FBD143460693974B08998022B4
:10197000C918069B520498460B681342FCD1434693
:1019800006930B9B0D991A6863461B68096804331C
:101990009B00CB189101A022D2055218156053600C
:1019A000C0239B00936053461B680891D3600122BB
:1019B000079B53400793B2E7C0231B019846A844F6
:1019C000434603935B460193069B2C00984663466F
:1019D000109353460F95119352E042469900525E80
:1019E000013341440220095EDB040198DB0C0360F3
:1019F000FF230B4089B29B460B0A9A4639004B1EC7
:101A000099412000029BC9B2FFF7C0FE139A27201C
:101A1000002A01D00122B1309202B318DD789B7800
:101A20001B025B449B00F15AF3188B46B15A5A468D
:101A300009020143120611439A78DB7812025244DC
:101A40009200B01882466B405546ED7880786B4026
:101A5000049D40002818C05CB35A5A461B02120A63
:101A6000000613430343C00F1390A160E360781C8A
:101A7000C02102F0D9FE039B10340F00A3420ED008
:101A80004A46019B1B6812689342A6D1059A1368C7
:101A900001331360002300229A469B46AEE7019B68
:101AA0000F9D9B4643460693109B9C46119B9A466E
:101AB0005BE7069AC020002390460001CA58EA500E
:101AC00004338342FAD14EE7C025334B2D011C006D
:101AD0000993ED18314B00279946314B314E059350
:101AE00013AB0293304B984622E042469900525E77
:101AF00041440220095E01338A463900DB04DB0CD5
:101B000033604B1E9941029B20009B46C9B2FFF7F0
:101B10003DFE20005B46524608300221FFF736FEAC
:101B2000781CC02102F080FE10340F00A54217D0AF
:101B30004A46336812689342D7D13900059A20008B
:101B40001368013313604B1E9941029B0022C9B2F6
:101B50009A46FFF71BFE2000534600220830DCE7C0
:101B60000C4B0E930A4B0A93B2E60A4B1A000E93E3
:101B7000074B0A9390E6C02100230901D058099C25
:101B8000E05004338B42F9D198E6C046A80F0020FC
:101B90003058002054640020F81400205CF000202D
:101BA00060F0002058F000205870002034640020BD
:101BB0003C6400204064002038640020303900205C
:101BC00030310020F4140020100000504F4AF0B5CE
:101BD000944680224546DE4657464E46D2019246FE
:101BE0004B4AE0B59146802280254A4B91B0920144
:101BF00006901C000021012090469B466D0039E0B4
:101C000003261340104200D129E2082703223A4359
:101C10008F0807407B40002F3CD020273A43CF0855
:101C200007407B40002F3CD080273A430F090740F4
:101C30007B40002F3BD08027BF003A434F0907402D
:101C40007B40002F3BD080273F013A438F0907405C
:101C50007B40002F3BD0CF097B40002F00D110E20A
:101C60004E460127324301312280A770E370A9421A
:101C70003BD0043403004A080842C1D093431042C9
:101C800000D0EBE1082705223A438F0807407B404C
:101C9000002FC2D14026CF0807407B403243002F9F
:101CA000C2D00F0907407B402A43002FC3D08026B3
:101CB0004F090740F6007B403243002FC3D08026F7
:101CC0008F09074076017B403243002FC3D0CF09F4
:101CD0007B40002F00D1CCE1564600273243013132
:101CE0002280A770E370A942C3D10820804610204B
:101CF0005B46834620208022802584464020D200F7
:101D000099188146002301226D0040E000C0FFFFCA
:101D100000A0FFFF3031002010005C08A0432242E9
:101D200000D0C0E102245F469E08164070403C434C
:101D3000002E3CD166463443DE0816407040002E2B
:101D40003CD0802727431C0914406040002C3CD025
:101D50008024A40027435C0914406040002C3CD040
:101D600080249E09240116403C437040002E3CD044
:101D7000DE097040002E00D197E1E44E0133344378
:101D800001260C808E70C870AB423DD004311A42DF
:101D9000C2D110005C082040224200D079E1042426
:101DA000464634439E0816407040002EC2D14F462E
:101DB000DE08164070403C43002EC2D01E0916407B
:101DC0002C4327007040002EC2D080265C091440AE
:101DD000F60060403743002CC2D080249E09164094
:101DE000640170403C43002EC2D0DE097040002EDA
:101DF00000D150E18026F6013443002601330C80E7
:101E00008E70C870AB42C1D1C14BC24AC24F1A607A
:101E1000C02200211201380003F0E8FBBF4BC04E86
:101E20009B461F60002359469C46BE4D00242B60F4
:101E30003360BD4B0791059300220020E8236146E3
:101E4000A1461F34A04602961E3C80B200020390B9
:101E5000481E814149425940CBB2090600D4CBE12A
:101E6000404626001040864051098900785830438A
:101E700046467850511C4809314026008E4080006B
:101E80003958314346463950911C480931402600A3
:101E90008E408000395831433950E22B0CD04646F1
:101EA000111D4809314026008E40800039583143C9
:101EB00039501D2B00D1ACE1990709D54646911D3B
:101EC0004809314026008E4080003958314339504E
:101ED000029923400B6009D04046D31D59090340A5
:101EE0002000984089007B5803437B5000239A468A
:101EF0009B460832029E2A605B460398D8402040E9
:101F00008244C0B2FFF7FEFB01239B445B46182BC3
:101F1000F2D12B683268991C02960491012A00D0F4
:101F200038E14646991C4809314026008E40800021
:101F30003958314346463950D91C480931402600AA
:101F40008E40800039583143395011000298614069
:101F50000160012A00D03AE15046063320402B6050
:101F6000FFF7D0FB029E2B683268002A00D1A5E063
:101F70004046DA1C510902402000904089007A58FE
:101F80003460024340467A501A1D51090240200035
:101F9000904089007A58024340467A509A1D510970
:101FA00002402000904089007A58024340467A500F
:101FB000DA1D510902402000904089007A580243FE
:101FC0007A5008332B6000239A469B465B46039861
:101FD000D84020408244C0B2FFF794FB01239B44C9
:101FE0005B46182BF2D12B683268991C029603913C
:101FF000012A00D09CE04646991C48093140260041
:102000008E4080003958314346463950D81C41092A
:1020100030402600864089007858304378501100BF
:10202000029861400160012A00D09EE050460633CC
:1020300020402B60FFF766FB012399444B46C02BE1
:1020400000D1F1E03021484602F0EEFB059B49004B
:10205000C85E029B2A681968E223F6E6052610226C
:102060008F080740164332007B40002F00D011E656
:10207000D3E5664632432280A070E3700131043418
:10208000F8E5464632432280A770E37001310434FC
:10209000F0E5042447E6254E8A7034430C80C8706E
:1020A0000133043173E602247AE68027BF013C4302
:1020B0000C808E70C8700133043168E64146200000
:1020C000194088405A099200B95801434046B95016
:1020D000591C4A090140200088409200B958014328
:1020E0004046B950991C4A0901402000884092009E
:1020F000B95801434046B950591D4A0901402000D2
:1021000088409200B9580143B9505AE700A0FFFF38
:102110003039002033B3CC4C54640020343A0020D2
:10212000D84A00204464002030B3001000C0FFFFF4
:1021300046461E40310026008E405809800039581E
:102140000E43591C3E500E00480941460E403100D6
:1021500026008E40800039580E43991C3E5029605D
:10216000002A00D047E7029A14604046191D4A0928
:102170000140200088409200B95801434046B950C0
:10218000591D4A090140200088409200B958014376
:10219000B9504BE746461E40310026008E40580994
:1021A000800039580E43591C3E500E0048094146E4
:1021B0000E40310026008E40800039580E43991C95
:1021C0003E502960002A00D0ABE6029A14604046D7
:1021D0001A1D510902402000904089007A5802439C
:1021E00040467A505A1D5109024020009040890013
:1021F0007A5802437A50AFE64646D11C480931402E
:1022000026008E408000395831433950172B00D0BA
:1022100045E64646511D4809314026008E40800063
:1022200039583143395047E6079BC0229B46DA4F65
:10223000002112013800029E03F0D8F95B461F20EE
:102240001F60002380461D3883462B603360581E74
:102250008341E8215B425940002201240296CBB21F
:10226000090600D4EDE040462600104086405109A2
:1022700089007858304346467850511C480931400F
:1022800026008E4080003958314346463950911C13
:102290004809314026008E4080003958314339507A
:1022A000E22B0CD04646111D4809314026008E40D5
:1022B00080003958314339501D2B00D1CEE05946AA
:1022C000194209D04646911D4809314026008E40EA
:1022D0008000395831433950029923400B6009D0AE
:1022E0004046D11D4B090140200088409B00F95811
:1022F0000143F95018239A460832029E2A600020B2
:10230000FFF700FA01235B429A445346002BF6D1B3
:102310002B6832680296981C012A00D002E14646DA
:1023200041093040260086408900785830434646AF
:102330007850D91C4809314026008E408000395819
:10234000314339501100029861400160012A00D0E8
:102350000DE1063300202B60FFF7D4F9029E2B68B5
:102360003268002A00D184E04046D91C4A09014065
:10237000200088409200B958346001434046B9506B
:10238000191D4A090140200088409200B9580143B4
:102390004046B950991D4A090140200088409200EA
:1023A000B9580143B950D91D40464A09014020009F
:1023B00088409200B95808330143B9502B60182364
:1023C0009A460020FFF79EF901235B429A44534648
:1023D000002BF6D12B6832680296981C012A67D12F
:1023E00046464109304026008640890078583043EF
:1023F00046467850D91C4809314026008E4080005E
:102400003958314339501100029861400160012A66
:1024100073D1063300202B60FFF774F901235B4270
:1024200099444B46002B00D1B8E0029BE2211B6887
:102430002A68581E83415B425940CBB2090600D539
:1024400011E74646D11C4809314026008E408000E5
:10245000395831433950172B00D023E74646511DD8
:102460004809314026008E408000395831433950A8
:1024700025E741462000194088405A099200B95882
:1024800001434046B950591C4A0901402000884088
:102490009200B95801434046B950991C4A0901407D
:1024A000200088409200B9580143B950591D7BE77C
:1024B000590989007E18039646461E4031002600C1
:1024C0008E40B246039E2860316856460E43310066
:1024D000039E3160591C4E09B600B4464646314051
:1024E0002600BC448E40614609683143664631602F
:1024F000002A00D074E7029A14604046191D4A0968
:102500000140200088409200B95801434046B9502C
:10251000591D4A090140200088409200B9580143E2
:10252000B95076E7590989007E18039646461E4041
:10253000310026008E40B246039E28603168564620
:102540000E433100039E3160591C4E09B600B4465B
:10255000464631402600BC448E40614609683143FE
:1025600066463160002A00D0D9E6029A14604046DF
:10257000191D4A090140200088409200B9580143C2
:102580004046B950591D4A09014020008840920038
:10259000B9580143B950DCE630580020474E48484E
:1025A0000121306007F0A4FD464D4749286030689E
:1025B00007F0BAFD454B3168069CC918090D063174
:1025C0000700C9B2200000F039FD0123220029686C
:1025D0003068009307F06CFE4B460F9380235B023C
:1025E0000C93F8235B020D93C02310221B030CA94C
:1025F00008A80E9303F000F83A03FB01134308A95F
:1026000010220CA8099302F0F7FF1F22802322401A
:102610005B0313430F932E4B05200E9301F08EFEA8
:1026200002F064FF2B4902F046FFEC21890502F01D
:102630003FFF804602F082FF84B20023002C0ED0C0
:10264000200002F053FF011C404602F02EFF8721BC
:10265000C90502F044FF02F071FFC3B21B0224045B
:102660003A0029681C4330680CAB0C9407F078FEE4
:102670000123286832688340116801200B431360EE
:1026800007F026FD144B114918603368C0025B182F
:102690001B0D2968DB005B181049DB0308401B2178
:1026A0000F4A03430B430F48136007F0E3FC11B0DC
:1026B000F0BCBB46B246A946A046F0BD3C64002033
:1026C000000020504064002090B300100000E0AFF4
:1026D00000000E400080BB4A34640020FF7F00FFF2
:1026E0003864002069180010014B18707047C0460C
:1026F000A80F0020014B1878C0B27047A80F002027
:10270000022803D8024B8000C05870470148FCE7FC
:1027100020B30010C4A50010F0B50F1E2AD0174B2F
:1027200001009C460020164C164E0AE00D889B00C6
:102730009D534D88F31801305D802260043187423B
:1027400008D0654623682D685A1CD204D20C9542E5
:10275000ECD1070063461B682268934202D98021AE
:1027600089015218D31A084A1168994200D213609D
:102770003800F0BD014B024C9C46EBE758F00020BE
:102780005CF000205870002054700020054B186841
:10279000054B1B68984202D9802292019B18181A97
:1027A0007047C04658F000205CF000200023044A27
:1027B0001360044A1360044A1360044A13607047AC
:1027C00058F000205CF0002060F0002054700020E1
:1027D00010B5002813D00A4B0A4A1B6812689342AE
:1027E00002D98021890152180749D31A0A68036067
:1027F0004260064A14680B6000238460136010BDB9
:1028000058F000205CF000205470002060F00020A0
:1028100070B5031C0C00642800D96423DBB21801D6
:10282000C01A6421800201F0D7FF074B2202C018B2
:10283000064B22431A80020415000549120C2A4354
:102840000A609C70888070BD00C4FFFF2C56002079
:1028500064F00020F0B54B7985B0042B05D0002240
:10286000022B11D0100005B0F0BDCB78012B1FD08A
:102870000022022BF6D14B78012BF3D16A4613705C
:1028800006F010FD0200EDE7CB78012B22D0022BE1
:10289000E8D14B78012B32D0022BE3D16C461D4B93
:1028A0006A4660CB60C4082306F0FCFC0200D9E74E
:1028B0004B78012B1BD00022022BD3D16C46164B38
:1028C0006A46E0CBE0C41B8823800E2306F0EAFCB6
:1028D0000200C7E74B78012BC4D16A468C780F4BB6
:1028E0001B5D1370012306F0DDFC0200BAE70C4B00
:1028F0006A460093042306F0D5FC0200B2E78A780A
:10290000084B5200D35A6A461380022306F0CAFCD1
:102910000200A7E7ACB300109CB300102C560020B7
:1029200080BB000064F000204B780020012B09D10F
:102930004B79042B07D0022B04D1CB78012B08D084
:10294000022B0CD07047C878013843425841C0B2BE
:10295000F8E7094B8978127801205A54F2E7137886
:1029600089789C465378624604481B024900134309
:1029700043520120E6E7C0462C56002064F00020B8
:1029800070B50B7982B0032B02D0012002B070BD6C
:102990008B7800255A1E93418026284C760123709F
:1029A000274B1D70274B1E60FFF700FF0020FFF72D
:1029B0009BFE254B1D6001F0C1FB244B244A9C4625
:1029C0000023801859416346002203C30023214994
:1029D0000D000CC12378002B0AD11F4CFFF78AFE93
:1029E000FFF78EFE210002001C4804F0CBFBCCE771
:1029F00001F0A4FB00900191FFF7C8FE184B311ABB
:102A00000901994200DA190080231B02994200DD76
:102A10001900C0239B03C918002006F00FFC009882
:102A20000199FA2200231201801859410B0002007B
:102A30000CC52378002BD0D00A4CCFE77AF00020C9
:102A400073F000200C580020244B0020002D0020A3
:102A500080841E00082D00208CAC001090AC00106B
:102A60000080FFFF88AC001010B5002480220E4BC0
:102A700052011C700D4B1C700D4B1A60FFF796FE37
:102A80000020FFF731FE9C220A4B1C600A4B9C5031
:102A9000043A9C50FFF72EFEFFF732FE0100074874
:102AA00004F070FB012010BD7AF0002073F00020CC
:102AB0000C580020244B002000001050B4AC001033
:102AC00000231370014B53607047C04680BB000069
:102AD000F0B54E46DE4657464546E0B5754B87B0E5
:102AE00099461B78002B06D107B0F0BCBB46B24616
:102AF000A946A046F0BD01F021FB6F4B04009A46A9
:102B00005B680D008B421BD800D1C3E0FFF73EFE8F
:102B100080216A4B4901091A0901994270DB80231F
:102B20001B0299426ADCC0239B03C918002006F0EF
:102B300085FBFA2200231201A4185D41534630C3DD
:102B4000C0265F4D760003270FE0B84382B2002A0B
:102B5000CAD02900002005F0A9FE8408A4B22100F3
:102B60002800FFF7D9FD844242D8002005F08EFEF0
:102B7000032807D9002005F089FEB042E5D9C0221C
:102B80005200E6E74F4B1F001B78002B70D001F07E
:102B9000D5FA4D4B040098465B680D008B4235D941
:102BA0004B461B78002B9FD001F0C8FA53465B6858
:102BB00004000D008B4297D876D0FFF7E7FD802107
:102BC0003E4B4901091A090199426BDB80231B0224
:102BD000994265DCC0239B03C918002006F02EFB38
:102BE000FA2200231201A4185D41534630C37BE74B
:102BF000364A13681B1A1B191360A4E7190092E7E1
:102C0000190080231B0299428DDDF7E78B4203D127
:102C100043461B688342C3D803A8FFF7D9FD2B4E58
:102C2000059BB3463668049A03992948009604F038
:102C3000A9FA3B78002B11D0059B002B0ED0002366
:102C400080223B70234B520100201A60FFF74CFD9D
:102C5000FFF79CFD0100204804F094FA00235A4637
:102C6000136000231D4AA4185D41434630C397E713
:102C7000FFF78CFD174B1B68984288D30123022075
:102C80003B70FFF731FDFFF781FD0100144804F0B0
:102C900079FA7CE753461B68834200D836E74FE752
:102CA000190097E7190091E753461B68834284D9BE
:102CB0001AE7C0467AF00020082D00200080FFFFB0
:102CC0007056002073F00020002D0020244B0020BF
:102CD000FCAC00100C58002028AD001080841E00B1
:102CE000D8AC001000487047B8B4001000487047D6
:102CF000D4B3001070B504001C480378002B2DD00D
:102D0000002C0BD11A4B9C4662461A4B9D1F5380D8
:102D1000FF3D634664461D80200070BD062C23D80D
:102D2000154BA400E458002CF6D0200007F06CFBF3
:102D30000200202816D8C023411C49009B000B43E9
:102D40001D000B4B9C46002AE3D09A1C0023E15C3B
:102D50000133118002329842F9D8DAE7112104F0E8
:102D60009DFBCDE72020E6E70024D5E7185800209A
:102D7000DC4A002009040000B4B30010D0231B0675
:102D80001B68F0B5A94ADE464E46454657469900AF
:102D9000884651585A4253412F22E0B55B42934333
:102DA000A34A83B09B189B4600260191002939D085
:102DB000A04B0F279A465A46F30808339B009D58AC
:102DC0000123340099460836002D22D039002940CD
:102DD0002D0900291AD0534642469A582300E24052
:102DE000203BDB1713404A4613420DD1072208004F
:102DF0002240920090400200E3088F483C339B0041
:102E00001A502000019B9847002D02D00134B44293
:102E1000DCD3202ECFD103B0F0BCBB46B246A946CE
:102E2000A046F0BD0F23834A0192CC0822005846E9
:102E30000F000832920012580837002A00D1CDE066
:102E4000180010408446100913421AD04546019ECE
:102E50007559AA4620256D42A94689444D46ED176D
:102E6000A9465546CD402E004D46354001263542F7
:102E700004D16646704D3C34A4006651002800D150
:102E8000ACE01C000440A446140A034219D0481CBC
:102E900081464046019D4E46285805000800F540F1
:102EA0001F38C01728400125284207D165462D014B
:102EB000F0082E003C30604D80004651002C00D1BF
:102EC0008CE0180020408446100B234211D08C1C4B
:102ED000A1464446019D4E462C5925000C00F54064
:102EE0001E3CE4172C4001252C4200D181E0002833
:102EF00074D01C000440A446140C034210D0C81C1B
:102F000081464046019D4E46285805000800F54080
:102F10001D38C01728400125284273D0002C5DD0F1
:102F2000180020408146100D23420ED00C1DA446EF
:102F30004546404C64596546EC4025000C001C3C5D
:102F4000E40F2C4267D0002848D01C000440A4465F
:102F5000140E034217D0481D814645463548405956
:102F60004D46E840050008001B38C00F284208D134
:102F7000654648462D052E00C0082F4D3C30800088
:102F80004651002C2AD0180020408446120F2342BC
:102F900029D0454627488C1D82464059E04005000F
:102FA00008001A38C00F284206D1E0086446224DB6
:102FB0003C302406800044510731002A0ED0504690
:102FC000444604590800CC402038C00F204205D1A7
:102FD000C90819483C31120789000A50202F00D136
:102FE00019E7390021E7002AF8D012480731824654
:102FF000E5E765462D02F4082E003C340E4DA40092
:10300000665174E765462D03F0082E003C300A4DEA
:103010008000465182E74D4664462D042E00E408A8
:10302000054D3C34A40066518DE7C046383A002077
:1030300030410140045800200040014010B54024B8
:10304000074A83009A181268C0005440C0222240E8
:10305000044C1B191A60044BC018416010BDC046D7
:1030600004C0014004D0014000400140D0231B06B1
:103070001B6810B514005A4253412F225B42934300
:103080000D4A9B18C20894460722104062468000F1
:1030900081403C32094892001150604680001B1864
:1030A000002C04D0802292019B18196010BDC02210
:1030B00092019B181960F9E730410140004001403E
:1030C000F0B54F464646D646C0B5D0273F0688469F
:1030D0009A4619003B68224E9D00914672590400A1
:1030E000002A2DD0002935D0524672515A42534100
:1030F0002F225B4293431B4A40469B1807222240E3
:1031000092009040E1080200080089005B184946DF
:10311000154C3C308000025100290CD080218901DF
:103120005B180D2001211A6000F02EF9E0BCBA46B0
:10313000B146A846F0BDC02189015B181A60F5E7C9
:103140000029D3D0715100220D20084900F064F904
:103150003B68CBE70D20054900F044FA3B68C3E724
:10316000383A002030410140004001407D2D0010E0
:103170000123D0228340120693629361084A8300A0
:103180009A1811684022514080320A400549C00017
:103190005B181A60044BC018052343607047C04693
:1031A00004C0014004D00140004001408023DB0501
:1031B0001868000F7047C0460FB400B5084883B0C8
:1031C00003F05EFF049B002B07D005A918000191B6
:1031D00003F0C0FD034803F053FF012003F0D2FDCC
:1031E000A8AD0010B8AD0010EFF3108072B6034A1E
:1031F0001368002BFCD0BFF35F8F70472C0100D009
:10320000BFF35F8F0022024B1A6080F31088704773
:103210002C0100D070B58C461600EFF3108472B606
:103220000F490B68002BFCD0BFF35F8F6346DB08B0
:10323000C5180722C05C63461A40012393401A0058
:103240000240034207D118432870BFF35F8F0A6022
:1032500084F3108870BD61463000FFF7ADFFC046B3
:103260002C0100D0F8B5CE4647468C4680B51C00F0
:10327000EFF3108872B61C490B68002BFCD0BFF32B
:103280005F8FA24221D80723994602E0013294427F
:1032900018D34946012611408E40D308C718C35C95
:1032A0001E42F3D1100033433B70BFF35F8F002207
:1032B0000D4B1A6088F3108800280EDBC0BCB9469D
:1032C000B046F8BD01204042EFE7BFF35F8F002317
:1032D0000B6088F31088012040426346002BEDD03C
:1032E0000898FFF769FFC0462C0100D0044A107807
:1032F000431CDBB2172B00D9102313707047C04654
:10330000A90F002000B5054B83B0010000931822DF
:103310001F230348FFF7A6FF03B000BDBCAD00109C
:10332000644A00200021044B044ABFF35F8F02C3AC
:103330009342FAD17047C046000100D0800100D00E
:10334000084B094A1360094A1360094A1360094A85
:103350001360094A1360094A1360094A1360094A55
:10336000136070478080808000E400E004E400E0A7
:1033700008E400E00CE400E010E400E014E400E005
:1033800018E400E01CE400E01F2318401E3B8340CB
:10339000002905D0C021044A4900535013607047EA
:1033A000802201498B50FAE700E100E001228240CF
:1033B000034B1B6813405A1E9341D8B27047C04656
:1033C00000E100E070B50D00EFF3108672B60F4A11
:1033D0001368002BFCD0BFF35F8F0D4B10309B6840
:1033E00084001B590B4A934203D09D4201D001F047
:1033F000B3F8074B9B681D51BFF35F8FBFF35F8F1F
:103400000022024B1A6086F3108870BD240100D0A0
:1034100000ED00E0C1010010F0B5DE4657464E4613
:103420004546E0B5824683B08B461700EFF310881F
:1034300072B6604A1368002BFCD0BFF35F8F002583
:103440005D4B5D579946002D00DA9AE04A466B00C5
:103450005A4C5E19B6000193A31900939B7913701F
:10346000574B9A68534610339B00D15899460B1B13
:103470002F2B32D9534B994200D098E0019B023652
:10348000ED18514BAD006353504BA619043B9B1BE9
:103490004F4A1B055B0D651913436B804D4B012192
:1034A000AB80FF23AB715B46AB60009BEF710B43BE
:1034B00019004A46424B9B689950BFF35F8FBFF398
:1034C0005F8F00223B4B1A6088F3108803B0F0BC7A
:1034D000BB46B246A946A046F0BD01200A00824381
:1034E000D379B446BB422DD83B4BB51C1900130011
:1034F0001B1B5B415943090D8C46334B6519A35384
:10350000324B0099043B5B1B1B05314D5B0D2B437C
:1035100004364B80A619131F9B1B1B055B0D1D4317
:1035200063468B715B468B602C4B8D80CF71136033
:103530000143BEE75800C01880002018C679BE427B
:1035400025D902000623D356002BF3DA9A46131D21
:103550009C4623486346009E9571043EF61A360544
:103560001B4B760D1E43019B96805A1953469200C1
:10357000A418A3715B46194AA0802260E771A3607A
:1035800097E700F0E9FF00254B465D575EE766468A
:103590009A46131D9C469088043640050015A619CE
:1035A0006044801B00050A4E400D3043D2E700F016
:1035B000D3FF63E7240100D071F00020AC0F00209E
:1035C00000ED00E0C101001000A1FFFFDC0F0020B2
:1035D00000E0FFFF01BDFFFFAAAA000001488047ED
:1035E00001BD0000F0B54546DE4657464E46E0B503
:1035F0000D0083B0EFF3108872B6604A1368002B99
:10360000FCD0BFF35F8F5E4B5E499A6803001033B6
:103610009F00D45999468C423ED0AC424FD05A4E6E
:10362000A21B2F2A38D8594B1A689C461300012236
:10363000824013401F22024001209A469040634678
:10364000802283469850BFF35F8FEFF30583019389
:10365000002B36D0994501D000F07EFF01232200D7
:103660009A439068854208D176E04B005B189B0036
:10367000F3189868854236D01A0006215156002961
:10368000F3DA854254D05346002B27D0C022594646
:103690003E4B520099501960394B9B68DC51BFF387
:1036A0005F8FBFF35F8F0022344B1A6088F310885E
:1036B00003B0F0BCBB46B246A946A046F0BD0C0024
:1036C000EAE7220001339A4390688542D5D106206B
:1036D0001056130000280ADA0C0031E08023594606
:1036E0002A4AD150D8E706201856002821DB42008C
:1036F0001118890075188946A9689960E979D97106
:10370000062169569971002924DBAD88F11A6D05EF
:103710002D154D44491909051D4D490D2943998021
:1037200013181C4A9B001178F31899711070AAE7BE
:1037300013000199002914D1FF319171164991802C
:1037400014490A789A71154A9B1B5B415A43120D22
:103750000A7098E71049E2E7062010561300002887
:10376000C5DA0F4A0F49D21A083A5002400D0143F8
:1037700099800D4952080A43DA8084E7240100D079
:1037800000ED00E0C1010010AC0F002000E100E0FE
:1037900000E0FFFF71F0002001BDFFFFAAAA0000BA
:1037A000E60F002000F0FFFF00F8FFFF01230343B6
:1037B00070B59C46EFF30581EFF3108572B6214A90
:1037C0001368002BFCD0BFF35F8F1F4B04001F4A10
:1037D000E41A64416243120D1D4C8900A66852B27E
:1037E000765866451CD00621595691421CD01221AC
:1037F0005956914222D01E215956914220D02A2159
:1038000059560324914210D0124B19781A708171C5
:10381000BFF35F8F00220B4B1A6085F3108870BDD9
:10382000A3680D4C5C50EFE7002461000919890082
:103830005B18FF21997109499980E5E70124F4E7B4
:103840000224F2E7240100D0AC0F0020AAAA000055
:1038500000ED00E071F00020C101001001BDFFFF8C
:10386000024BC918890001607047C046400000340F
:1038700070B5114C114DAC420FD2FF262368002BBE
:103880000CD0FFF733FD01002000FFF7E9FFA68011
:10389000BFF35F8F0834AC42F0D370BDFFF726FD55
:1038A00001002000FFF7DCFF2671BFF35F8F0834B3
:1038B000AC42E3D3F1E7C046681000207810002046
:1038C00010B50400FFF712FD01002000FFF7C8FF4C
:1038D000FF232371BFF35F8F10BDC04610B50400F6
:1038E0000120FFF70FFD034BC01880002060BFF3DD
:1038F0005F8F10BD400000340A4B1968EFF3108051
:1039000072B60A68002AFCD0BFF35F8F1B68BFF352
:103910005F8F00221A6080F3108840BF00200021D2
:103920007047C04630640020F0B5DE4657464E462C
:103930004546E0B585B0EFF3058303221A40B34B4B
:1039400091005F58012393409B4602925A46884655
:10395000AF4B1A60AF4B03935B46AF4843630823FA
:10396000FE5E002E37DABB881BB2002B00DBA4E022
:10397000BB79002B00D0E5E00823F95E002920DBAD
:103980004B007A695B18DB00D3189D68DC686B1C00
:1039900000D104E1A04801004144826A0B69AE1ADB
:1039A0009B1A9E4215D30123026A029883401A4251
:1039B0000FD0994800F0BAFB8C4202DCCCD1854292
:1039C000CAD940BF05B0F0BCBB46B246A946A04626
:1039D000F0BD0D61EDE77A69730091469B19DB003C
:1039E00099444B469C68DD6800F0A0FB8D42BADC30
:1039F00000D1F6E0002D00DADBE04A464B46526982
:103A00001B699246039A934200D1CCE04A460821B2
:103A1000785E528800045146104398470090019107
:103A20000099019A0B00134300D1C2E013000A0071
:103A3000002B00DBD9E020002900801A99414B4679
:103A40009860D96000229B5E002B00DA8BE75D0056
:103A50007C69EA18D200A21800949468D268A24641
:103A60008A4200DD7FE702D1844200D97BE7082447
:103A7000A4463B81BC44009C00972F006546B44699
:103A80003E0006E05E00F218D200A2189768D268E5
:103A9000BA468A4207DC00D1B4E0F318DB00E5182F
:103AA000E35E002BEEDA66464A46009F13802E80C6
:103AB000BB881BB2002B00DA5AE73A69EFF310819A
:103AC00072B61368002BFCD0BFF35F8F0123BE8852
:103AD0005B42BB8036B23B69BFF35F8F00221A6046
:103AE00081F31088002E00DA42E73B0008333A00E9
:103AF00099467D6973009B190824115FDB004846D5
:103B0000EB18002913DB9C680093A446DC6806E0F0
:103B1000A34240D00023F95E3800002906DB4F00A5
:103B20007F18FF00EF19FB68A342F1DD009B0680C0
:103B300000201E5E1980002EDCDA1700BB79002BF6
:103B400000D119E70023BB710823F95E4B1C00D19B
:103B500037E73D000835AC467C6903E084464B1CE2
:103B600000D109E74B005B18DB00E0180A00E15EBA
:103B700043881BB2002BF1DA01256D42EE178560F8
:103B8000C66008257B5F9342E9D0634619803B8974
:103B900003803A81E3E7BB686345BBD9C6E7631C92
:103BA00000D0F7E605E7534650461B6998470028C2
:103BB00023D14B461B883A693B81EFF3108372B6E1
:103BC00011680029FCD0BFF35F8F49467A880A80CC
:103BD0003A697E80BFF35F8F0021116083F3108804
:103BE000C1E6844200D805E7BDE60B4800F09EFA26
:103BF000009B019CC018614121E753460CCB009209
:103C000001930DE7824500D847E74CE7F0570020C5
:103C10003C700540293900100040054070B52D4C1E
:103C20002569002D04D00A212B48FFF719FE70BD2D
:103C30002A4E0321294800F06FFAE660FFF756FB91
:103C4000274B0322C018D02322701B061B680121BA
:103C50006370244B8000A3600F23206102206380E7
:103C600063694942A18019800231198647311D8359
:103C7000585218315A5275325C3999521832013102
:103C8000995218320131995218320131995208353E
:103C900018329D520231183299521832013199521C
:103CA00018320131995218320131995218320131CA
:103CB00099521832013199520B4B0C49DC6001309A
:103CC0003562FFF77FFB01210320FFF75DFB084B07
:103CD0001D60A8E7F40F002030640020004005407C
:103CE00040000034FFFF1000F05700202939001079
:103CF0003860054000487047F40F002070B582B06E
:103D00000092019301000269EFF3108472B6136808
:103D1000002BFCD0BFF35F8F0223C85E0D69002823
:103D20003FDB4A69430016001B18DB00D218F35A28
:103D30004B80BFF35F8F00232B6084F31088069BBA
:103D40001361079B5361009B019C9360D46053886F
:103D500001335B045B0C1D1C002B20D0ACB20304B0
:103D6000558023430D69EFF3108C72B62C68002C3C
:103D7000FCD0BFF35F8F8C88148088800A69BFF302
:103D80005F8F002010608CF310880A78013090401B
:103D9000CA68084952181060180002B070BD0125A9
:103DA000DCE7BFF35F8F00232B6084F31088013BB7
:103DB000F2E7C0463C20000010B543890A14934244
:103DC0001ADD53009B184269DB00D3180469EFF336
:103DD000108C72B62268002AFCD0BFF35F8F5A881D
:103DE000090494B2090C8A4208D00369BFF35F8FBB
:103DF00000221A608CF31088002010BD094A22436B
:103E00005A80012302698371BFF35F8F0021116023
:103E10008CF31088027804499340C268012052183C
:103E20001360EAE70080FFFF3C2000004078704705
:103E3000F0B5C64600B582B004000D0000F07EF972
:103E400024184D41002D02DA01242F4D644206262C
:103E50007642F71736196F41AF4214D811D000F0EF
:103E60006DF932003B00121A8B41002B15DC002B40
:103E700046D02000290000F06BF902B080BCB846A3
:103E8000F0BDA642EBD90026002700F057F932001A
:103E90003B00121A8B41002BE9DD00F04FF9320094
:103EA0003B00121A8B41002B0ADB00230193174BB6
:103EB0003200009316483B00FFF720FF0130D8D0B6
:103EC00000233900B0469C46124A1348536A99426F
:103ED00004D8966A4645CCD29942CAD10668EFF317
:103EE000108772B63368002BFCD0BFF35F8F036876
:103EF000BFF35F8F66461E6087F3108820BFE5E73B
:103F0000002AB6D0C9E7C046FFFFFF7FF93800108E
:103F1000F40F00200040054030640020F0B5C64694
:103F200000B582B0040000F009F9FA2206000F0083
:103F3000200000230021920001F09AFA80197941B3
:103F400004000D1E02DA01242E4D6442062676423C
:103F5000F71736196F41AF4214D811D000F0EEF8C0
:103F600032003B00121A8B41002B15DC002B46D08F
:103F70002000290000F0ECF802B080BCB846F0BD8B
:103F8000A642EBD90026002700F0D8F832003B000B
:103F9000121A8B41002BE9DD00F0D0F832003B0013
:103FA000121A8B41002B0ADB00230193164B3200BF
:103FB000009316483B00FFF7A1FE0130D8D0002344
:103FC0003900B0469C46124A1248536A994204D8B6
:103FD000966A4645CCD29942CAD10668EFF310875B
:103FE00072B63368002BFCD0BFF35F8F0368BFF35A
:103FF0005F8F66461E6087F3108820BFE5E7002AC2
:10400000B6D0C9E7FFFFFF7FF9380010F40F00209A
:104010000040054030640020F0B5CE46474680B5EC
:1040200004000D0085B0EFF305868946002E10D000
:10403000364900204B6AAB4206D38A6A5B1B591E85
:104040008B41A2424041184305B0C0BCB946B046BE
:10405000F0BD2F4FFB683A7898461800039200F0A5
:1040600065F8039A131D42469B009B5822001B1AB9
:104070009C462B00121A8B419E4210DC0DD020BFB3
:10408000224A0020536A4B45DED3926A5B1B591EBD
:104090008B41A24240411843D6E79445EFD900F046
:1040A0004DF822002B00121A8B41002B1BDB002342
:1040B0000193184B2200009338002B00FFF71EFEDF
:1040C000002810DD114B5A6A4A451CD39B6AA34253
:1040D00017D301003800FFF76FFE0C4A0020536A27
:1040E0004B45B1D3D1E7094A0020536A4B45ABD3C6
:1040F0000020926A5B1BA24240415A1E9341184322
:10410000A2E74A45E5D120BFE3E7C04600400540AD
:10411000F40F0020F938001010B5024A0248FFF7EA
:1041200079F810BDD8AD0010684A00200300416A3C
:104130000A00986A596A8A42FAD17047034B596A51
:104140000A00986A596A9142FAD1704700400540C6
:10415000064A536A9942FCD807D1044B02E05A6AD6
:10416000914202D19A6A9042F9D8704700400540C6
:10417000F8B5DE464E4645465746E0B505008B4647
:1041800018000A99914600F04FFB0A9B6C001E0232
:104190006419304BA400E418636880469E4200D93D
:1041A00066602F1FFBB29A46012B2FD9C0238022B5
:1041B000294FAD009B0179591201E3181A600029BB
:1041C0001BD14B4622685B015340E0221340802202
:1041D0005201A21813605346012B2FD9802380224D
:1041E0009B01E31812011A60434666607B51F0BCE4
:1041F000BB46B246A946A046F8BD786900F014FB5C
:10420000013043001B18033BFDD2DAE75B46012B6C
:10421000CCD1C02303229B01E3181A60023AA368A1
:104220001A42FCD04A46236852015A40E023134008
:1042300080225201A218084F1360AD005846032394
:10424000216841400B40136001228240A3681A425A
:10425000FCD0C3E700800040704A0020F0B5D6468D
:104260004F464646440098462418324BA400E418B2
:1042700063688A469146C0B5FF2B02D880235B0055
:104280006360061FF6B2012E2FD9C02380222A4F69
:1042900085009B0179591201E3181A6000291BD18E
:1042A0004B4622685B015340E022134080225201BA
:1042B000A2181360012E30D9802380229B01E318BD
:1042C00012011A6080235B00636043467B51E0BCAF
:1042D000BA46B146A846F0BD786900F0A5FA0130AB
:1042E00043001B18033BFDD2DAE75346012BCCD128
:1042F000C02303229B01E3181A60023AA3681A4202
:10430000FCD04A46236852015A40E02313408022E1
:104310005201A218084F13608500504603232168FC
:1043200041400B40136001228240A3681A42FCD036
:10433000C2E7C04600800040704A0020014B800068
:10434000C0587047704A0020F0B5C646040000B55A
:104350002348160098460D0000F066FA0100300070
:1043600000F062FA4346069A1B04120313439C466C
:1043700023680600002B22DB1A4B1B48E218531E51
:104380009A4180235242120B9B011203D218174B01
:104390001A60174B1A60130001688B43FBD121226E
:1043A000144B2560E318A6601A602268002AFCDA24
:1043B0006246E26008221A6080BCB846F0BD3F2326
:1043C00022681340AB42D7D1A3681B051B0D834263
:1043D000D2D1EE22E368D20213406345CCD1EBE7A1
:1043E000001BB7000040FDBF08C0004000E00040D7
:1043F00000F000400430000010B580241C4BE405A0
:104400001C6000281AD001231A4C18431A4BDC6197
:104410001A4C44401C62596298628021144BC905B1
:104420001960174817490860E021C9041960002A7B
:1044300007D18022144B12061A6010BD0E4BD861B2
:10444000EBE753019B1A9B009A18802312015B042F
:104450009A4209D213000D490B60074B5A60802223
:10446000094BD2051A60E8E7094B1A00F3E7C0468A
:1044700000B00540D3C007B0008005402D3FF84F85
:10448000FCFF01000820014000A005402856002044
:10449000FFFFFF008023024A9B000B43D36270475B
:1044A00000800540002310B50100988A1B8B9847B7
:1044B00010BDC046162310B5010018885B889847C8
:1044C00010BDC046F8B54746CE4680B50F1E18D081
:1044D00014239946043304000025012698464B46D0
:1044E0001888434621681B88984701C4431E984199
:1044F00001350640AF42F2D13000C0BCB946B046EB
:10450000F8BD0126F8E7C046002370B504000D0091
:10451000988A05491B8B984703000020002C01DB7B
:104520000130A0402900984755420000AA23064ABE
:104530001B0113608D235B00D3600449044B196099
:104540005368002BFCDA70470040024000B0FA00CC
:10455000006002407047C04610B50148FEF72CFECF
:10456000FCAD001070B5074D074EB54209D20024CE
:10457000013E761BB608013608CD01349847B44297
:10458000FAD170BD20A500105CA5001070B5074DD4
:10459000074EB54209D20024013E761BB60801360B
:1045A00008CD01349847B442FAD170BD54A500102B
:1045B0005CA50010054B064A06491A60064A074BDF
:1045C0001A6010000B689843FBD1704700E0004070
:1045D000BFCDFBFE08C00040FE7F3C0000F0004065
:1045E000044BDB6C002B03D18022034BD2021A60F8
:1045F0007047C046000011504C201150044A054B32
:104600001A60054A1368DB018033FBD17047C0464E
:10461000FFFFFF0100F0004008C000404022034BB4
:104620009A675A671A67DA667047C04600F0014019
:1046300010B5FEF777FE10BD70B52849284D294EFC
:104640006D1AAC102200302C00D9302230009200BC
:1046500000F0D2FFBC2D3DD823002A3B224A052B77
:104660001DD9302075196D07A446001BEB0F002DD6
:1046700003DA611C8C46A1007250C01AE3189B003B
:104680004108F318C900C9181A605A6008339942E2
:10469000FAD1012303421DD0984360440400A300D3
:1046A000F250631C2F2C15D09B00F250A31C2E2C13
:1046B00010D09B00F250E31C2D2C0BD09B00F2502D
:1046C000231D2C2C06D09B00F250631D2B2C01D0F7
:1046D0009B00F250054B9E6070BDC046000100106B
:1046E000C001001000000020C101001000ED00E03A
:1046F000002310B5294C82B0A367FFF717FF0122F2
:10470000274B1A60636C012BFCD10322254B1A60E6
:10471000224A936B012BFCD1013300930121224AE1
:1047200022480433FFF710FE052301210093204A9D
:104730002048FFF709FE0022022104201E4BFFF74C
:104740008DFD0022012105201C4BFFF787FD002273
:10475000002107201A4BFFF781FD002200210820CD
:10476000174BFFF77BFD8023DB0000930022002125
:104770000920134BFFF7FCFC0022104B0021062000
:10478000FFF76CFD0420FFF7D9FD0E4900F04CF84F
:1047900001000020FFF77EFE02B010BD0080004047
:1047A0003CB0004030B00040002F6859008002400B
:1047B000008C864700C00240001BB70040597307B9
:1047C000006CDC0240420F0001480421014B1847F5
:1047D00010100020C5440010124A936F9B0815D298
:1047E0009066D166002905D0FFE7FFE7FFE7516F2C
:1047F000106F704704B580210906C2175140002888
:1048000000D0C84305F064FE002104BDF0B5146E6D
:10481000556E576F166FFFF7E3FF146655665767BF
:104820001667F0BD000000D0114A936F9B0813D2A9
:1048300010665166002905D0FFE7FFE7FFE7516FDB
:10484000106F704704B5002801D00020C04305F068
:104850003FFE002104BDC046F0B5146E556E576F83
:10486000166FFFF7E5FF1466556657671667F0BDCC
:10487000000000D094464A4A926F9208624601D2E4
:1048800028E0C046F0B5464E346E756E776F366FD1
:1048900000F020F89446424A14665566576716673A
:1048A0006246F0BD94463E4A926F9208624601D23B
:1048B00054E0C046F0B53A4E346E756E776F366F81
:1048C00000F04CF89446364A1466556657671667EA
:1048D0006246F0BD002B24DB11D000293EDA00B582
:1048E000C943404200D1013100F038F8C943404289
:1048F00000D10131DB43524200D1013300BD002A17
:10490000EBD1002801D1002905D00020C90FC9072B
:1049100001D1C043410800B505F0CAFD00220023C3
:1049200000BD00B500290ADBDB43524200D1013350
:1049300000F014F8C943404200D1013100BDC94321
:10494000404200D10131DB43524200D1013300F03B
:1049500005F8DB43524200D1013300BD002923D1C9
:10496000002B18D1002A0CD0BC460D4F38667A6651
:1049700000210023FFE7FFE7FFE77A6F386F674604
:104980007047002801D00748010000B505F090FDF0
:104990000022002300BD02000B0000200021704710
:1049A000000000D0FFFFFFFF002B00D0BFE0130C82
:1049B00028D1002AE7D080B4114F39667A66FFE724
:1049C000FFE730B4040C7B6F396F1B0423433B6655
:1049D0007A66FFE7FFE7FFE7C04684B27B6F3D6F73
:1049E0001B0423433B667A66FFE7FFE7C0460023CC
:1049F0002C042D0C7A6F386F00196941B0BC7047D8
:104A0000000000D0F0B594460025140E01D112022A
:104A10000835140F01D112010435940F01D1920011
:104A20000235D40F01D152000135D40B0134254F8A
:104A30007C66254C3C660E0C93B2FFE7FFE7FFE770
:104A40003C6F6643360C7703BE467343DF0B5B0453
:104A5000C01AB941130C7343DB18C91ACE08664358
:104A6000360CB64493B273431F0F1B01C01AB941F1
:104A7000130C73431F0B1B05C01AB941860D8F021F
:104A80003E436643360C092D24DB520A7243801ADA
:104A90007703460A6643360C16235B1BDE40DF4075
:104AA000BF1964466643821B704604350633010015
:104AB000D940A840C01900D30131A24206D2002338
:104AC000F0BD0000000000D0FFFFFFFF121B01300F
:104AD000F3D3F1E709277F1BFE406446A2B272437D
:104AE000801A00D20139220C7243130C1204821A6C
:104AF00099410B007046043513370100F940A84076
:104B0000801900D30131002B02D1A2420AD2F0BD9C
:104B1000013000D30131121BFAD2013BF8D1A2427D
:104B200000D2F0BD013000D30131121BF7E7F0B520
:104B30001C0C00D080E00CB400251C0A04D11B0220
:104B4000160E3343120208351C0B04D11B01160F3D
:104B50003343120104359C0B04D19B00960F334361
:104B600092000235DC0B02D192185B4101351C002A
:104B7000971864410134464F7C66464C3C660E0CE7
:104B8000FFE7FFE7FFE7C0463C6F6643360C77035D
:104B9000BE4697B27743C01B00D20139C01B00D27A
:104BA00001399FB27743C91BC91B170C77437E0499
:104BB000FF0B801BB941CE086643360C0C2D33DB4E
:104BC000B644120B1F053A431B0B97B27743C01B29
:104BD00000D201399FB27743C91B170C77433E04BB
:104BE0003F0C801BB941860D8F023E436643292747
:104BF0007F1BFE400C3D7746AF40BF1930BCA2B2D0
:104C0000ABB272437343801A9941220C7243130C66
:104C10001204801A994102000B000137001BA941C0
:104C2000F9D2781E0021F0BD0C277F1BFE4077468D
:104C30007F0BAF40FF19E0E700245D1C07D0144F45
:104C40007D663966FFE7FFE7FFE7FFE73C6F95B258
:104C50009EB265436643401BB141150C1E0C654373
:104C6000664336042F0C3E432D04401BB14199424C
:104C700004D202000B0020000021F0BD01D19042BF
:104C8000F7D3801A994101349942F2D3F6E7000034
:104C9000000000D0FFFFFFFF48404140484018B4EB
:104CA0001B4B5B68FC46019308BD04DF434F0010BB
:104CB00018B4174B1B68FC46019308BD00DF4D4F2D
:104CC00000109446134A926F920809D2624618B4B3
:104CD0000F4BDB68FC46019308BD0CDF055200104A
:104CE0000C4AF0B5146E556E576F166F6246FFF79B
:104CF000EEFF084A1466556657671667F0BD18B48C
:104D0000034B9B68FC46019308BD08DFA9500010C7
:104D1000202D0020000000D0FFB550404240504000
:104D200059404B40594000E0FFB5154F4C00640D11
:104D300003D0BC4204D10C0314D80020090D09058E
:104D40005C00640D03D0BC4204D11C030AD80022CD
:104D50001B0D1B0501264B4009D44B4003D58B424C
:104D600000D18242FFBD9942FCD19042FFBD0B436E
:104D7000DB1803431343F5D0C9434918FFBD0000B6
:104D8000FF07000000B5FFF7CFFF804100BDC04620
:104D900000B5FFF7C9FF01D9002000BD012000BD0B
:104DA00000B5FFF7B9FF01D9002000BD012000BD0B
:104DB00000B5FFF7B1FF804100BD012040054A006A
:104DC000121804D85A00121801D800207047012088
:104DD000704700000021002805D17047C1174840E6
:104DE000401AFAD0C90713B5064B1B6898470CBC8C
:104DF000441CA2401005120B0349091B0905194365
:104E0000114310BD2C5800201F04000010B54C00A9
:104E1000620D8023D218DB00D21A5B057E2A10DDDA
:104E20009E3A13DACC170903490819435242D1407C
:104E3000640001341532202A05DAD040084360436B
:104E400010BD002010BD0846604310BDC80FC0183B
:104E5000013810BD18B4044B5B6AFC46019308BDD1
:104E600024DFB55300100000202D0020132370B55F
:104E70001D78012D19D014DD1F48FFF71BFB06001C
:104E80001E48FFF717FB1E4C80223100200000F067
:104E9000B3FB022D2DD01B48FFF704FB1A4B186003
:104EA00070BD1A4B164CA364F5E7184B144C2360E5
:104EB0006360A360E36023616361A361E3612362D4
:104EC0006362A362E36223636363A363E3632364B4
:104ED0006364A364E36423656365A365E365236694
:104EE0006366A366E36623676367A367E367A364F8
:104EF000D1E7064BA364CEE75344000053460000BD
:104F0000202D00204C3300002C580020114F0010A1
:104F100007B5604601880A0A0230DF2AFAD1C9B211
:104F2000820804D3028840880004104300E000682F
:104F3000014A5050039007BD202D00200FB403BC40
:104F40000CBCF0B50124E407634000E0F0B50C0DA3
:104F5000CF0F661E3605891B640503D3C943404243
:104F600000D30131640D03D0661CF60A07D0E41BA0
:104F700000207F00791C89078912803C24031D0DC5
:104F8000DF0F6E1E36059B1B6D0503D3DB435242BC
:104F900000D301336D0D03D06E1CF60A07D0ED1B54
:104FA00000227F007B1C9B079B12803D2D032F1B43
:104FB000661B58D4A446202E46DA20371400BC4085
:104FC0001D00BD40F24033412A4380185941CB0FA8
:104FD00005D0C943C043002264425041514162465A
:104FE0004D0D28D10D0D07D100281FD024194041A7
:104FF0004941013A0D0DF9D0640006D3013000D3C8
:105000000131002C01D140084000013A0BD4941C1E
:10501000E40A04D112051144DB071944F0BDD90795
:10502000204B194300E0D9070020F0BD0029DDD155
:10503000002CDBD1F0BD0132C6074008CD07284364
:105040004908002EE1D0D9E73C2E29DA203E40372E
:105050001400BC4000D00124F24014431A00BB40AD
:105060001C43D317ACE7AC46202F08DA20360400E7
:10507000B4400D00B540F84039412843A5E73C2F26
:105080000CDA203F40360400B44000D00124F84040
:1050900004430800B1400C43C117EAE710001900AF
:1050A000002494E70000F07FF0B50C0D661E360575
:1050B000891BE60A6405640D02D0651CED0A04D064
:1050C000002001210905803C2403A4461C0D671E15
:1050D0003F05DB1BE70A6405640D02D0651CED0A81
:1050E00004D0002201231B05803C24037740644444
:1050F00097B484B296B27443070C7E43150C6F4389
:1051000080B26843361802D3012000043F183004EF
:10511000350C00197D41844688B29AB250430C0C7C
:1051200062431F0C7C438EB27E43921902D3012648
:105130003604A4191604170C3618674101BC81B255
:105140009AB25143040C62431B0C5C4380B2584337
:10515000121802D30120000424181004130C401864
:1051600063412D185E410020474106BC88B293B2CE
:1051700058430C0C6343120C544389B251435B18DF
:1051800002D301210904641819041A0C0918624198
:105190006D1856410020474118BCF902720D1143A9
:1051A000F0026A0D1043ED020A0D03D16D19404162
:1051B0004941013B124E9B1B7600B3420ED26D005B
:1051C00007D30130002671416646354301D14008BE
:1051D00040001B05C918E4072144F0BD0BDA013378
:1051E00006D1013004D101314F0D01D04908F2E759
:1051F000E1070020F0BD013631050020EBE700009B
:10520000FF030000F0B51C0D671E3F05DB1BE70A1E
:105210006405640D02D0661CF60A04D00022012346
:105220001B05803C2403D0252D060026F6432E6660
:105230001E096E66CE0FF619B44649004F0D02D016
:105240007E1CF60A03D000200021403F3F033E1B96
:10525000B600B444013F7F05C91B49082E6F0136D3
:1052600076089C02950D25437543ED137543AD13E8
:1052700001356D10F603761B0CB4CC02450D2C43A2
:10528000A2B2B3B25A43270C7B43350C6F43A4B28E
:105290006C431B1902D3012424043F191C041D0C68
:1052A000A4187D4124196D41009A91B2ACB26143BA
:1052B000170C7C432B0C5F4392B25A43A41802D3C1
:1052C00001221204BF182204230C52187B41019CB6
:1052D0006C431B19520ED9010A434401A01A81B232
:1052E000B2B2514303145A43360C734387B2774327
:1052F000D617D21900277E4136049B191704160CC5
:105300007F185E417316ED18F30100268033754156
:10531000A90F06D16400690AE8055B0A184309D29F
:105320002FE00422944480337541A90AA8059B0A02
:10533000184326D3404149412404009A019B0D00A3
:105340005543641B4343E41A95B286B27543170C68
:105350007E43030C5F4392B25A43B61802D3012234
:105360001204BF183204330C52197B4152429C4143
:10537000002C02D40022013051414008CA071043DA
:10538000490802B06246D7079210084BD218084B62
:105390009A4203D212058918C919F0BD0020002ACB
:1053A00001DC3900F0BD01331905F5E7FD0300000C
:1053B000FE070000002200B5203200F004F80800CB
:1053C00000BD000000220B150AD410B5944600F071
:1053D00031F81414013400DA0021CB17144C2047A3
:1053E0000020002170476244343A0CD40C2A07DABA
:1053F00004009140904052422032D440214310BDDD
:10540000D843D94310BD203207D40C4694405242B1
:1054100020321141D040204310BD0800C91720326E
:1054200003D452422032104110BD1800190010BDA3
:10543000E75300100A0DCC0F531E1B05C91A520565
:1054400003D3C943404200D30131520D03D0531C52
:10545000DB0A07D0121B00206400611C8907891237
:10546000803A1203014BD21A70470000FF0300007C
:1054700051434343C9188C46110C83B24B4310B4BB
:10548000040C614392B280B2504362431C041B0C73
:10549000001910BC59411304120CC0185141614449
:1054A000704700004840414048400E4B5B68184739
:1054B0000C4B1B6818470C4A936F9B0802D2094B90
:1054C000DB681847F0B5146E556E576F166FFFF70F
:1054D000F6FF054A1466556657671667F0BD014B1F
:1054E0009B681847202E0020000000D0491A002891
:1054F00008D1084670470000C10FC90700D54042D7
:10550000002817D0F44603B40B4B1B68984706BC21
:1055100081409E384042803107D20B0607D04900B7
:10552000490AC0051043084360470130F8E7490ABB
:105530008902F5E7704700002C580020014B5B6A98
:1055400018470000202E0020132310B51C781348A4
:10555000FEF7B0FF012C0BD004DD010080221048C3
:1055600000F04AF80F48FEF79DFF0F4B186010BD82
:105570000B4C01005422200000F03EF80B4B6365F9
:10558000A365E36523666366A366E36623676367D3
:10559000A367E3672362E361E4E7C0465346000084
:1055A000202E00204C3300002C580020B155001054
:1055B00007B5604601880A0A0230DF2AFAD1C9B26B
:1055C000820804D3028840880004104300E0006889
:1055D000014A5050039007BD202E002001480421AD
:1055E000014B184720100020C5440010014B1B68D8
:1055F0001847000020100020014B5B68184700008E
:10560000201000207047C046F8B5DE4657464E468B
:105610004546E0B599460D9B0700884693469B0793
:1056200028D00B9B002B3CD016000B9C0A9D3619F2
:10563000321B013C4B464146285DB847002CF7D150
:1056400035000D9B9B070ED55B46EC1A0C9BA342C5
:1056500009D91E002A004B46414620200134B84794
:105660000135B442F6D32800F0BCBB46B246A94689
:10567000A046F8BD0B9B0C9A934214D213005D46D2
:105680000C000B9A9E1A76192A004B460135210010
:105690002020B847B542F7D10B9BA046002BC4D1C0
:1056A000E1E71500CDE75E46002BBED15D46DAE7A7
:1056B000F0B54F46D6464646C0B584B09C460EABC4
:1056C0001F78129B9146BA460D9C109E119D9B0718
:1056D0004CD4002D41D1B44248D20123129F1F4027
:1056E000B8460C9B5F1E302303E001343B55A642B5
:1056F00001D9202CF9D14346002B00D187E00C9B27
:105700005F1E3023A54204D830E001343B55AC4243
:105710002CD0202CF9D1129BDB060DD5129B5B05FA
:1057200057D4A64267D0A54265D00F9B102B53D00B
:10573000022B5BD0202C36D12023129C01930C9B92
:105740004A460093039463460295FFF75DFF04B059
:10575000E0BCBA46B146A846F0BD0123129A1340F8
:105760009846012313422DD1B442BAD3129BDB06D3
:105770001ED5129B5B05D8D4002CD2D10F9B102BC9
:1057800060D00F9B022B71D0302301240C9A137030
:105790005346002B11D1129B5B0740D52B260C9A48
:1057A000631C1655C9E72300013430260C9AD654E1
:1057B000202CC1D05346002BEDD02D260C9A631C13
:1057C0001655BAE7002F34D0013DB44200D288E725
:1057D00095E70F9B102BAFD1129B9B063CD5202C3D
:1057E000AAD058230C9A13550134A3E7202CA3D038
:1057F0002300013407E0631E012CBFD00F9A102A4A
:1058000036D0022AD1D162260C9AD65492E7129B46
:10581000DB06CDD5129B5B0500D482E785E7129AA3
:105820002300160700D488E720260C9A013316556A
:1058300083E70C2313405F1EBB41ED1AB44200D234
:105840004FE75CE7129B9B060ED478230C9A022448
:105850001370302353709BE7202C00D16CE7782322
:105860000C9A1355013465E75823EFE76033EDE7F1
:105870000C9AA61EB618129A920602D558223270B9
:1058800093E77822327090E710B5002800D110BD60
:1058900001F0ACFBFBE7C04610B5002803D04A6816
:1058A0000B681100984710BDF0B54E46DE465746CE
:1058B0004546E0B595B083468946924698461E9A7D
:1058C0001F9B10001900209EFFF777FA002800D0D8
:1058D000D2E11E981F990122C44B5242FFF752FA9F
:1058E000002800D001E11E981F990122C04B5242AE
:1058F000FFF75EFA002800D0D6E01E981F9900221C
:10590000BC4BFFF755FA002800D0B5E01E981F9950
:105910000022B94BFFF736FA002800D0ACE01E9801
:105920001F9900220023FFF72DFA002800D0D1E0B4
:1059300000230B93229B5B0500D406260024302312
:1059400006E006AA013417321355013E202C01D07F
:10595000092EF6D81E981F99FFF758FAA74BF200A8
:105960009B180CCB050008920993FFF737FA020049
:105970000B001E981F99FFF792F9089A099BFFF7F1
:10598000BEF906900791FFF765FA0700FFF722FAC4
:1059900002000B0006980799FFF781F90022984B47
:1059A00006900791FFF704FA002800D1E9E00137DB
:1059B0003800FFF70FFA02000B0008980999FFF76B
:1059C000E7F9002801D000270135002E00D1B7E00B
:1059D000069513E0172306AA9B180A213800013404
:1059E0001D19FEF721FF3031297038000A21013ED0
:1059F000FEF71AFF092F00D8E1E00700202CE9D1BB
:105A0000069D20240CAB0693172706ABFF180DE06C
:105A100028000A21FEF7E0FE013430312800395514
:105A20000A21FEF7D9FE051E00D1B7E0202CEFD1E8
:105A30000323229A1340012B17D1219B002B14D052
:105A40000B9B002B00D1E3E0219B013B2193202BFA
:105A50000BD93023219A06E006A9013417310B55E2
:105A6000944200D3A0E0202CF6D1229B0194039312
:105A7000219B0293069B21E0229B52460493219B8B
:105A80004946039358461E9B1F9C0296009301941F
:105A9000434600F043F90400200015B0F0BCBB46BB
:105AA000B246A946A046F0BD229B5B070FD4032255
:105AB000544B2299019203912199029100935246ED
:105AC000434649465846FFF79FFD0400E4E7042299
:105AD0004D4BEEE71E9A1F9B00200021FFF7DFF8D9
