:020000041000EA
:1000000000B5324B212058609868022188439860DF
:10001000D860186158612E4B002199600221596106
:100020000121F02299502B49196001219960352056
:1000300000F044F80222904214D00621196600F024
:1000400034F8196E01211966002018661A6600F04E
:100050002CF8196E196E196E052000F02FF8012189
:100060000842F9D1002199601B49196000215960AB
:100070001A491B48016001219960EB211966A021F2
:10008000196600F012F800219960164914480160C1
:100090000121996001BC002800D000471248134993
:1000A000086003C880F30888084703B5996A0420EC
:1000B0000142FBD001200142F8D103BD02B5186610
:1000C0001866FFF7F2FF186E186E02BD00000240BE
:1000D000000000180000070000035F00212200005C
:1000E000F4000018222000A00001001008ED00E03C
:1000F00000000000000000000000000074B24E7A12
:1001000000200420F7010010CB010010CD010010E9
:10011000C9010010C9010010C9010010C901001077
:10012000C9010010C9010010C9010010CF01001061
:10013000C9010010C9010010D1010010D301001045
:10014000C1010010C1010010C1010010C101001067
:10015000C1010010C1010010C1010010C101001057
:10016000C1010010C1010010C1010010C101001047
:10017000C1010010C1010010C1010010C101001037
:10018000C1010010C1010010C1010010C101001027
:10019000C1010010C1010010C1010010C101001017
:1001A000C1010010C1010010C1010010C101001007
:1001B000C1010010C1010010C1010010C1010010F7
:1001C000EFF30580103800BE00BE00BE00BE00BECA
:1001D00000BE00BEF2EB887130C7001050C700109F
:1001E0003802001090A31AE71E481F49086006C88D
:1001F00081F3088810471D480068002801D019487D
:10020000F3E70DA40ECC002902D000F012F8F9E7B4
:100210001749184A002000E001C19142FCD116495B
:100220008847164988471649884700BEFDE701C937
:1002300001C29A42FBD3704750C70010C000002093
:100240007810002008D700100000042000000420CF
:1002500008D7001000100420001004200000000047
:10026000704700000000000008ED00E0000000D032
:100270007810002080F0002089760010D502001050
:1002800081760010F8B5C04606480749091A8B1058
:10029000C90FC91810B5491003D0044B002B00D06A
:1002A000984710BD78100020781000200000000052
:1002B000054B10B5002B03D00449054800E000BFF2
:1002C000FFF7E2FF10BDC0460000000034560020DA
:1002D0005CAE0010F0B5C646002100B5002009F064
:1002E000C3FF07F0FBFA192003F034FCD02380226F
:1002F0001B0692045A6204F09DFB0025394C241819
:100300004D41002D0BDA0124374D644207E00120F6
:100310000021404208F0FCF8012004F07BFA04F0D0
:1003200089FB22002B00121A8B41002BEFDC01D13C
:10033000002AECD12D4807F01FFB022002F032F911
:10034000002002F0BDFE0421032000F057F802F067
:10035000BDFE02F0C1FE02210200254807F08EFB1F
:10036000244807F009FB002504F064FB224C241804
:100370004D41002D02DA01241B4D64420023002769
:1003800098461D4E01200021404208F0C1F803F0BC
:1003900091F800F08FF804F04DFB22002B00121AA8
:1003A0008B41002BEEDC01D1002AEBD14246012328
:1003B0005A4090460FD0D02380221B0692045A61E7
:1003C00004F038FB8019794104000D1EDADA0124AB
:1003D000054D6442D6E7D02380221B0692049A6121
:1003E000EEE7C046404B4C00FFFFFF7F60AE0010C1
:1003F00074AE001090AE001090D003000023204A8D
:1004000070B513701F4A204C1370204A05001370FA
:100410001F4A216013601F4A136004F00BFB1E4B40
:100420001E4A9C4600238018594102000B1E02DA26
:1004300001221B4B524261460A604B6000200021A2
:100440000022184B03C3184B20681A6003F082FB8C
:100450000123226828009340D0221206936201F003
:10046000D1FA002001F094FB01F0D2FC29002268AF
:100470000E4807F003FB0E4807F07EFA70BDC04639
:1004800073F000207FF000205C51002077F0002006
:100490000058002050640020102D002040420F0022
:1004A000FFFFFF7F182D0020546400209CAE001039
:1004B000BCAE0010F0B5DE46454657464E46E0B5A8
:1004C00091B002F0B3FECA4B80469A46C94B08254C
:1004D0009B460AAC200001F0C5FC002800D19AE040
:1004E00042462369002A00D1EAE0012B00D8E7E068
:1004F00063787A2B00D1CAE0267804F09BFAFA22BE
:100500000023920004F04AFE02000F20304036091A
:100510000B0001900096B84807F0B0FA2369012B50
:1005200036D9212702ABFF18B44B012699463978FA
:10053000484607F0A3FA2369013601379E42F6D3F5
:10054000012B25D96378C52B00D9EBE1AC4A9B0080
:100550009958AC4807F092FA63787A2B00D1E9E118
:10056000002B00D004E22369032B11D9A278C52AFD
:1005700000D9E3E2A24B9100C958E678042E00D9D5
:10058000DAE2A14BB000C358A048009607F076FA13
:100590000A2007F0A7F92369012B38D966787A2E4B
:1005A00068D02778722E47D07E2E45D03B072ED1BB
:1005B000012342465340DBB23F09C52E00D989E0F2
:1005C000712E4ED8002E22D0462E00D082E0002B75
:1005D0001DD0192002AB07220021C01805F082FCB3
:1005E0004723122006AE737002AB0722884937708A
:1005F000C01805F07DFC02220921300001F0D2FA7A
:10060000002800D0D0E28349834807F037FA013D43
:10061000002D00D05EE704F00DFA804C226863687C
:10062000121A8B41002B00DC4AE111B0F0BCBB4632
:10063000B246A946A046F0BD022BE8D0A3781A0026
:10064000511E8A4151460A70002B41D074495846C8
:1006500007F014FA3B07DAD1012342465340DBB2DC
:100660003F093200723AD2B2532A33D86D49920010
:100670008A589746022BCAD07F20A378013DD9091A
:10068000184002F0B1FD002D00D023E7C3E704F0CD
:10069000D1F9654B0F0005931968644B0600994624
:1006A0005B68BB4200D939E100D132E1002900D0BA
:1006B00050E100235E4AB6185F414B46C0C3236930
:1006C000002B00D018E7013D002D00D002E7A2E783
:1006D0005849BCE7002B9AD0002306A80122042128
:1006E000077043708670C37001F05CFA002800D078
:1006F00058E2484A3100504807F0C0F987E7052F13
:1007000000D084E700224D4B4D481A7007F034F9B1
:100710007DE7052F00D07AE7002B00D177E76A4606
:10072000484B0221138306A8022201F03BFA00285D
:1007300000D105E34449454807F0A0F967E7052FD4
:1007400000D064E700223D4B41481A7007F014F9CD
:100750005DE7052F00D05AE7384B1A78002A00D001
:1007600055E701323B481A7007F006F94FE7002BB6
:1007700000D14CE7384B6A460693002305211377D6
:1007800006A8022201F00EFA002800D008E2214952
:10079000324807F073F93AE7052F00D037E7012216
:1007A000264B02211A706A462D4B06A8138302229B
:1007B00001F0F8F9002800D1B2E22349294807F0F6
:1007C0005DF924E7002B00D121E79E2306A84370A2
:1007D000993B022203210770837001F0E3F900289E
:1007E00000D0DBE10B49204807F048F90FE7C0468D
:1007F0007FF000202CB00010F0AE001040AF0010D1
:10080000FCBE001048AF0010E8BE001064AF00103E
:10081000F0B00010E4AE0010F8B00010102D002071
:10082000E8AE0010C0BB001054640020182D00205A
:1008300020A10700ECAE001004B2001073F00020FD
:1008400068B1001005C0FFFFE0AE0010D0B100108D
:1008500044B1001020B100100F84000048B0001017
:1008600005C1FFFF90B10010CCB00010002B00D1EB
:10087000CDE6902306A843700023022203210770CF
:10088000837001F08FF9002800D083E1D549D64864
:1008900007F0F4F8BBE6002B00D1B8E6D34B6A466C
:1008A000069300230521137706A8022201F07AF9A6
:1008B000002800D070E1CB49CD4807F0DFF8A6E66C
:1008C000002B02D1002A00D0AFE6D0231B065A68C5
:1008D000C84B196801238B401A40531E9A41D5B268
:1008E00001F048F9C44B07001A78424504D042464B
:1008F0001A700022C14B1A604346002B00D0B3E0AF
:10090000BF4E3368042B00D901E1BE4A9B00D35887
:100910009F464B461B68B34200D8C7E6059B013192
:10092000196038E6B849B94807F0A8F863787A2B17
:1009300000D015E62369022B00D829E67F21A37891
:1009400019405BB2002B00DAE8E1A64AB04807F094
:1009500095F81DE6AF4807F091F80023059A13605B
:100960000023AD4AB6185F414B46C0C32369A7E6D2
:10097000842B00D1A8E0872B00D1A3E19E2B00D0CF
:100980007EE12369022B00D802E6A278131FDBB2B6
:10099000022B00D9C8E1A1499B005958A04807F093
:1009A0006DF8F5E59F4B6A46069300230521137702
:1009B00006A8022201F0F6F8002800D0F8E08949E4
:1009C0003B002A00984807F059F8DCE06A46974B4C
:1009D0000221138306A8022201F0E4F8002800D0C7
:1009E000E4E080493B002A00914807F047F8CAE05C
:1009F0000521002001F0ECF8002800D1DEE08D494F
:100A00003B002A008C4807F039F8BCE08B4B1B7880
:100A1000002B00D1D4E08A4B1B78002B00D0ADE036
:100A20006A46884B0221138306A8022201F0BAF815
:100A3000002800D17AE17F493B002A00824807F074
:100A40001DF8A0E06A46814B0221138306A802220A
:100A500001F0A8F8002800D0AEE062493B002A006F
:100A60007B4807F00BF88EE0744B1B78002B67D1A6
:100A7000624E3368002B00D16EE1012B00D157E1AB
:100A80006A46724B0221138306A8022201F08AF8FB
:100A9000002800D05EE153493B002A006D4806F073
:100AA000EDFF3368032201331340336003F0C2FFCC
:100AB000694A00238018594102000B1E02DA012204
:100AC000664B52420CC4B0E52369042B00D85FE5A5
:100AD00023790F209C46668876BAB6B2320A33096B
:100AE00003400240304081466046310B05930728A1
:100AF00060D85B4F8000C759634603934B4602970B
:100B000000930196059B574806F0B8FF40E5052B7A
:100B100000D080E76A46544B0221138306A80222C4
:100B200001F040F8002800D10CE142493B002A00C6
:100B30004E4806F0A3FF26E0334B25E532491CE57D
:100B40003F4B1B78002B00D0FEE02C4E3368002B6F
:100B5000A8D0012BA6D16A463A4B0221138306A8DE
:100B6000022201F01FF8002800D106E131493B00C4
:100B70002A003F4806F082FF336893E73A002900D5
:100B80003C4806F07BFF30680721013004F0C8FACA
:100B900031608BE727497AE626498DE6254922E62A
:100BA0002449F5E5234AA5E522492DE5214919E720
:100BB000204905E7144F9FE71E494FE709491FE702
:100BC0002D4B0222042106A8069300F0EBFF00281B
:100BD00000D1BDE017493B002A00284806F04EFF2F
:100BE000D1E7C046E4AE0010A0B000100F870000AF
:100BF0007CB000105C51002077F000205064002091
:100C00000058002010BD0010D8AE001048AF0010F2
:100C100050AF001008AF001020A10700BCBE0010AC
:100C2000C8AF00100F84000064B30010058FFFFFF1
:100C30002CB30010E0AE0010FCB200107FF00020DA
:100C400073F0002005C3FFFF48B40010057D0000CD
:100C5000A0B30010B8B2001080841E00FFFFFF7F19
:100C6000C8BE00108CAF00100571000018B4001051
:100C700078B200107CB4001005700000DCB30010E6
:100C8000472B2ED0442B0FD0722B01D07E2B78D146
:100C90002369022B00D87BE4A378002B42D047497C
:100CA000474806F0EBFE73E42369022B00D86FE49B
:100CB000A278652A42D8434B9100C958424806F0B1
:100CC000DDFE65E42369042B00D861E4A178E378B4
:100CD00009041B02194323793C48194306F0CEFE50
:100CE00056E42369022B00D852E4394806F0C6FEC8
:100CF00023690226A71C022B0CD938780300203B5D
:100D00005E2B00D92E2006F0EDFD23690136013758
:100D10009E42F2D3222006F0E5FD39E4274A15E68B
:100D20002C494BE52B49BBE72B4937E6294983E69C
:100D30002A4A1278002A00D0B4E60CE72649BDE71B
:100D40002449F8E42349F1E603F074FE244AB0E6AE
:100D5000204940E719499FE6224B0222042106A8B8
:100D6000069300F01FFF002809D014493B002A0019
:100D70001D4806F083FE336894E61649F7E61549E8
:100D8000F4E71A2B0AD12369022B01D8FFF700FCE4
:100D9000A178164806F072FEFFF7FAFB1B2B01D074
:100DA000FFF7F6FB2369022B01D8FFF7F1FBA178CF
:100DB0000F4806F063FEFFF7EBFBC046E0AE001005
:100DC000F4AF001024BD0010E4AF0010B4AF001069
:100DD000DCAF0010E4AE0010D8AE001073F00020BD
:100DE000809698000570000030B2001000B000102E
:100DF00018B0001070B5184B82B01B68834229D11F
:100E00000C220A4226D0154A1548944612680168F9
:100E100016000132D205D20D914204D10168013190
:100E2000C905C90D01600F4900258C6AD02109064A
:100E30004868009401249C4023000340581E8341CD
:100E4000694601950B71084BF0001B1811C911C3BD
:100E500063461A6002B070BD484A0020443A002040
:100E6000403A002000400540483A0020F0B54F4687
:100E7000D6464646C0B582B003F0DCFDD02300273D
:100E80001B063B4E5A683B4B36184F419946196832
:100E900001238B40002400251A4264D1364B009672
:100EA00001979846354B47469A4603F0C3FD019B90
:100EB0008B4222D93B687A6813432BD103F0BAFDE9
:100EC000D0231B065A684B461B681E000123B34003
:100ED0001A420BD023002B4342D0001BA94100290A
:100EE00002D1274B9842E0D901200DE003F0A2FD8A
:100EF000019B002400258B42DCD8009A019B8B4289
:100F000001D18242D6D8002002B0E0BCBA46B14638
:100F1000A846F0BD03F08EFD7B688B42CED802D18F
:100F20003B688342CAD80022002301203A607B60DC
:100F30005346144A80461268196890400B688343F0
:100F40000B604B460521186802F06AFD4B4642468D
:100F50001B689A401300D022120693619362ADE79A
:100F600004000D00A1E703F065FD04000D0095E706
:100F7000A0860100484A002020130020544A002087
:100F800087130000584A0020F0B5DE464546574614
:100F90004E460124E0B583B000902000444A454B02
:100FA0001268196890400B68D02583430B60424B50
:100FB00005219846186802F033FD434622001B685D
:100FC0002D069A40AA61AA6203F034FD43461B68CD
:100FD00006009C400F00AC616C620025374CA419E0
:100FE0007D4103F027FD8D42FBD801D18442F8D822
:100FF00043461A6801239340D02212069362914619
:10100000126A962413405A425A41002501232401B2
:101010009346A4197D419A4607E04B465A684346D9
:1010200051461B6899400A422ED103F003FD8D42C0
:10103000F3D801D18442F0D80027214E03F0FAFC06
:101040008D42FBD801D18442F8D8012241461000DC
:10105000D02309681B0688405B68034059424B4116
:1010600000980221C370012382705A46FF315B420F
:1010700001800271C6800381380003B0F0BCBB461A
:10108000B246A946A046F0BD03F0D4FC801BB9418E
:10109000002903D180235B02984200D3084800272F
:1010A000084B86B2B3427F415B461F40C6E7C0464D
:1010B000584A0020544A0020484A0020DC0500001D
:1010C000FFFF000002080000F0B557464E46DE461E
:1010D0004546E0B5414B424E9946356873688246B5
:1010E0008B46404C404F83B01D4324D003F0A2FCFC
:1010F00073688B42FAD802D133688342F6D801254F
:10110000280000220023396832607360884022681A
:1011100005211368834313604B46186802F080FC76
:101120004B461B68D0229D401206956173689562FC
:1011300035681D43DAD14B460621186802F070FC71
:1011400039682068002209F0E7FC4B4639681A68C4
:1011500020680123009509F027FD012039688446A5
:1011600088402268214D1368834313604B005B184D
:10117000DB00D3185B1980252D061D601D606346BA
:1011800004318B408021890151180B6013680025C0
:101190001843106003F04EFC2268A0243B68E4056D
:1011A00004339B00D218124B1B689B011B19114C76
:1011B0001C605A6052469A600F4A14241268DA6022
:1011C0005A46002312196B4112184B410CC603B04A
:1011D000F0BCBB46B246A946A046F0BD484A002036
:1011E00020130020544A0020584A0020D01000004C
:1011F0004C4A002028130020504A0020F0B5DE465B
:10120000454657464E46E0B5012580462800B34A7C
:10121000B34B1268196890400B68B24C834389B095
:1012200020680B60052102F0FBFB2A002368D02612
:101230009A403606B261B26203F0FCFB236800906C
:1012400001919D40B561756296260027B60036185B
:101250004F4103F0EFFB8F42FBD801D18642F8D813
:1012600001232268D02593402D06AB622A6A00270D
:1012700013405A425A419C4E0392009A019BB61861
:101280005F410123994605E0494623686A68994011
:101290000A4274D103F0CEFB8F42F5D801D18642C9
:1012A000F2D80122D02321681B068A405B68002700
:1012B00013405A425A418D4E0492009A019BB6182F
:1012C0005F41D0231B06994607E04B4601215A682F
:1012D000236899400A4200D012E103F0ABFB8F4231
:1012E000F3D801D18642F0D80122D02321681B0611
:1012F0008A405B68002713405A425A417C4E92460E
:10130000009A019BB6185F41D0231B06994607E05F
:101310004B4601215A68236899400A4200D00EE1E9
:1013200003F088FB8F42F3D801D18642F0D8012226
:10133000D02321681B068A405B68962613405A42D8
:101340005A41002736010592009A019BB6185F4169
:10135000D0231B06994607E04B4601215A682368B3
:1013600099400A4200D00AE103F064FB8F42F3D8AF
:1013700001D18642F0D800235E4D06935BE003F076
:1013800059FB009A019B801A9941002900D19EE0E7
:1013900058480122D02321681B068A405B68002739
:1013A00013405A425A41514E0492009A019BB6187A
:1013B0005F41504B85B29D4200D182E703F03AFB7A
:1013C0008F42FBD801D18642F8D80122D023216870
:1013D0001B068A405B68002713405A425A41444E1C
:1013E0009246009A019BB6185F4103F023FB8F429F
:1013F000FBD801D18642F8D80122D02321681B06F0
:101400008A405B68962613405A425A4100273601AB
:101410000592009A019BB6185F4103F00BFB8F42C7
:10142000FBD801D18642F8D80023334AAA425B4157
:1014300052461A4006920122D02321681B068A4098
:1014400099465B6813405A425A419346002B15D087
:1014500028484346049A18811A7052465A70059AD1
:1014600006989A705A46DA70039ADD801A7109B0AC
:10147000F0BCBB46B246A946A046F0BD0027009A84
:10148000019B1E4EB6185F4106E04B4601215A688B
:10149000236899400A420DD103F0CCFA8F42F4D868
:1014A000D6D18642D4D94B4601215A682368994047
:1014B0000A42F1D003F0BEFA009B019CC01AA14180
:1014C0000029C5D180235B029842C2D3C0E78023A4
:1014D0005B02984200D25CE75AE7C046584A0020B7
:1014E000544A0020484A00201A040000E204000088
:1014F000AA050000FFFF00000208000070170000AE
:1015000003F098FA009A019B801A994100294CD067
:1015100028480122D02321681B068A405B680027E7
:1015200013405A425A41244E9246009A019BB618E3
:101530005F41204B85B29D4200D1E5E655E703F0BF
:1015400079FA009A019B801A9941002928D01948FC
:101550000122D02321681B068A405B68962613402F
:101560005A425A41002736010592009A019BB6184B
:101570005F41104B85B29D4200D1E9E64DE703F093
:1015800059FA009A019B801A9941002902D0094812
:1015900085B249E780235B029842F9D30548F7E713
:1015A00080235B029842D3D3D1E780235B02984229
:1015B000AFD3ADE7FFFF0000AA050000F0B5574626
:1015C0004546DE464E460B00E0B5013B040088462A
:1015D0009A4689B00F2B09D900239946484609B08D
:1015E000F0BCBB46B246A946A046F0BDFFF73EFCA4
:1015F0000028F1D0D54F002238680C2102F028FADB
:101600000F2223781A40100000920F2A00D164E1C3
:1016100001210A001B099A408140CD4B0A431B88D7
:1016200013409B1A5A425A419346CA4BCA4DCB4A61
:101630002A606B602378DB1100D1DBE1C84AC94B1B
:10164000AA60EB6023785B0600D4D0E1C44AC54BA6
:101650002A616B6123789B0600D4A5E1C14BC04A87
:10166000AA61EB612378DB0600D4A5E1BD4BBC4A3F
:101670002A626B6223781B0700D4A5E1B94BB84AF4
:10168000AA62EB6223785B0700D4A5E1B54BB44AAC
:101690002A636B6323789B0700D4A5E1B04AB14B62
:1016A000AA63EB632378DB0700D44BE1AC4AAD4B74
:1016B0002A646B645346002B00D040E1A84AA94B32
:1016C0001420A949AA64EB64FFF7FEFCA74EA146CB
:1016D00033687268134324D003F0ACF973688B420B
:1016E000FAD802D133688342F6D8012400220023BD
:1016F0002000326073609E4A9E4B126819689040C9
:101700000B6883430B603868052102F089F93B6858
:10171000D0229C401206946133689462726813432D
:10172000DAD10A22002105A804F0DCFB5B464C4616
:1017300005A8002B00D1FFE0FFF726FC009A0F3A26
:10174000534253415840C3B299464346012B00D1FE
:10175000A1E0E318013B0093012398461B1B019372
:1017600002926378DB1100D0CFE0834A834B2A607A
:101770006B60424663789B111A4200D0CFE07E4AEC
:101780007E4BAA60EB60424663785B111A4200D040
:10179000CFE0794A794B2A616B61424663781B112D
:1017A0001A4200D0AEE0744A744BAA61EB61424623
:1017B0006378DB101A4200D0A1E06F4A6F4B2A62B7
:1017C0006B62424663789B101A4200D094E06A4AEA
:1017D0006A4BAA62EB62424663785B101A4200D001
:1017E00087E0654A654B2A636B63424663781A4219
:1017F0007CD1614A614BAA63EB63019B1B199A453B
:1018000071D05D4A5D4B12205D492A646B64FFF71D
:101810005BFC33687268134324D003F00BF97368E0
:101820008B42FAD802D133688342F6D84046002270
:1018300000234F493260736009684E4B88401A6834
:101840000521136883431360386802F0E9F84246C3
:101850003B689A40D0231B069A619A62336872688B
:101860001343DAD10A22002105A804F03BFB5B46B2
:1018700005A8002B34D0FFF787FB4B46002B05D083
:10188000029A534253415840C3B29946009B0134D7
:10189000A34200D065E701233D68D022AB4000247D
:1018A00012069362374B00211A68374B37481A608B
:1018B000374B18221C7004F015FB364B01221C70AC
:1018C000354B0C211C60354B28001C70344B1C70B0
:1018D000344B1C7002F0BCF880E600239B46A4E663
:1018E000FFF78CFCC9E71E4A1E4B8CE71C4A1D4BB8
:1018F00081E71B4A1B4B76E7194A1A4B69E7184ADE
:10190000184B5CE7164A174B4FE7154A154B2A60F0
:101910006B60424663789B111A4200D12FE7104A50
:10192000104BAA60EB60424663785B111A4200D10B
:101930002FE70B4A0B4B2EE7FFF760FCFEE60E4A43
:101940000E4BBDE60C4A0D4BB2E6C046484A00209D
:10195000A80F00201E03000028130020720E0000B4
:101960005602000006070000F46500002013002066
:10197000584A0020544A0020DA0500008203000083
:1019800060540000443A0020403A002054560020A1
:101990007DF0002079F000204C5600207BF00020E4
:1019A0007CF000207AF00020144B154AAA61EB610C
:1019B0002378DB0600D559E6104B114A2A626B6288
:1019C00023781B0700D559E60C4B0D4AAA62EB623F
:1019D00023785B0700D559E6084B094A2A636B63F5
:1019E00023789B0700D559E6054A044B58E6044A7C
:1019F000024B2DE6024A014B22E6C046820300005C
:101A0000DA050000F0B5CE46474680B54D4F89B0A7
:101A1000386002F09FF801233868D0228340120614
:101A200093610C2193620122474B02F03BF8474E31
:101A300047480121306008F0D7FF464D46492860ED
:101A4000306808F0EDFF002380220393F823520250
:101A50005B0200920193C02304001B03102269461D
:101A6000814604A8029304F043FAE31DE2011B033C
:101A7000134304A910226846059304F039FAF822AA
:101A80003B6892005B0113408022D204134303930E
:101A9000324B0520029303F0CDF804F0A3F930494E
:101AA00004F085F9EC21890504F07EF9804604F004
:101AB000C1F984B20020002C0ED0200004F092F96D
:101AC000011C404604F06DF98721C90504F083F933
:101AD00004F0B0F9C0B200022404044300940124CD
:101AE0006B464A462968306809F0B6F82000296834
:101AF000326888401368052183431360386801F019
:101B00008FFF3B6801209C40D0231B069C619C6298
:101B100008F05AFF134B144918603368C0025B1871
:101B20001B0D2968DB005B181049DB0308401921F5
:101B30000F4A03430B43136009B0C0BCB946B0461B
:101B4000F0BDC046484A0020F50D0010544A002060
:101B500000002050584A002014C2001000000C4021
:101B6000002474494C4A00200000E0AFFF7F00FFD2
:101B7000504A0020D0231B065868044B1A680123E2
:101B800093401840431E9841C0B27047484A002015
:101B90000F2210400E3A8240014B1A807047C04617
:101BA000A80F0020F8B506000F00151E0ED0002467
:101BB00005E03230013402F02DFEA54206D0390096
:101BC0003000FFF7FBFC0028F3D0F8BD0020FCE755
:101BD000F0B587B006000C00FFF748F9051E02D1EA
:101BE000280007B0F0BD0F2536012C403443724E5B
:101BF00000220C213068E4B201F02AFF25400F2DAD
:101C000000D1D6E00123190022099140AB400A001F
:101C10001A436A4B1B8813409B1A5A425A411700B9
:101C2000674B68486849E21118605960002A00D182
:101C3000B9E0664866499860D960620600D4AFE0B2
:101C40006248634918615961A20600D4A5E05F4863
:101C50005F499861D961E20600D486E05B485C493F
:101C600018625962220700D486E0584858499862A1
:101C7000D962620700D486E0544855491863596315
:101C8000A20700D486E0514851499863D963E4071C
:101C900068D54E484E49186459644C484C4998647C
:101CA000D96414204B49FFF70FFA4B4C2268636844
:101CB0001A4325D002F0BEFE62688A42FAD802D1E9
:101CC00023688342F6D8002200230120226063604B
:101CD000424A434B1268196890400B6883430B607B
:101CE0003068052101F09CFE012233689A40130000
:101CF000D022120693619362226863681A43D9D195
:101D00000A22002103A804F0EDF803A8002F4DD10A
:101D1000FFF774FA2B000F3B5A42534158400123FE
:101D20003668D022B3400024120693622D4B002166
:101D30001A682D4BC5B21A602C4B18222C481C7007
:101D400004F0D0F82B4B01221C702B4B0C211C6093
:101D50002A4B30001C702A4B1C702A4B1C7001F05F
:101D600077FE3DE72848294995E727482749186223
:101D70005962220700D578E7234824499862D9623E
:101D8000620700D578E72048204918635963A20705
:101D900000D578E71C481D4977E71B481B4958E7E1
:101DA00019481A494EE71848184944E7FFF7ECF874
:101DB000B0E7002734E7C046484A0020A80F0020BB
:101DC00028130020720E00001E03000056020000BF
:101DD00006070000F465000020130020584A002088
:101DE000544A0020443A0020403A00207DF0002070
:101DF0005456002079F000204C5600207BF0002043
:101E00007CF000207AF00020DA0500008203000058
:101E100010B500240A4B00211A680A4B0A481A60C0
:101E20000A4B18221C7004F05DF8094B1C70094B1A
:101E30001C60094B1C70094B1C70094B1C7010BDB9
:101E4000443A0020403A0020545600207DF0002003
:101E500079F000204C5600207BF000207CF0002020
:101E60007AF00020F0B54546DE4657464E46E0B5CE
:101E7000814C80462368626885B0134300D07BE0C4
:101E80007E4D7F4F2B683A689A421FD07D4AC346E9
:101E90009246B8467C4E02AC2100DA00524481CA18
:101EA00081C10133DB05DB0D2B6033782768227994
:101EB000022B24D012D8002B39D0744B002A3FD1EA
:101EC0001F6042462B6812689342E5D1002005B09E
:101ED000F0BCBB46B246A946A046F0BD032BF0D1EC
:101EE0006A4B002AECD01968694B791A1F600223EB
:101EF0003370684B994269D900233370E1E7002AB7
:101F0000DFD1634B644A99461B68FB1A934257D84A
:101F10005E4B1F6003233370604B1B78002B04D093
:101F20005F4B1B78002B00D092E04B46C8E7002A9D
:101F3000C7D1564B1F60564B1F6001233370C0E75B
:101F40001A68534B1F60574BFB189B1A564A934213
:101F5000D2D818220021554803F0C4FF0023544A68
:101F60001370544A13604D4A13704D4A1370524A0D
:101F7000137002333370A4E702F05CFD63688B4298
:101F800000D97DE703D12368834200D978E7002296
:101F900000230CC401242000484A494B12681968E8
:101FA00090400B68474D83430B602868052101F082
:101FB00037FD2B689C40D0231B069C619C625FE729
:101FC000324B1F60012333704B4679E7334A137855
:101FD000002B10D00021384B11701878002800D148
:101FE0006FE70122314B1A755A46B0CBB0C2B0CB65
:101FF000B0C231706BE71F00334888425F412D4902
:1020000000970868019107282DD928480769BC4620
:102010000F2F00D970E7012767440761244F6146FD
:10202000B9463F78475449460B70019900780B60D8
:10203000012111700F2202400F2A03D0234B1B886D
:10204000D3400B40164A13701B4B009A1A7038E7A6
:102050001F4B2048204903C3962102200901FFF7A6
:1020600033F84B462CE7124A013013785B003B43B0
:102070001370019B186024E720130020403A0020D1
:10208000443A0020483A00207DF0002050560020BD
:102090006C56002070170000102700007BF0002015
:1020A0007CF0002080F3FFFF4C0400005456002019
:1020B00079F000204C5600207AF00020584A002089
:1020C000544A0020484A002019040000A80F0020AC
:1020D00028130020DA050000820300001E49F0B535
:1020E0000A68CE4613008146012047461B4C4340F8
:1020F00080B50B602368012A22D0194D5F092E6834
:10210000BF00B046BC461F26C4441E40B0406646D1
:1021100036683043664630604846002818D11F2193
:10212000581C014042090120884092004244116835
:102130000143116002332360C0BCB946B046F0BD14
:1021400048460028F6D0064D0A602A689046E6E721
:102150000A60002AEED0F8E7D84A00204464002044
:10216000343A0020F0B5C64600B5984684460023B0
:1021700082B0022901D82F4B5B5C41460968481E9A
:10218000814149424B40D9B21B0644D400270B1170
:102190004BD14B0701D520231F438B0701D540238B
:1021A0001F430120FF25244B084086029919009106
:1021B00089781540090249198900CD5AF65A5918EB
:1021C00036022C063443C601887892B20002120A05
:1021D0008218920098183E438778344301943C005B
:1021E000D25A4346009FC978FF78144E7940C77889
:1021F0002D0A79406700F619715C120209062A431C
:102200000A43C90F19606346019C5A601C6002B002
:1022100080BCB846F0BD072707200B110E2B05D157
:102220000B07B6D510231F43B3E700200827074349
:10223000F6E7C04638C200103031002030390020A7
:10224000F0B5DE4657464E4645460023E0B595B00C
:102250001393C44B0C931B78DAB2022B00D11FE10D
:10226000012A00D16DE1C04B1A000A93BF4B0E93B7
:10227000BF4C1000231F21000994934200D166E156
:10228000530700D563E1C0231B01E4180CC80CC13F
:102290008C42FBD1B74B00279946B74BB74E0593FD
:1022A00013AB0293B64B9846B64B19680B93B64BDB
:1022B0009B465A46B54B12689C461B6804339B00EC
:1022C000D2188B01A021C9050893CB180999196070
:1022D0005A60C02292009A60AD4A92461268DA6053
:1022E00001230793AB4B0493434606935B46B346E7
:1022F0000D93A94E079BC0225B4212011340099A1D
:10230000D5180C9A1178CAB2022941D00A99012A2B
:1023100000D10E99A14A08009B188B4200D1B4E06D
:102320000B002B435B0700D5AFE0C0231B01EC186B
:10233000069B290098460CC80CC1A142FBD143461C
:102340000693974B08998022C918069B5204984619
:102350000B681342FCD1434606930B9B0D991A68F8
:1023600063461B68096804339B00CB189101A022C7
:10237000D205521815605360C0239B0093605346EA
:102380001B680891D3600122079B53400793B2E773
:10239000C0231B019846A844434603935B46019320
:1023A000069B2C0098466346109353460F95119355
:1023B00052E042469900525E013341440220095ED8
:1023C000DB040198DB0C0360FF230B4089B29B46C2
:1023D0000B0A9A4639004B1E99412000029BC9B254
:1023E000FFF7C0FE139A2720002A01D00122B13046
:1023F0009202B318DD789B781B025B449B00F15A74
:10240000F3188B46B15A5A4609020143120611438A
:102410009A78DB78120252449200B01882466B40E0
:102420005546ED7880786B40049D40002818C05CCC
:10243000B35A5A461B02120A000613430343C00F45
:102440001390A160E360781CC02102F069FE039B39
:1024500010340F00A3420ED04A46019B1B6812683D
:102460009342A6D1059A136801331360002300221A
:102470009A469B46AEE7019B0F9D9B4643460693BB
:10248000109B9C46119B9A465BE7069AC02000234E
:1024900090460001CA58EA5004338342FAD14EE70D
:1024A000C025334B2D011C000993ED18314B00273B
:1024B0009946314B314E059313AB0293304B9846FE
:1024C00022E042469900525E41440220095E0133F7
:1024D0008A463900DB04DB0C33604B1E9941029BBA
:1024E00020009B46C9B2FFF73DFE20005B465246E6
:1024F00008300221FFF736FE781CC02102F010FEE2
:1025000010340F00A54217D04A4633681268934230
:10251000D7D13900059A20001368013313604B1E90
:102520009941029B0022C9B29A46FFF71BFE200088
:10253000534600220830DCE70C4B0E930A4B0A93FB
:10254000B2E60A4B1A000E93074B0A9390E6C0219D
:1025500000230901D058099CE05004338B42F9D183
:1025600098E6C046AA0F002030580020586400208A
:10257000F814002060F0002064F000205CF00020DF
:102580005C700020346400203C6400204064002023
:10259000386400203039002030310020F41400204D
:1025A000100000504F4AF0B5944680224546DE4662
:1025B00057464E46D20192464B4AE0B5914680229C
:1025C00080254A4B91B0920106901C000021012009
:1025D00090469B466D0039E003261340104200D11F
:1025E00029E2082703223A438F0807407B40002F47
:1025F0003CD020273A43CF0807407B40002F3CD0F7
:1026000080273A430F0907407B40002F3BD08027AB
:10261000BF003A434F0907407B40002F3BD0802743
:102620003F013A438F0907407B40002F3BD0CF0941
:102630007B40002F00D110E24E460127324301318A
:102640002280A770E370A9423BD0043403004A08FB
:102650000842C1D09343104200D0EBE10827052285
:102660003A438F0807407B40002FC2D14026CF0855
:1026700007407B403243002FC2D00F0907407B4008
:102680002A43002FC3D080264F090740F6007B4025
:102690003243002FC3D080268F09074076017B404C
:1026A0003243002FC3D0CF097B40002F00D1CCE1B3
:1026B00056460027324301312280A770E370A942B9
:1026C000C3D10820804610205B468346202080220C
:1026D000802584464020D20099188146002301229B
:1026E0006D0040E000C0FFFF00A0FFFF3031002080
:1026F00010005C08A043224200D0C0E102245F46E3
:102700009E08164070403C43002E3CD16646344340
:10271000DE0816407040002E3CD0802727431C095D
:1027200014406040002C3CD08024A40027435C0966
:1027300014406040002C3CD080249E0924011640A7
:102740003C437040002E3CD0DE097040002E00D18A
:1027500097E1E44E0133344301260C808E70C8703B
:10276000AB423DD004311A42C2D110005C08204077
:10277000224200D079E10424464634439E081640A4
:102780007040002EC2D14F46DE08164070403C43D8
:10279000002EC2D01E0916402C4327007040002E88
:1027A000C2D080265C091440F60060403743002CFC
:1027B000C2D080249E091640640170403C43002E24
:1027C000C2D0DE097040002E00D150E18026F60113
:1027D0003443002601330C808E70C870AB42C1D1E7
:1027E000C14BC24AC24F1A60C022002112013800F8
:1027F00003F078FBBF4BC04E9B461F600023594639
:102800009C46BE4D00242B603360BD4B0791059361
:1028100000220020E8236146A1461F34A04602960C
:102820001E3C80B200020390481E8141494259403B
:10283000CBB2090600D4CBE14046260010408640CA
:10284000510989007858304346467850511C480950
:10285000314026008E408000395831434646395079
:10286000911C4809314026008E4080003958314380
:102870003950E22B0CD04646111D48093140260044
:102880008E4080003958314339501D2B00D1ACE1C6
:10289000990709D54646911D4809314026008E40CA
:1028A0008000395831433950029923400B6009D0D8
:1028B0004046D31D590903402000984089007B58A9
:1028C00003437B5000239A469B460832029E2A60AF
:1028D0005B460398D84020408244C0B2FFF7FEFB1D
:1028E00001239B445B46182BF2D12B683268991C5C
:1028F00002960491012A00D038E14646991C480905
:10290000314026008E4080003958314346463950C8
:10291000D91C4809314026008E4080003958314387
:1029200039501100029861400160012A00D03AE15B
:102930005046063320402B60FFF7D0FB029E2B68E9
:102940003268002A00D1A5E04046DA1C5109024055
:102950002000904089007A583460024340467A5003
:102960001A1D510902402000904089007A58024304
:1029700040467A509A1D510902402000904089003B
:102980007A58024340467A50DA1D5109024020002D
:10299000904089007A5802437A5008332B60002314
:1029A0009A469B465B460398D84020408244C0B27A
:1029B000FFF794FB01239B445B46182BF2D12B6855
:1029C0003268991C02960391012A00D09CE0464689
:1029D000991C4809314026008E4080003958314307
:1029E00046463950D81C41093040260086408900AF
:1029F0007858304378501100029861400160012AF4
:102A000000D09EE05046063320402B60FFF766FB67
:102A1000012399444B46C02B00D1F1E030214846B8
:102A200002F07EFB059B4900C85E029B2A6819687C
:102A3000E223F6E6052610228F08074016433200EF
:102A40007B40002F00D011E6D3E56646324322805A
:102A5000A070E37001310434F8E546463243228029
:102A6000A770E37001310434F0E5042447E6254EF5
:102A70008A7034430C80C8700133043173E6022439
:102A80007AE68027BF013C430C808E70C87001330A
:102A9000043168E641462000194088405A099200F6
:102AA000B95801434046B950591C4A090140200019
:102AB00088409200B95801434046B950991C4A09D0
:102AC0000140200088409200B95801434046B95067
:102AD000591D4A090140200088409200B95801431D
:102AE000B9505AE700A0FFFF3039002033B3CC4C77
:102AF00058640020343A0020D84A00204464002062
:102B00003CC2001000C0FFFF46461E4031002600B8
:102B10008E405809800039580E43591C3E500E0013
:102B2000480941460E40310026008E408000395849
:102B30000E43991C3E502960002A00D047E7029AB4
:102B400014604046191D4A09014020008840920047
:102B5000B95801434046B950591D4A090140200067
:102B600088409200B9580143B9504BE746461E4091
:102B7000310026008E405809800039580E43591CF8
:102B80003E500E00480941460E40310026008E405E
:102B9000800039580E43991C3E502960002A00D00D
:102BA000ABE6029A146040461A1D5109024020000B
:102BB000904089007A58024340467A505A1D510984
:102BC00002402000904089007A5802437A50AFE6D4
:102BD0004646D11C4809314026008E4080003958B5
:102BE00031433950172B00D045E64646511D480960
:102BF000314026008E40800039583143395047E635
:102C0000079BC0229B46DA4F002112013800029E2A
:102C100003F068F95B461F201F60002380461D38C3
:102C200083462B603360581E8341E8215B42594044
:102C3000002201240296CBB2090600D4EDE0404602
:102C40002600104086405109890078583043464696
:102C50007850511C4809314026008E408000395878
:102C6000314346463950911C4809314026008E4078
:102C70008000395831433950E22B0CD04646111DA3
:102C80004809314026008E40800039583143395080
:102C90001D2B00D1CEE05946194209D04646911D60
:102CA0004809314026008E40800039583143395060
:102CB000029923400B6009D04046D11D4B090140C9
:102CC000200088409B00F9580143F95018239A4688
:102CD0000832029E2A600020FFF700FA01235B42BF
:102CE0009A445346002BF6D12B6832680296981C02
:102CF000012A00D002E146464109304026008640C4
:102D000089007858304346467850D91C48093140EC
:102D100026008E4080003958314339501100029806
:102D200061400160012A00D00DE1063300202B60D4
:102D3000FFF7D4F9029E2B683268002A00D184E0A4
:102D40004046D91C4A090140200088409200B958E9
:102D5000346001434046B950191D4A090140200022
:102D600088409200B95801434046B950991D4A091C
:102D70000140200088409200B9580143B950D91D44
:102D800040464A090140200088409200B958083363
:102D90000143B9502B6018239A460020FFF79EF993
:102DA00001235B429A445346002BF6D12B683268CC
:102DB0000296981C012A67D14646410930402600F8
:102DC000864089007858304346467850D91C4809D7
:102DD000314026008E40800039583143395011006F
:102DE000029861400160012A73D1063300202B60F4
:102DF000FFF774F901235B4299444B46002B00D145
:102E0000B8E0029BE2211B682A68581E83415B429E
:102E10005940CBB2090600D511E74646D11C4809F6
:102E2000314026008E408000395831433950172BED
:102E300000D023E74646511D4809314026008E4008
:102E4000800039583143395025E741462000194068
:102E500088405A099200B95801434046B950591C5C
:102E60004A090140200088409200B9580143404679
:102E7000B950991C4A090140200088409200B95875
:102E80000143B950591D7BE7590989007E18039603
:102E900046461E40310026008E40B246039E286002
:102EA000316856460E433100039E3160591C4E096D
:102EB000B600B446464631402600BC448E406146CA
:102EC0000968314366463160002A00D074E7029AEF
:102ED00014604046191D4A090140200088409200B4
:102EE000B95801434046B950591D4A0901402000D4
:102EF00088409200B9580143B95076E759098900D2
:102F00007E18039646461E40310026008E40B2468B
:102F1000039E2860316856460E433100039E31609F
:102F2000591C4E09B600B446464631402600BC4402
:102F30008E4061460968314366463160002A00D000
:102F4000D9E6029A14604046191D4A090140200042
:102F500088409200B95801434046B950591D4A096A
:102F60000140200088409200B9580143B950DCE686
:102F700030580020474E48480121306007F034FDAA
:102F8000464D47492860306807F04AFD454B316897
:102F9000069CC918090D06310700C9B2200000F0CF
:102FA0003FFD0123220029683068009307F0FCFDF3
:102FB0004B460F9380235B020C93F8235B020D9327
:102FC000C02310221B030CA908A80E9302F090FF47
:102FD0003A03FB01134308A910220CA8099302F03D
:102FE00087FF1F22802322405B0313430F932E4B46
:102FF00005200E9301F01EFE02F0F4FE2B4902F0B4
:10300000D6FEEC21890502F0CFFE804602F012FFC9
:1030100084B20023002C0ED0200002F0E3FE011C3D
:10302000404602F0BEFE8721C90502F0D4FE02F040
:1030300001FFC3B21B0224043A0029681C43306814
:103040000CAB0C9407F008FE01232868326883401B
:10305000116801200B43136007F0B6FC144B1149B3
:1030600018603368C0025B181B0D2968DB005B1811
:103070001049DB0308401B210F4A03430B430F4851
:10308000136007F073FC11B0F0BCBB46B246A94612
:10309000A046F0BD3C6400200000205040640020A9
:1030A0009CC200100000E0AF00000E400080BB4A50
:1030B00034640020FF7F00FF3864002041220010AC
:1030C000014B18707047C046AA0F0020014B1878BA
:1030D000C0B27047AA0F0020022803D8024B80001C
:1030E000C05870470148FCE72CC20010D8AE001051
:1030F000F0B50F1E2AD0174B01009C460020164C3D
:10310000164E0AE00D889B009D534D88F318013040
:103110005D8022600431874208D0654623682D68AF
:103120005A1CD204D20C9542ECD1070063461B68AE
:103130002268934202D9802189015218D31A084A81
:103140001168994200D213603800F0BD014B024C67
:103150009C46EBE75CF0002060F000205C700020F3
:1031600058700020054B1868054B1B68984202D91F
:10317000802292019B18181A7047C0465CF000200C
:1031800060F000200023044A1360044A1360044ADC
:103190001360044A136070475CF0002060F0002068
:1031A00064F000205870002010B5002813D00A4B9E
:1031B0000A4A1B681268934202D980218901521879
:1031C0000749D31A0A6803604260064A14680B6014
:1031D00000238460136010BD5CF0002060F00020CC
:1031E0005870002064F0002070B5031C0C006428A7
:1031F00000D96423DBB21801C01A6421800201F0F7
:1032000067FF074B2202C018064B22431A800204B4
:1032100015000549120C2A430A609C70888070BD15
:1032200000C4FFFF2C56002068F00020014B1878E6
:103230007047C0467EF00020F0B54B7985B0042B76
:1032400005D00022022B11D0100005B0F0BDCB78C4
:10325000012B1FD00022022BF6D14B78012BF3D18A
:103260006A46137006F09AFC0200EDE7CB78012B5A
:1032700022D0022BE8D14B78012B32D0022BE3D1A4
:103280006C461D4B6A4660CB60C4082306F086FC82
:103290000200D9E74B78012B1BD00022022BD3D19F
:1032A0006C46164B6A46E0CBE0C41B8823800E2395
:1032B00006F074FC0200C7E74B78012BC4D16A46C4
:1032C0008C780F4B1B5D1370012306F067FC020026
:1032D000BAE70C4B6A460093042306F05FFC020039
:1032E000B2E78A78084B5200D35A6A461380022309
:1032F00006F054FC0200A7E7B8C20010A8C20010F4
:103300002C56002080BB000068F000204B78002085
:10331000012B09D14B79042B07D0022B04D1CB7898
:10332000012B08D0022B0CD07047C87801384342DB
:103330005841C0B2F8E7094B8978127801205A54F5
:10334000F2E7137889789C465378624604481B025A
:103350004900134343520120E6E7C0462C560020A3
:1033600068F0002070B50B7982B0032B02D00120E9
:1033700002B070BD8B7800255A1E93418026284CE0
:1033800076002370274B1D70274B1E60FFF7FAFE57
:103390000020FFF795FE254B1D6001F04BFB244BF1
:1033A000244A9C460023801859416346002203C3E7
:1033B000002321490D000CC12378002B0AD11F4C9A
:1033C000FFF784FEFFF788FE210002001C4804F08E
:1033D00055FBCCE701F02EFB00900191FFF7C2FEF8
:1033E000184B311A0901994200DA190080231B0297
:1033F000994200DD1900C0239B03C918002006F084
:1034000099FB00980199FA22002312018018594172
:103410000B0002000CC52378002BD0D00A4CCFE75C
:103420007EF0002078F000200C580020244B002073
:10343000002D002080841E00082D0020ECAE00101E
:1034400048B900100080FFFFE8AE001010B500245E
:1034500080220E4B52001C700D4B1C700D4B1A60DD
:10346000FFF790FE0020FFF72BFE9C220A4B1C600A
:103470000A4B9C50043A9C50FFF728FEFFF72CFEA5
:103480000100074804F0FAFA012010BD7EF0002088
:1034900078F000200C580020244B00200000105031
:1034A0006CB9001000231370014B53607047C04685
:1034B00080BB0000F0B54E46DE4657464546E0B5B7
:1034C000754B87B099461B78002B06D107B0F0BC2E
:1034D000BB46B246A946A046F0BD01F0ABFA6F4B21
:1034E00004009A465B680D008B421BD800D1C3E0F4
:1034F000FFF738FE80216A4B4900091A09019942F9
:1035000070DB80231B0299426ADCC0239B03C9182D
:10351000002006F00FFBFA2200231201A4185D41DF
:10352000534630C3C0265F4D760003270FE0B843F3
:1035300082B2002ACAD02900002005F033FE840898
:10354000A4B221002800FFF7D3FD844242D8002016
:1035500005F018FE032807D9002005F013FEB0423D
:10356000E5D9C0225200E6E74F4B1F001B78002B25
:1035700070D001F05FFA4D4B040098465B680D0077
:103580008B4235D94B461B78002B9FD001F052FA65
:1035900053465B6804000D008B4297D876D0FFF746
:1035A000E1FD80213E4B4900091A090199426BDB7C
:1035B00080231B02994265DCC0239B03C9180020AD
:1035C00006F0B8FAFA2200231201A4185D4153460E
:1035D00030C37BE7364A13681B1A1B191360A4E734
:1035E000190092E7190080231B0299428DDDF7E74D
:1035F0008B4203D143461B688342C3D803A8FFF71D
:10360000D3FD2B4E059BB3463668049A039929488F
:10361000009604F033FA3B78002B11D0059B002B69
:103620000ED0002380223B70234B520000201A60F2
:10363000FFF746FDFFF796FD0100204804F01EFA53
:1036400000235A46136000231D4AA4185D414346D7
:1036500030C397E7FFF786FD174B1B68984288D366
:10366000012302203B70FFF72BFDFFF77BFD0100DC
:10367000144804F003FA7CE753461B68834200D8E1
:1036800036E74FE7190097E7190091E753461B68A3
:10369000834284D91AE7C0467EF00020082D00201E
:1036A0000080FFFF7056002078F00020002D0020E1
:1036B000244B0020B4B900100C580020E0B90010D1
:1036C00080841E0090B9001000487047C4C30010E9
:1036D00000487047E0C2001070B504001C48037831
:1036E000002B2DD0002C0BD11A4B9C4662461A4B56
:1036F0009D1F5380FF3D634664461D80200070BDC2
:10370000062C23D8154BA400E458002CF6D020003A
:1037100007F0F6FA0200202816D8C023411C490001
:103720009B000B431D000B4B9C46002AE3D09A1CC8
:103730000023E15C0133118002329842F9D8DAE7C4
:10374000112104F027FBCDE72020E6E70024D5E790
:1037500018580020DC4A002009040000C0C20010F4
:10376000D0231B061B68F0B5A94ADE464E464546E7
:1037700057469900884651585A4253412F22E0B586
:103780005B429343A34A83B09B189B46002601915A
:10379000002939D0A04B0F279A465A46F308083320
:1037A0009B009D580123340099460836002D22D0F5
:1037B000390029402D0900291AD0534642469A580B
:1037C0002300E240203BDB1713404A4613420DD151
:1037D000072208002240920090400200E3088F4830
:1037E0003C339B001A502000019B9847002D02D0CB
:1037F0000134B442DCD3202ECFD103B0F0BCBB46A1
:10380000B246A946A046F0BD0F23834A0192CC08D8
:10381000220058460F000832920012580837002A3A
:1038200000D1CDE0180010408446100913421AD090
:103830004546019E7559AA4620256D42A9468944F0
:103840004D46ED17A9465546CD402E004D46354014
:103850000126354204D16646704D3C34A4006651C1
:10386000002800D1ACE01C000440A446140A034226
:1038700019D0481C81464046019D4E4628580500F7
:103880000800F5401F38C01728400125284207D1FD
:1038900065462D01F0082E003C30604D80004651F9
:1038A000002C00D18CE0180020408446100B2342ED
:1038B00011D08C1CA1464446019D4E462C59250032
:1038C0000C00F5401E3CE4172C4001252C4200D191
:1038D00081E0002874D01C000440A446140C03426C
:1038E00010D0C81C81464046019D4E462858050010
:1038F0000800F5401D38C01728400125284273D024
:10390000002C5DD0180020408146100D23420ED0BF
:103910000C1DA4464546404C64596546EC402500C4
:103920000C001C3CE40F2C4267D0002848D01C003F
:103930000440A446140E034217D0481D8146454654
:10394000354840594D46E840050008001B38C00F77
:10395000284208D1654648462D052E00C0082F4D47
:103960003C3080004651002C2AD01800204084466C
:10397000120F234229D0454627488C1D82464059C4
:10398000E040050008001A38C00F284206D1E008C0
:103990006446224D3C302406800044510731002A01
:1039A0000ED05046444604590800CC402038C00F81
:1039B000204205D1C90819483C31120789000A5034
:1039C000202F00D119E7390021E7002AF8D012484A
:1039D00007318246E5E765462D02F4082E003C34A7
:1039E0000E4DA400665174E765462D03F0082E00C5
:1039F0003C300A4D8000465182E74D4664462D0416
:103A00002E00E408054D3C34A40066518DE7C04605
:103A1000383A002030410140045800200040014065
:103A200010B54024074A83009A181268C000544019
:103A3000C0222240044C1B191A60044BC01841607C
:103A400010BDC04604C0014004D001400040014008
:103A5000D0231B061B6810B514005A4253412F2275
:103A60005B4293430D4A9B18C208944607221040BC
:103A70006246800081403C32094892001150604605
:103A800080001B18002C04D0802292019B18196022
:103A900010BDC02292019B181960F9E73041014026
:103AA00000400140F0B54F464646D646C0B5D02747
:103AB0003F0688469A4619003B68224E9D00914673
:103AC00072590400002A2DD0002935D05246725177
:103AD0005A4253412F225B4293431B4A40469B1854
:103AE0000722224092009040E1080200080089006D
:103AF0005B184946154C3C308000025100290CD01F
:103B0000802189015B180D2001211A6000F02EF937
:103B1000E0BCBA46B146A846F0BDC02189015B1899
:103B20001A60F5E70029D3D0715100220D20084911
:103B300000F064F93B68CBE70D20054900F044FA3A
:103B40003B68C3E7383A0020304101400040014063
:103B5000613700100123D0228340120693629361E3
:103B6000084A83009A1811684022514080320A4066
:103B70000549C0005B181A60044BC0180523436058
:103B80007047C04604C0014004D0014000400140DD
:103B90008023DB051868000F7047C0460FB400B5DE
:103BA000084883B003F0E8FE049B002B07D005A96A
:103BB0001800019103F04AFD034803F0DDFE0120E7
:103BC00003F05CFD58BA001068BA0010EFF31080E3
:103BD00072B6034A1368002BFCD0BFF35F8F7047A7
:103BE0002C0100D0BFF35F8F0022024B1A6080F3DC
:103BF000108870472C0100D070B58C461600EFF38A
:103C0000108472B60F490B68002BFCD0BFF35F8F96
:103C10006346DB08C5180722C05C63461A400123CF
:103C200093401A000240034207D118432870BFF3A3
:103C30005F8F0A6084F3108870BD61463000FFF723
:103C4000ADFFC0462C0100D0F8B5CE4647468C46A5
:103C500080B51C00EFF3108872B61C490B68002B6E
:103C6000FCD0BFF35F8FA24221D80723994602E020
:103C70000132944218D34946012611408E40D308A0
:103C8000C718C35C1E42F3D1100033433B70BFF32F
:103C90005F8F00220D4B1A6088F3108800280EDB1E
:103CA000C0BCB946B046F8BD01204042EFE7BFF3C3
:103CB0005F8F00230B6088F3108801204042634629
:103CC000002BEDD00898FFF769FFC0462C0100D00B
:103CD000044A1078431CDBB2172B00D91023137051
:103CE0007047C046AB0F002000B5054B83B0010004
:103CF000009318221F230348FFF7A6FF03B000BD5F
:103D00006CBA0010644A00200021044B044ABFF33F
:103D10005F8F02C39342FAD17047C046000100D0C2
:103D2000800100D0084B094A1360094A1360094A10
:103D30001360094A1360094A1360094A1360094A6B
:103D40001360094A136070478080808000E400E0BF
:103D500004E400E008E400E00CE400E010E400E02B
:103D600014E400E018E400E01CE400E01F23184025
:103D70001E3B8340002905D0C021044A490053500E
:103D800013607047802201498B50FAE700E100E0A0
:103D900001228240034B1B6813405A1E9341D8B244
:103DA0007047C04600E100E070B50D00EFF31086EB
:103DB00072B60F4A1368002BFCD0BFF35F8F0D4B18
:103DC00010309B6884001B590B4A934203D09D42DC
:103DD00001D001F03DF8074B9B681D51BFF35F8F89
:103DE000BFF35F8F0022024B1A6086F3108870BD0C
:103DF000240100D000ED00E0C1010010F0B5DE4666
:103E000057464E464546E0B5824683B08B4617007E
:103E1000EFF3108872B6604A1368002BFCD0BFF332
:103E20005F8F00255D4B5D579946002D00DA9AE0C3
:103E30004A466B005A4C5E19B6000193A3190093D1
:103E40009B791370574B9A68534610339B00D15897
:103E500099460B1B2F2B32D9534B994200D098E037
:103E6000019B0236ED18514BAD006353504BA61920
:103E7000043B9B1B4F4A1B055B0D651913436B806D
:103E80004D4B0121AB80FF23AB715B46AB60009BC8
:103E9000EF710B4319004A46424B9B689950BFF3A0
:103EA0005F8FBFF35F8F00223B4B1A6088F310884F
:103EB00003B0F0BCBB46B246A946A046F0BD012007
:103EC0000A008243D379B446BB422DD83B4BB51C84
:103ED000190013001B1B5B415943090D8C46334BE2
:103EE0006519A353324B0099043B5B1B1B05314DF5
:103EF0005B0D2B4304364B80A619131F9B1B1B0520
:103F00005B0D1D4363468B715B468B602C4B8D8034
:103F1000CF7113600143BEE75800C018800020181D
:103F2000C679BE4225D902000623D356002BF3DA08
:103F30009A46131D9C4623486346009E9571043E95
:103F4000F61A36051B4B760D1E43019B96805A19B7
:103F500053469200A418A3715B46194AA0802260C0
:103F6000E771A36097E700F073FF00254B465D57AC
:103F70005EE766469A46131D9C46908804364005C7
:103F80000015A6196044801B00050A4E400D304301
:103F9000D2E700F05DFF63E7240100D075F0002058
:103FA000AC0F002000ED00E0C101001000A1FFFFF8
:103FB000DC0F002000E0FFFF01BDFFFFAAAA000008
:103FC0000148804701BD0000F0B54546DE46574632
:103FD0004E46E0B50D0083B0EFF3108872B6604A2C
:103FE0001368002BFCD0BFF35F8F5E4B5E499A686D
:103FF000030010339F00D45999468C423ED0AC4206
:104000004FD05A4EA21B2F2A38D8594B1A689C46BB
:1040100013000122824013401F22024001209A46D1
:1040200090406346802283469850BFF35F8FEFF342
:1040300005830193002B36D0994501D000F008FF8D
:10404000012322009A439068854208D176E04B0014
:104050005B189B00F3189868854236D01A00062139
:1040600051560029F3DA854254D05346002B27D00D
:10407000C02259463E4B520099501960394B9B68FB
:10408000DC51BFF35F8FBFF35F8F0022344B1A60A8
:1040900088F3108803B0F0BCBB46B246A946A046E0
:1040A000F0BD0C00EAE7220001339A439068854294
:1040B000D5D106201056130000280ADA0C0031E092
:1040C000802359462A4AD150D8E70620185600289E
:1040D00021DB42001118890075188946A96899608A
:1040E000E979D971062169569971002924DBAD88D7
:1040F000F11A6D052D154D44491909051D4D490D40
:104100002943998013181C4A9B001178F318997160
:104110001070AAE713000199002914D1FF319171A1
:104120001649918014490A789A71154A9B1B5B4184
:104130005A43120D0A7098E71049E2E7062010561C
:1041400013000028C5DA0F4A0F49D21A083A500264
:10415000400D014399800D4952080A43DA8084E7F3
:10416000240100D000ED00E0C1010010AC0F0020E0
:1041700000E100E000E0FFFF75F0002001BDFFFF5F
:10418000AAAA0000E60F002000F0FFFF00F8FFFFE2
:104190000123034370B59C46EFF30581EFF31085CF
:1041A00072B6214A1368002BFCD0BFF35F8F1F4B00
:1041B00004001F4AE41A64416243120D1D4C890039
:1041C000A66852B2765866451CD0062159569142CF
:1041D0001CD012215956914222D01E21595691428B
:1041E00020D02A2159560324914210D0124B19781D
:1041F0001A708171BFF35F8F00220B4B1A6085F339
:10420000108870BDA3680D4C5C50EFE7002461007E
:10421000091989005B18FF21997109499980E5E71F
:104220000124F4E70224F2E7240100D0AC0F0020BF
:10423000AAAA000000ED00E075F00020C101001006
:1042400001BDFFFF024BC918890001607047C046DD
:104250004000003470B5114C114DAC420FD2FF2616
:104260002368002B0CD0FFF733FD01002000FFF77F
:10427000E9FFA680BFF35F8F0834AC42F0D370BD76
:10428000FFF726FD01002000FFF7DCFF2671BFF3DA
:104290005F8F0834AC42E3D3F1E7C04668100020DA
:1042A0007810002010B50400FFF712FD0100200077
:1042B000FFF7C8FFFF232371BFF35F8F10BDC04618
:1042C00010B504000120FFF70FFD034BC01880005C
:1042D0002060BFF35F8F10BD400000340A4B1968A7
:1042E000EFF3108072B60A68002AFCD0BFF35F8F2C
:1042F0001B68BFF35F8F00221A6080F3108840BFF5
:10430000002000217047C04630640020F0B5DE4632
:1043100057464E464546E0B585B0EFF30583032288
:104320001A40B34B91005F58012393409B46029281
:104330005A468846AF4B1A60AF4B03935B46AF4873
:1043400043630823FE5E002E37DABB881BB2002BC6
:1043500000DBA4E0BB79002B00D0E5E00823F95E88
:10436000002920DB4B007A695B18DB00D3189D68BD
:10437000DC686B1C00D104E1A04801004144826A62
:104380000B69AE1A9B1A9E4215D30123026A02984A
:1043900083401A420FD0994800F044FB8C4202DC63
:1043A000CCD18542CAD940BF05B0F0BCBB46B246AD
:1043B000A946A046F0BD0D61EDE77A69730091460C
:1043C0009B19DB0099444B469C68DD6800F02AFB92
:1043D0008D42BADC00D1F6E0002D00DADBE04A467F
:1043E0004B4652691B699246039A934200D1CCE036
:1043F0004A460821785E5288000451461043984787
:10440000009001910099019A0B00134300D1C2E082
:1044100013000A00002B00DBD9E020002900801ADD
:1044200099414B469860D96000229B5E002B00DAD0
:104430008BE75D007C69EA18D200A21800949468AA
:10444000D268A2468A4200DD7FE702D1844200D9C9
:104450007BE70824A4463B81BC44009C00972F00C6
:104460006546B4463E0006E05E00F218D200A2188F
:104470009768D268BA468A4207DC00D1B4E0F318E4
:10448000DB00E518E35E002BEEDA66464A46009F45
:1044900013802E80BB881BB2002B00DA5AE73A69E2
:1044A000EFF3108172B61368002BFCD0BFF35F8F5F
:1044B0000123BE885B42BB8036B23B69BFF35F8F8E
:1044C00000221A6081F31088002E00DA42E73B00D8
:1044D00008333A0099467D6973009B190824115FDF
:1044E000DB004846EB18002913DB9C680093A446C8
:1044F000DC6806E0A34240D00023F95E38000029C2
:1045000006DB4F007F18FF00EF19FB68A342F1DDC7
:10451000009B068000201E5E1980002EDCDA17004A
:10452000BB79002B00D119E70023BB710823F95E8A
:104530004B1C00D137E73D000835AC467C6903E0F1
:1045400084464B1C00D109E74B005B18DB00E018E8
:104550000A00E15E43881BB2002BF1DA01256D42AF
:10456000EE178560C66008257B5F9342E9D06346FD
:1045700019803B8903803A81E3E7BB686345BBD977
:10458000C6E7631C00D0F7E605E7534650461B69B3
:104590009847002823D14B461B883A693B81EFF3AB
:1045A000108372B611680029FCD0BFF35F8F4946B3
:1045B0007A880A803A697E80BFF35F8F002111609C
:1045C00083F31088C1E6844200D805E7BDE60B48B6
:1045D00000F028FA009B019CC018614121E7534676
:1045E0000CCB009201930DE7824500D847E74CE7DA
:1045F000F05700203C7005400D430010004005407E
:1046000070B52D4C2569002D04D00A212B48FFF7E9
:1046100019FE70BD2A4E0321294800F0F9F9E66021
:10462000FFF756FB274B0322C018D02322701B062E
:104630001B6801216370244B8000A3600F2320615D
:104640000220638063694942A18019800231198682
:1046500047311D83585218315A5275325C3999527C
:104660001832013199521832013199521832013100
:104670009952083518329D52023118329952183227
:10468000013199521832013199521832013199523F
:104690001832013199521832013199520B4B0C49A1
:1046A000DC6001303562FFF77FFB01210320FFF75B
:1046B0005DFB084B1D60A8E7F40F0020306400206C
:1046C0000040054040000034FFFF1000F05700207C
:1046D0000D4300103860054000487047F40F00207B
:1046E00070B582B00092019301000269EFF310846B
:1046F00072B61368002BFCD0BFF35F8F0223C85E35
:104700000D6900283FDB4A69430016001B18DB00D7
:10471000D218F35A4B80BFF35F8F00232B6084F3D2
:104720001088069B1361079B5361009B019C93605B
:10473000D460538801335B045B0C1D1C002B20D01C
:10474000ACB20304558023430D69EFF3108C72B6AD
:104750002C68002CFCD0BFF35F8F8C88148088807D
:104760000A69BFF35F8F002010608CF310880A780D
:1047700001309040CA68084952181060180002B011
:1047800070BD0125DCE7BFF35F8F00232B6084F34E
:104790001088013BF2E7C0463C20000010B5438979
:1047A0000A1493421ADD53009B184269DB00D318A8
:1047B0000469EFF3108C72B62268002AFCD0BFF3B4
:1047C0005F8F5A88090494B2090C8A4208D00369A1
:1047D000BFF35F8F00221A608CF31088002010BD99
:1047E000094A22435A80012302698371BFF35F8F14
:1047F000002111608CF31088027804499340C2684C
:10480000012052181360EAE70080FFFF3C200000FF
:1048100040787047F0B5C64600B582B0040000F09D
:1048200009F9FA2206000F0020000023002192005F
:1048300001F09AFA8019794104000D1E02DA012470
:104840002E4D644206267642F71736196F41AF4265
:1048500014D811D000F0EEF832003B00121A8B4150
:10486000002B15DC002B46D02000290000F0ECF8CE
:1048700002B080BCB846F0BDA642EBD900260027A6
:1048800000F0D8F832003B00121A8B41002BE9DD12
:1048900000F0D0F832003B00121A8B41002B0ADBEB
:1048A00000230193164B3200009316483B00FFF79C
:1048B00017FF0130D8D000233900B0469C46124A79
:1048C0001248536A994204D8966A4645CCD2994216
:1048D000CAD10668EFF3108772B63368002BFCD09C
:1048E000BFF35F8F0368BFF35F8F66461E6087F379
:1048F000108820BFE5E7002AB6D0C9E7FFFFFF7F99
:10490000DD420010F40F002000400540306400201C
:10491000F0B5CE46474680B504000D0085B0EFF3F4
:1049200005868946002E10D0364900204B6AAB42DE
:1049300006D38A6A5B1B591E8B41A2424041184331
:1049400005B0C0BCB946B046F0BD2F4FFB683A7801
:1049500098461800039200F065F8039A131D42462A
:104960009B009B5822001B1A9C462B00121A8B415D
:104970009E4210DC0DD020BF224A0020536A4B45D6
:10498000DED3926A5B1B591E8B41A2424041184301
:10499000D6E79445EFD900F04DF822002B00121A0B
:1049A0008B41002B1BDB00230193184B220000934B
:1049B00038002B00FFF794FE002810DD114B5A6AD7
:1049C0004A451CD39B6AA34217D301003800FFF766
:1049D000E5FE0C4A0020536A4B45B1D3D1E7094AA2
:1049E0000020536A4B45ABD30020926A5B1BA24266
:1049F00040415A1E93411843A2E74A45E5D120BFE2
:104A0000E3E7C04600400540F40F0020DD420010FF
:104A100010B5024A0248FFF7EFF810BD88BA00103F
:104A2000684A00200300416A0A00986A596A8A426B
:104A3000FAD17047034B596A0A00986A596A914241
:104A4000FAD1704700400540064A536A9942FCD8A3
:104A500007D1044B02E05A6A914202D19A6A90420D
:104A6000F9D8704700400540F8B5DE464E46454649
:104A70005746E0B505008B4618000A99914600F0AC
:104A80004FFB0A9B6C001E026419304BA400E41813
:104A9000636880469E4200D966602F1FFBB29A462B
:104AA000012B2FD9C0238022294FAD009B017959BA
:104AB0001201E3181A6000291BD14B4622685B01E2
:104AC0005340E022134080225201A2181360534643
:104AD000012B2FD9802380229B01E31812011A6039
:104AE000434666607B51F0BCBB46B246A946A04631
:104AF000F8BD786900F014FB013043001B18033B3C
:104B0000FDD2DAE75B46012BCCD1C02303229B0107
:104B1000E3181A60023AA3681A42FCD04A46236896
:104B200052015A40E023134080225201A218084F3C
:104B30001360AD0058460323216841400B401360C9
:104B400001228240A3681A42FCD0C3E700800040E3
:104B5000704A0020F0B5D6464F4646464400984677
:104B60002418324BA400E41863688A469146C0B505
:104B7000FF2B02D880235B006360061FF6B2012E74
:104B80002FD9C02380222A4F85009B017959120119
:104B9000E3181A6000291BD14B4622685B01534081
:104BA000E022134080225201A2181360012E30D956
:104BB000802380229B01E31812011A6080235B008E
:104BC000636043467B51E0BCBA46B146A846F0BD9F
:104BD000786900F0A5FA013043001B18033BFDD2B1
:104BE000DAE75346012BCCD1C02303229B01E31803
:104BF0001A60023AA3681A42FCD04A46236852015E
:104C00005A40E023134080225201A218084F13603B
:104C1000850050460323216841400B401360012268
:104C20008240A3681A42FCD0C2E7C0460080004020
:104C3000704A0020014B8000C0587047704A002025
:104C4000F0B5C646040000B52348160098460D008E
:104C500000F066FA0100300000F062FA4346069A5E
:104C60001B04120313439C4623680600002B22DB1F
:104C70001A4B1B48E218531E9A4180235242120BD2
:104C80009B011203D218174B1A60174B1A601300BE
:104C900001688B43FBD12122144B2560E318A660E9
:104CA0001A602268002AFCDA6246E26008221A6072
:104CB00080BCB846F0BD3F2322681340AB42D7D139
:104CC000A3681B051B0D8342D2D1EE22E368D202FA
:104CD00013406345CCD1EBE7001BB7000040FDBF9C
:104CE00008C0004000E0004000F000400430000038
:104CF00010B580241C4BE4051C6000281AD0012349
:104D00001A4C18431A4BDC611A4C44401C6259621D
:104D100098628021144BC90519601748174908602B
:104D2000E021C9041960002A07D18022144B120621
:104D30001A6010BD0E4BD861EBE753019B1A9B0024
:104D40009A18802312015B049A4209D213000D497C
:104D50000B60074B5A608022094BD2051A60E8E7C6
:104D6000094B1A00F3E7C04600B00540D3C007B0B6
:104D7000008005402D3FF84FFCFF01000820014056
:104D800000A0054028560020FFFFFF008023024AB4
:104D90009B000B43D362704700800540002310B591
:104DA0000100988A1B8B984710BDC046162310B58A
:104DB000010018885B88984710BDC046F8B5474683
:104DC000CE4680B50F1E18D0142399460433040034
:104DD0000025012698464B461888434621681B88C3
:104DE000984701C4431E984101350640AF42F2D1B5
:104DF0003000C0BCB946B046F8BD0126F8E7C04651
:104E0000002370B504000D00988A05491B8B984754
:104E100003000020002C01DB0130A040290098474E
:104E200055420000AA23064A1B0113608D235B0034
:104E3000D3600449044B19605368002BFCDA7047B7
:104E40000040024000B0FA00006002407047C046D7
:104E500010B50148FEF7A2FEACBA001070B5074DC0
:104E6000074EB54209D20024013E761BB608013632
:104E700008CD01349847B442FAD170BD18AE001085
:104E800054AE001070B5074D074EB54209D200244C
:104E9000013E761BB608013608CD01349847B4426E
:104EA000FAD170BD4CAE001054AE0010054B064A4E
:104EB00006491A60064A074B1A6010000B689843AF
:104EC000FBD1704700E00040BFCDFBFE08C00040B2
:104ED000FE7F3C0000F00040044BDB6C002B03D154
:104EE0008022034BD2021A607047C0460000115066
:104EF0004C201150044A054B1A60054A1368DB0127
:104F00008033FBD17047C046FFFFFF0100F0004037
:104F100008C000404022034B9A675A671A67DA6656
:104F20007047C04600F0014010B5FEF7EDFE10BD21
:104F300070B52849284D294E6D1AAC102200302C2E
:104F400000D930223000920000F0D2FFBC2D3DD8B5
:104F500023002A3B224A052B1DD9302075196D07E5
:104F6000A446001BEB0F002D03DA611C8C46A10048
:104F70007250C01AE3189B004108F318C900C91801
:104F80001A605A6008339942FAD1012303421DD0B6
:104F9000984360440400A300F250631C2F2C15D0EA
:104FA0009B00F250A31C2E2C10D09B00F250E31C4F
:104FB0002D2C0BD09B00F250231D2C2C06D09B00D7
:104FC000F250631D2B2C01D09B00F250054B9E60CC
:104FD00070BDC04600010010C0010010000000209C
:104FE000C101001000ED00E0002310B5294C82B093
:104FF000A367FFF717FF0122274B1A60636C012B91
:10500000FCD10322254B1A60224A936B012BFCD161
:10501000013300930121224A22480433FFF710FE96
:10502000052301210093204A2048FFF709FE0022B2
:10503000022104201E4BFFF78DFD002201210520D7
:105040001C4BFFF787FD0022002107201A4BFFF7BA
:1050500081FD002200210820174BFFF77BFD8023F4
:10506000DB000093002200210920134BFFF7FCFC1A
:105070000022104B00210620FFF76CFD0420FFF7F3
:10508000D9FD0E4900F04CF801000020FFF77EFE2C
:1050900002B010BD008000403CB0004030B0004085
:1050A000002F685900800240008C864700C00240F3
:1050B000001BB70040597307006CDC0240420F0030
:1050C00001480421014B184710100020BD4D00106D
:1050D000124A936F9B0815D29066D166002905D0BD
:1050E000FFE7FFE7FFE7516F106F704704B58021BE
:1050F0000906C2175140002800D0C84305F054FEED
:10510000002104BDF0B5146E556E576F166FFFF792
:10511000E3FF1466556657671667F0BD000000D0C0
:10512000114A936F9B0813D210665166002905D06F
:10513000FFE7FFE7FFE7516F106F704704B50028E6
:1051400001D00020C04305F02FFE002104BDC04661
:10515000F0B5146E556E576F166FFFF7E5FF1466C6
:10516000556657671667F0BD000000D094464A4A5E
:10517000926F9208624601D228E0C046F0B5464ED2
:10518000346E756E776F366F00F020F89446424AA1
:1051900014665566576716676246F0BD94463E4AE8
:1051A000926F9208624601D254E0C046F0B53A4E82
:1051B000346E756E776F366F00F04CF89446364A51
:1051C00014665566576716676246F0BD002B24DBF0
:1051D00011D000293EDA00B5C943404200D1013167
:1051E00000F038F8C943404200D10131DB4352425C
:1051F00000D1013300BD002AEBD1002801D10029E4
:1052000005D00020C90FC90701D1C043410800B52E
:1052100005F0C2FD0022002300BD00B500290ADB15
:10522000DB43524200D1013300F014F8C94340423D
:1052300000D1013100BDC943404200D10131DB43FF
:10524000524200D1013300F005F8DB43524200D155
:10525000013300BD002923D1002B18D1002A0CD026
:10526000BC460D4F38667A6600210023FFE7FFE752
:10527000FFE77A6F386F67467047002801D007480C
:10528000010000B505F088FD0022002300BD0200EA
:105290000B00002000217047000000D0FFFFFFFF3F
:1052A000002B00D0BFE0130C28D1002AE7D080B437
:1052B000114F39667A66FFE7FFE730B4040C7B6F65
:1052C000396F1B0423433B667A66FFE7FFE7FFE77E
:1052D000C04684B27B6F3D6F1B0423433B667A66F6
:1052E000FFE7FFE7C04600232C042D0C7A6F386FD0
:1052F00000196941B0BC7047000000D0F0B5944679
:105300000025140E01D112020835140F01D112012B
:105310000435940F01D192000235D40F01D152000F
:105320000135D40B0134254F7C66254C3C660E0CB0
:1053300093B2FFE7FFE7FFE73C6F6643360C770366
:10534000BE467343DF0B5B04C01AB941130C7343B1
:10535000DB18C91ACE086643360CB64493B27343C1
:105360001F0F1B01C01AB941130C73431F0B1B0500
:10537000C01AB941860D8F023E436643360C092D93
:1053800024DB520A7243801A7703460A6643360CBE
:1053900016235B1BDE40DF40BF1964466643821B59
:1053A0007046043506330100D940A840C01900D327
:1053B0000131A24206D20023F0BD0000000000D05F
:1053C000FFFFFFFF121B0130F3D3F1E709277F1B1B
:1053D000FE406446A2B27243801A00D20139220C08
:1053E0007243130C1204821A99410B007046043563
:1053F00013370100F940A840801900D30131002B78
:1054000002D1A2420AD2F0BD013000D30131121BF9
:10541000FAD2013BF8D1A24200D2F0BD013000D354
:105420000131121BF7E7F0B51C0C00D080E00CB482
:1054300000251C0A04D11B02160E33431202083544
:105440001C0B04D11B01160F3343120104359C0BB6
:1054500004D19B00960F334392000235DC0B02D13E
:1054600092185B4101351C00971864410134464F86
:105470007C66464C3C660E0CFFE7FFE7FFE7C04644
:105480003C6F6643360C7703BE4697B27743C01B2A
:1054900000D20139C01B00D201399FB27743C91B2A
:1054A000C91B170C77437E04FF0B801BB941CE0844
:1054B0006643360C0C2D33DBB644120B1F053A4302
:1054C0001B0B97B27743C01B00D201399FB27743C1
:1054D000C91B170C77433E043F0C801BB941860D56
:1054E0008F023E43664329277F1BFE400C3D7746D3
:1054F000AF40BF1930BCA2B2ABB272437343801A43
:105500009941220C7243130C1204801A9941020033
:105510000B000137001BA941F9D2781E0021F0BD14
:105520000C277F1BFE4077467F0BAF40FF19E0E75B
:1055300000245D1C07D0144F7D663966FFE7FFE746
:10554000FFE7FFE73C6F95B29EB265436643401BA1
:10555000B141150C1E0C6543664336042F0C3E43C7
:105560002D04401BB141994204D202000B002000DF
:105570000021F0BD01D19042F7D3801A9941013446
:105580009942F2D3F6E70000000000D0FFFFFFFFD2
:1055900048404140484018B41B4B5B68FC460193AF
:1055A00008BD04DF3B58001018B4174B1B68FC46BD
:1055B000019308BD00DF455800109446134A926FCE
:1055C000920809D2624618B40F4BDB68FC4601937F
:1055D00008BD0CDFFD5A00100C4AF0B5146E556E74
:1055E000576F166F6246FFF7EEFF084A146655665E
:1055F00057671667F0BD18B4034B9B68FC460193D0
:1056000008BD08DFA1590010202D0020000000D0A7
:10561000FFB550404240504059404B40594000E097
:10562000FFB5154F4C00640D03D0BC4204D10C03F0
:1056300014D80020090D09055C00640D03D0BC429C
:1056400004D11C030AD800221B0D1B0501264B4068
:1056500009D44B4003D58B4200D18242FFBD994211
:10566000FCD19042FFBD0B43DB1803431343F5D03D
:10567000C9434918FFBD0000FF07000000B5FFF750
:10568000CFFF804100BDC04600B5FFF7C9FF01D97B
:10569000002000BD012000BD00B5FFF7B9FF01D912
:1056A000002000BD012000BD00B5FFF7B1FF804123
:1056B00000BD012040054A00121804D85A001218F3
:1056C00001D8002070470120704700000021002809
:1056D00005D17047C1174840401AFAD0C90713B521
:1056E000064B1B6898470CBC441CA2401005120BCB
:1056F0000349091B09051943114310BD2C5800200B
:105700001F04000010B54C00620D8023D218DB008E
:10571000D21A5B057E2A10DD9E3A13DACC170903F4
:10572000490819435242D140640001341532202AFD
:1057300005DAD0400843604310BD002010BD084684
:10574000604310BDC80FC018013810BD18B4044B19
:105750005B6AFC46019308BD24DFAD5C00100000CD
:10576000202D0020132370B51D78012D19D014DDD4
:105770001F48FFF71BFB06001E48FFF717FB1E4CD8
:1057800080223100200000F0B3FB022D2DD01B48F9
:10579000FFF704FB1A4B186070BD1A4B164CA3643C
:1057A000F5E7184B144C23606360A360E36023614A
:1057B0006361A361E36123626362A362E3622363C3
:1057C0006363A363E36323646364A364E3642365A3
:1057D0006365A365E36523666366A366E366236783
:1057E0006367A367E367A364D1E7064BA364CEE7CF
:1057F0005344000053460000202D00204C3300008D
:105800002C5800200958001007B5604601880A0A84
:105810000230DF2AFAD1C9B2820804D30288408854
:105820000004104300E00068014A5050039007BD97
:10583000202D00200FB403BC0CBCF0B50124E407FC
:10584000634000E0F0B50C0DCF0F661E3605891BD6
:10585000640503D3C943404200D30131640D03D032
:10586000661CF60A07D0E41B00207F00791C89071C
:105870008912803C24031D0DDF0F6E1E36059B1B15
:105880006D0503D3DB43524200D301336D0D03D0CA
:105890006E1CF60A07D0ED1B00227F007B1C9B07C5
:1058A0009B12803D2D032F1B661B58D4A446202E2F
:1058B00046DA20371400BC401D00BD40F2403341A1
:1058C0002A4380185941CB0F05D0C943C043002259
:1058D00064425041514162464D0D28D10D0D07D112
:1058E00000281FD0241940414941013A0D0DF9D03B
:1058F000640006D3013000D30131002C01D14008EF
:105900004000013A0BD4941CE40A04D1120511445E
:10591000DB071944F0BDD907204B194300E0D90734
:105920000020F0BD0029DDD1002CDBD1F0BD01321B
:10593000C6074008CD0728434908002EE1D0D9E723
:105940003C2E29DA203E40371400BC4000D0012410
:10595000F24014431A00BB401C43D317ACE7AC46DB
:10596000202F08DA20360400B4400D00B540F8407E
:1059700039412843A5E73C2F0CDA203F403604008C
:10598000B44000D00124F84004430800B1400C4367
:10599000C117EAE710001900002494E70000F07F27
:1059A000F0B50C0D661E3605891BE60A6405640D0C
:1059B00002D0651CED0A04D0002001210905803CBD
:1059C0002403A4461C0D671E3F05DB1BE70A640584
:1059D000640D02D0651CED0A04D0002201231B05D2
:1059E000803C24037740644497B484B296B27443F5
:1059F000070C7E43150C6F4380B26843361802D300
:105A0000012000043F183004350C00197D41844604
:105A100088B29AB250430C0C62431F0C7C438EB286
:105A20007E43921902D301263604A4191604170CDA
:105A30003618674101BC81B29AB25143040C6243EB
:105A40001B0C5C4380B25843121802D3012000049F
:105A500024181004130C401863412D185E410020D7
:105A6000474106BC88B293B258430C0C6343120CF6
:105A7000544389B251435B1802D3012109046418CD
:105A800019041A0C091862416D185641002047414B
:105A900018BCF902720D1143F0026A0D1043ED02B9
:105AA0000A0D03D16D1940414941013B124E9B1B28
:105AB0007600B3420ED26D0007D30130002671414B
:105AC0006646354301D1400840001B05C918E4076C
:105AD0002144F0BD0BDA013306D1013004D101318C
